:020000040800F2
:10000000C8050024B1020008AF3A00084B390008C7
:10001000AD3A0008E1030008E944000800000000D0
:10002000000000000000000000000000F53C000897
:10003000E303000800000000B13A0008F73C0008A4
:10004000CB020008CB020008CB020008CB0200085C
:10005000CB020008CB020008CB020008CB0200084C
:10006000CB020008CB020008CB020008CB0200083C
:10007000CB020008CB020008CB020008CB0200082C
:10008000CB020008CB020008CB020008E9030008FD
:10009000CB020008F5030008CB020008CB020008E1
:1000A000CB020008CB020008CB020008CB020008FC
:1000B000CB020008CB020008CB020008CB020008EC
:1000C000CB020008CB020008CB020008CB020008DC
:1000D000CB020008CB020008CB020008DD44000878
:1000E000CB020008CB02000800000000CB02000891
:1000F000CB020008CB020008CB020008CB020008AC
:10010000CB020008CB020008CB020008CB0200089B
:10011000CB020008CB020008CB020008CB0200088B
:10012000CB020008CB020008CB020008CB0200087B
:10013000CB020008CB020008CB020008CB0200086B
:1001400000000000000000000000000000000000AF
:10015000CB020008CB020008CB020008CB0200084B
:10016000CB020008CB020008CB020008CB0200083B
:10017000CB020008CB020008CB020008CB0200082B
:10018000CB020008CB020008CB020008CB0200081B
:10019000CB020008CB020008CB020008CB0200080B
:1001A000CB020008CB020008CB020008CB020008FB
:1001B000CB020008CB020008CB020008CB020008EB
:1001C000CB020008CB020008CB020008CB020008DB
:1001D000CB020008CB020008CB020008CB020008CB
:1001E000CB020008CB020008CB020008CB020008BB
:1001F000CB020008CB020008CB020008CB020008AB
:10020000CB020008CB020008CB020008CB0200089A
:10021000CB020008CB020008CB020008CB0200088A
:10022000CB020008CB020008CB020008000000004F
:10023000CB020008CB02000800000000CB0200083F
:10024000CB020008CB020008CB020008CB0200085A
:10025000CB020008CB020008CB020008CB0200084A
:10026000CB020008CB020008CB020008CB0200083A
:10027000CB020008CB020008CB02000800000000FF
:10028000CB020008CB020008CB02000800000000EF
:1002900000000000CB020008DFF810D000F08EF85C
:1002A00000480047E9450008AFF30080C805002476
:1002B0000648804706480047FEE7FEE7FEE7FEE700
:1002C000FEE7FEE7FEE7FEE7FEE7FEE7A13D0008EA
:1002D000990200082DE9F05F0546002092469B46F2
:1002E00088460646814640241BE02846414647464C
:1002F000224600F053F853465A46C01A914110D393
:1003000011461846224600F03AF82D1A67EB01080C
:100310004F4622460120002100F031F817EB00097A
:100320004E41201EA4F10104DFDC484631462A4636
:100330004346BDE8F09F40EA01039B0703D009E074
:1003400008C9121F08C0042AFAD203E011F8013BC1
:1003500000F8013B521EF9D27047D2B201E000F81A
:10036000012B491EFBD270470022F6E710B5134659
:100370000A4604461946FFF7F0FF204610BD202A22
:1003800004DB203A00FA02F1002070479140C2F1EC
:10039000200320FA03F3194390407047202A04DB1E
:1003A000203A21FA02F00021704721FA02F3D040EE
:1003B000C2F120029140084319467047064C074D90
:1003C00006E0E06840F0010394E807009847103425
:1003D000AC42F6D3FFF764FFF04600081047000870
:1003E000FEE7704772B6FEE7014800F027BF000045
:1003F00070000024014800F021BF000070000024BC
:10040000F0B503684FF6FC716D4C426BD3F8845025
:100410008D4345EA8205C3F88450036853F8845F2E
:10042000068F25F47F0545EA06451D60836B654D03
:100430009F180268D2F888308B4343EA8703C2F8DA
:100440008830026852F8883F868F23F4FE0343EA1F
:1004500006431360066856F8A03FC26B8B4307EB58
:10046000420243EA82033360076857F8A03FB0F8BE
:10047000406023F4FE0343EA06433B60D0E91036B4
:1004800003FB06220368D3F8B0608E4346EA820677
:10049000C3F8B0600368B0F84860D3F8B07027F4D0
:1004A000FE0747EA0646C3F8B060D0E91267036862
:1004B00006FB0722D3F8AC608E4346EA8206C3F8F7
:1004C000AC60D0E91467036806FB0722D3F8F0603C
:1004D0008E4346EA8206C3F8F0600368B0F85860BD
:1004E000D3F8F07027F47C1747EA0646C3F8F060AB
:1004F0000368876D53F8C06F02EB47028E4346EAEC
:10050000820119600168B0F85C20D1F8C03023F492
:100510007C1343EA0242C1F8C020016890F86020D1
:10052000D1F8C03023F07C5343EA0262C1F8C02006
:10053000416B04EB8101C166826B01EB82020267B1
:10054000C36B02EBC3024267D0E91034634302EB92
:1005500083028267D0E91234634302EB8302C267ED
:10056000D0E91434634302EB8302C0F88020836D2A
:1005700002EBC303C0F88430C46D826E544303EBB6
:100580008403C0F88830046E544303EB8402C0F83F
:100590009020AA420AD9D0F89C20032142F02002E0
:1005A000C0F89C2080F898100120F0BD002200E0E7
:1005B00004C1D0F890308B42FAD80020F0BD000082
:1005C00000AC0040FCD30040F0B58E680C69D1E966
:1005D000005744EA0604DFB145F080452C43866E9F
:1005E000D1E906C54F695E4391F8203045EA0C0514
:1005F000B1F80CC0D0F884E0002047EA0363104F44
:100600001D430EEB860345EA0C45E3E8024511E085
:1006100044EA8544E3E71418155CA67894F803C00F
:1006200094F801E0360445EA0C6446EA0E252C43B2
:10063000001D10C3CC683C5D8442ECD8F0BD0000C6
:100640005C4600082048002138B5022202C001247F
:1006500080E81600C1600161011FA43800F0A7FC0A
:100660001948022201231146A038009400F0DEFC54
:10067000154800220121A03800F06CFC124800222D
:100680000121A03800F0EEFB0F4800226106A038DF
:1006900000F0E8FB0C480022A038416AC06A4143E0
:1006A0000948A03800F0DBFC0748A03800F0E9FC5E
:1006B0000548A03801F00FF9002803D0BDE8384004
:1006C000FFF790BE38BD00001001002470B58AB05D
:1006D0000D46242106466846FFF746FE0023012406
:1006E0001320210540EAC610CDE900034A0009485D
:1006F000CDE90234CDE90431CDE906232A46694625
:10070000089300F0F3FB002801D0034804600AB00E
:1007100070BD0000700000240400002470B58AB091
:1007200014460E46054624216846FFF71DFE142098
:100730000022029240EAC5104FF00105082CCDE9D5
:1007400000023ED007DC082C31D2DFE804F0171994
:100750001B1D32343638182C39D007DC0C2C32D023
:10076000102C32D0142C22D10B200EE0202C30D0B3
:10077000302C30D0402C1AD10F2006E0039205E037
:10078000039503E0022000E0032003904FF4801063
:1007900008924100CDE90420CDE906120F48324607
:1007A000694600F0A3FB002801D00D4805600AB09F
:1007B00070BD0420E9E70520E7E70620E5E707200C
:1007C000E3E70820E1E70920DFE70A20DDE70C2066
:1007D000DBE70D20D9E70E20D7E7000070000024EA
:1007E00004000024F0B58BB0154610EE104A0E46FA
:1007F000074624216846FFF7B7FD2222002001901A
:1008000042EAC71300934FF4801206215300CDE94A
:100810000402CDE902018DF82460210A8DF82550EB
:10082000270C220E0890CDE906308DF826408DF871
:10083000287008488DF8271069468DF8292009AAE4
:1008400000F054FB002802D00349012008600BB0DF
:10085000F0BD000070000024040000242DE9F84FD2
:10086000044601F07DF900903CB194F8350002286F
:1008700006D0802161650020E4E00120BDE8F88F0A
:10088000C74DC74EC649183520683036DFF8148387
:10089000DFF814938842DFF814A3DFF814B32ED0E6
:1008A000A8422CD0B0422AD0404528D0484526D076
:1008B000504524D0584522D0BD4A183290421ED00F
:1008C000BC4A90421BD0BB4A1832904217D0B94A5A
:1008D0003032904213D0B74A483290420FD0B54AD6
:1008E000603290420BD0B34A7832904207D0B14A7E
:1008F0009032904203D0AF4AA832904209D10268A8
:1009000022F01E0202602068426922F080024261E9
:1009100003E0026822F00E02026027688F42384628
:100920004DD0A8424BD0B04249D0404547D0484571
:1009300045D0504543D0584541D09D4A1832904249
:100940003DD09C4A90423AD09A4A1832904236D0D2
:10095000984A3032904232D0964A483290422ED055
:10096000944A603290422AD0924A7832904226D0FD
:10097000904A9032904222D08E4AA83290421ED0A5
:100980008D4A90421BD08C4A1432904217D08A4A2A
:100990002832904213D0884A3C3290420FD0864A87
:1009A000503290420BD0844A6432904207D0824A3F
:1009B0007832904203D0804A8C32974204D1206E24
:1009C000026822F48072026075492068884228D04B
:1009D000A84226D0B04224D0404522D0484520D05D
:1009E00050451ED058451CD071491831884218D046
:1009F0007049884215D06F491831884211D06D492D
:100A0000303188420DD06B494831884209D069495C
:100A10006031884205D067497831884201D0654904
:100A20009031016821F0010101600EE001F098F8B9
:100A30000099401A052808D9202262650321002068
:100A400084F8351084F8340017E73868C007EDD112
:100A5000534A0121206890422ED0A8422CD0B042A7
:100A60002AD0404528D0484526D0504524D0584566
:100A700022D04F4B183398421ED04E4B98421BD079
:100A80004C4B1833984217D04A4B3033984213D00E
:100A9000484B483398420FD0464B603398420BD0B6
:100AA000444B7833984207D0424B9033984203D05E
:100AB000404BA833984208D194F85C703F23A06D56
:100AC00007F01F07BB40836007E094F85C30A06D1F
:100AD00003F01F0301FA03F34360206890424DD0F6
:100AE000A8424BD0B04249D0404547D0484545D0B8
:100AF000504543D0584541D02D4A183290423DD000
:100B00002C4A90423AD02B4A1832904236D0294A89
:100B10003032904232D0274A483290422ED0254A75
:100B2000603290422AD0234A7832904226D0214A1D
:100B30009032904222D01F4AA83290421ED01E4AC4
:100B400090421BD01C4A1432904217D01A4A2832C5
:100B5000904213D0184A3C3290420FD0164A50327D
:100B600090420BD0144A6432904207D0124A783235
:100B7000904203D0104A8C3290420BD1D4E9190232
:100B80004260E06E30B1026822F480720260D4E903
:100B90001C024260002084F8351084F834006DE6B1
:100BA00010000240580002407000024088000240DD
:100BB000A000024010040240085402582DE9F05FE2
:100BC00028B190F83510022904D080214165012018
:100BD000BDE8F09F904C904B0168183C18338E4A4A
:100BE000DFF83C92A1428D4CDFF838E28E4FDFF8FF
:100BF0003CB2DFF83CA28F4D8F4E31D091422FD0C6
:100C000099422DD0A1422BD0494529D0714527D0FA
:100C1000B94225D0DFF810C20CF1180C61451FD085
:100C2000DFF808C2ACF1600C614519D0DFF8FCC1F7
:100C3000ACF1480C614513D0DFF8F0C1ACF1300CD9
:100C400061450DD0DFF8E4C1ACF1180C614507D067
:100C5000594505D0514503D0A94201D0B1422CD10C
:100C6000DFF8B4C14FF0040880F83580ACF1180CFF
:100C700061451DD091421BD0994219D0A14217D095
:100C8000494515D0714513D0B94211D06648183086
:100C900081420DD065486038814209D063484838A8
:100CA000814205D061483038814201D05F48183810
:100CB000086820F001000860ABE0D1F800C02CF01B
:100CC0000E08DFF854C1C1F80080ACF1180C0168BF
:100CD000614527D0914225D0994223D0A14221D00D
:100CE00049451FD071451DD0B9421BD0DFF838C12E
:100CF0000CF1180C614515D0DFF830C1ACF1600C77
:100D000061450FD0DFF824C1ACF1480C614509D032
:100D1000DFF818C1ACF1300C614503D0DFF80CC12D
:100D2000ACF1180CD1F800C02CF0010CC1F800C0D7
:100D3000DFF8E4804FF0010C0168A8F11808414584
:100D400046D0914244D0994242D0A14240D0494538
:100D50003ED071453CD0B9423AD0334A1832914224
:100D600036D0324A603A914232D0304A483A9142C3
:100D70002ED02E4A303A91422AD02C4A183A91422B
:100D800026D0594524D0514522D0A94220D0B14285
:100D90001ED02A4A91421BD0284A1432914217D0C1
:100DA000264A2832914213D0244A3C3291420FD035
:100DB000224A503291420BD0204A6432914207D0ED
:100DC0001E4A7832914203D01C4A8C32914218D18B
:100DD000016E0A6822F480720A6090F85C20816DCE
:100DE00002F01F020CFA02F24A60D0E919124A60BE
:100DF000C16E31B10A6822F480720A60D0E91C1217
:100E00004A600022016D80F835C080F8342001B1BD
:100E100088470020DCE6000028000240580002401D
:100E20007000024088000240A000024070040240AE
:100E300088040240A0040240B8040240085402584A
:100E400070B5044600F08CFE0546601C02D00448D4
:100E50000078044400F084FE401BA042FAD370BD29
:100E60000800002410B590F89830012B09D0022B0F
:100E700007D0D0F89C1041F00201C0F89C1001206E
:100E800010BD03689C6D0C4203D1DC6D44F001047D
:100E900004E09C6D31EA04041FD00324DC658B055B
:100EA00005D50368D3F8E0401443C3F8E0404B0590
:100EB00005D50368D3F8E4401443C3F8E440006860
:100EC000084A01EA0203446D074A1C43446510685E
:100ED00040EA91701060002010BDDC6D44F0020407
:100EE000DCE70000FFFFCF3F14A8004070B50446C8
:100EF00090F89800022804D0D4F89C0040F0080034
:100F00000DE02068D0F8C03013F07C5F0BD0D0F833
:100F1000C4309B020CD5D4F89C0040F40070C4F897
:100F20009C00012070BDD4F89C0040F02000F6E742
:100F3000D0F8C400C0F3044520462B46FFF744FB1D
:100F400021680120A840C1F8D000C4F89400002016
:100F500070BD704790F89830012B07D0D0F89C10E6
:100F600041F00401C0F89C100120704761B1006895
:100F7000012913D0D0F8B01021F0FE4141EA0261FE
:100F8000C0F8B010002070470068D0F8F01021F0D1
:100F90007C5141EA0261C0F8F010F3E7D0F8A010EC
:100FA00021F0FE4141EA0261C0F8A010EAE770B505
:100FB00090F89820012A09D0022A07D0D0F89C1076
:100FC00041F00201C0F89C10012070BD0B68CA6896
:100FD00083B10B69072A43EA427325D00C7A4A6928
:100FE00042EA84724968006F00EBC100C0E9003238
:100FF000002070BD072A0DD00C7AD6060D8A4B69E9
:1010000043EA847246EA0543C06E49681A4340F8D1
:101010002120EDE70B8A4FF06055D1E9062442EA22
:10102000034245EA0423EFE78A69DBE730B590F82D
:101030009850039C012D07D0D0F89C1041F004017A
:10104000C0F89C10012030BD0D01016845EA820006
:1010500040EA43002043C1F88000002030BD90F8F2
:101060009830012B07D0D0F89C1041F00401C0F853
:101070009C1001207047006842EA01218164002031
:10108000704790F89810012907D0D0F89C1041F0D3
:101090000401C0F89C10012070470068C16841F449
:1010A0000001C1600020704770477047F0B590F8AC
:1010B00098500024022D04D0D0F89C1041F0080173
:1010C00029E0402905D0412929D0056D8D4219D943
:1010D00042E00568D5F8A06016F4FE0F12D0D5F8EE
:1010E000A460760613D0D5F8A460F60105D5D5F82E
:1010F000A06016F0004F00D50124D5F8A470466F0B
:10110000456C24E0D0F89C1041F0200103E0D0F8B9
:101110009C1041F48071C0F89C100120F0BD05685E
:10112000D5F8B06016F4FE0FECD0D5F8B4607606B2
:10113000EDD0D5F8B460F60105D5D5F8B06016F05D
:10114000004F00D50124D5F8B470866FC56CC7F385
:1011500005273C44654302E0456DC66F4D4306EBF1
:1011600085052E6816F0804656602E6836D026F02B
:1011700060461660D5F800C000262E4F0CF0005CCB
:10118000C2F808C0D5F800C00CF0004CC2F810C07E
:10119000B5F804C01FFA8CFCC2F81CC0D5F804C016
:1011A000CCF3034CC2F80CC0D5F804C00CF4801C7E
:1011B000C2F814C0D5F804C00CF4001CC2F818C062
:1011C000D5F804C0CCF3066CC2F820C0D5F804C032
:1011D00008354FEADC7CC2F824C008E0C6F38A4632
:1011E000C7E700BF15F806C003F806C0761CD2F8A2
:1011F0000CC017F80CC0B445F4D840290AD04129D6
:101200000CD020294FF001020CD200688A40C0F8AF
:1012100098200DE00068C0F8A84009E00068C0F818
:10122000B84005E0006801F01F018A40C0F89C202A
:101230000020F0BD5C460008704700002DE9FF5F0C
:10124000DFF80CB304460BF10401DBF8000025685D
:101250000F68AA468007D5F85090696DD5F8508080
:101260006E6D2A6DD5F854C02B6D00EA8770009022
:1012700009F470496F6D286D01EA09010191DAF8EE
:101280005410DAF85490DAF8505008F00F0806EAD3
:101290000806029602F0F00203F071536FEA0906A5
:1012A0001F4000F060700CEA020CCDF80CC0F20593
:1012B00001EA00090CD4E843C00509D400214FF429
:1012C0008073CAF85030CBF800102046FFF7B4FF07
:1012D000700512D4E84340050FD4206800234FF472
:1012E0008068D0F8DC20D0F8E410C0F85080CBF84B
:1012F00000301140204600F00DFBDFF858A20098A6
:1013000050B12268830F00EA0A001065CBF8003064
:1013100020460099FFF71DFE019850B12268830F07
:1013200000EA0A001065CBF800302046019900F071
:10133000F3FA029850B12268830F00EA0A001065A0
:10134000CBF800302046029900F08AFA039850B199
:101350002268830F00EA0A001065CBF800302046AF
:10136000039900F0B7FA30050CD4E843000509D41E
:10137000236800204FF400621A65CBF80000204675
:1013800000F0CBFAB00512D4E84380050FD42068F2
:1013900000234FF40078D0F8D820D0F8E010C0F83F
:1013A0005080CBF800301140204600F0B4FA3003F2
:1013B0000CD4E843000309D4236800204FF4002232
:1013C0001A65CBF80000204600F048FAF0030CD470
:1013D000E843C00309D4236800204FF480321A6523
:1013E000CBF80000204600F094FA70030CD4E843D8
:1013F000400309D4226800204FF480231365CBF802
:101400000000204600F084FAB0030FD4E8438003C4
:101410000CD4236800204FF400321A65CBF800008A
:10142000D4F89C0040F08000C4F89C00B9F1000F93
:101430000BD022684FEA997309EA0A001065CBF8CD
:10144000003049462046FFF730FE5FB12268BB0FEF
:1014500007EA0A001065CBF80030D4F89C00384346
:10146000C4F89C003C492068884268D16068814685
:101470008068800763D0D9F82060D9F82410D9F8A3
:101480002080D9F82400D9F820C0D9F82470D9F8E0
:101490002030D9F82450D9F8202003F4FC4306F07A
:1014A0000F0AD9F824601D40D9F824B008F030089C
:1014B0000CF4C07C02F4F02211EA0A0100EA0808E8
:1014C00007EA0C0706EA0206D9F820A004D0C9F8FA
:1014D0002010204600F019FAB8F1000005D061682C
:1014E00008624146204600F012FA6FEA0B004006FF
:1014F0000ED46FEA0A0040060AD460684021C36B2C
:10150000C26B01622046190C02F03F0200F0FEF9A6
:101510002FB1606807623946204600F0F5F935B111
:1015200060680562D4F89C002843C4F89C0036B17A
:1015300060680662D4F89C003043C4F89C00D4F87C
:101540009C00002802D02046FFF7AEFDBDE8FF9FBB
:1015500010A80040FFFFCF3F00A000402DE9F04160
:1015600094B08D494C2204466846FEF7E4FE64B10F
:101570008A4D2068A84202D100F58070606094F81E
:1015800098004FF0000820B108E0012014B0BDE839
:10159000F081204684F8998000F002F92068816982
:1015A00021F01001816100F0DBFA0327064604E018
:1015B00000F0D6FA801B0A2811D82068806900073D
:1015C000F6D42068816941F00101816100F0C8FA18
:1015D00006460DE000F0C4FA801B0A2808D9D4F8AA
:1015E0009C0040F00100C4F89C0084F89870CCE79F
:1015F00020688069C007EDD02068816941F0020150
:101600008161207C01282068816937D041F0400148
:101610008161607C01282068816932D021F4804199
:101620008161A07C0128206881692DD041F480511E
:1016300081612068A268816921F440711143816150
:101640002068816921F0A40181612068016921F08D
:1016500010010161E068012819D010B302281BD0E5
:101660002068816941F0800181612068016941F051
:1016700010010161E06803280ED012E021F0400162
:10168000C6E741F48041CBE721F48051D0E72068E0
:10169000816941F0040103E02068816941F0200183
:1016A0008161207E6FF0FF02D4E90773A68A1102E0
:1016B000400602EB0727A0F10070384327685B1E45
:1016C000184301EB06463043F861A068B0F5407F4F
:1016D00011D104F12800A68C6FF00F0C89C801EB22
:1016E0000641401E02EB0322104322680CEB071355
:1016F00018430843D060206E30B12068626ED0F885
:10170000C0101143C0F8C010D4E917126846D14286
:1017100009D02168A36E51F8C82F50F8233022F069
:1017200007021A430A60216C49B12168626C51F8C2
:10173000BC3F50F8226023F0070232430A60A16CDC
:1017400051B12168E36C51F8BC2F50F8233022F0DE
:10175000700242EA03120A60216D51B12168626D84
:1017600051F8BC3F50F8220023F4E06242EA002026
:1017700008602068A84204D16068816821F00301F4
:101780008160C4F894800121C4F89C8084F898108A
:101790002046FEF735FEF9E66C46000800A0004042
:1017A00070B5B6B00446142130A8FEF7DDFDC021A7
:1017B0006846FEF7D9FD26492068884246D10021B7
:1017C00002250C4619224FF400408DE80700A023A3
:1017D000CDE9033580031C9020266846CDE90651EB
:1017E000CDE90861059500F0E5FB08B1FEF7FAFDCB
:1017F0001848016841F480710160006800F480704D
:10180000359014480C38016841F008010160006807
:101810000921329400F0080035900320CDE930050D
:10182000CDE933510C4830A900F078F8002213209C
:10183000114600F00DFA132000F0FCF900221520EB
:10184000114600F005FA152000F0F4F936B070BD2D
:1018500000A00040EC440258000C02587047000001
:10186000C80710B526D0144B40211448A3F1280214
:10187000FFF71CFC00281DD10F49142201F11400B0
:10188000FEF759FD0C481421FEF76EFD0A48283872
:10189000016885290ED1C06801280BD1064800785F
:1018A00030B1012806D106A0BDE8104002F01EBEEE
:1018B00005A0F9E710BD00004800002470000024D6
:1018C00046494C4544210000535543434553532159
:1018D00000000000704790F89810012907D0D0F858
:1018E0009C1041F00401C0F89C10012070470221B7
:1018F00080F89810002201688B6923F001038B6146
:10190000C0F89C201046704770477047704770477A
:101910007047704770477047704770472DE9F84F20
:1019200003247D4D00234FF001094FF0B04B4FF0E1
:101930000F0AE9E009FA03F73A4076D00E7906F08B
:101940000306012E01D0022E18D1D0F808C04FEAAC
:10195000430ECE6804FA0EF82CEA080C06FA0EF6CE
:1019600046EA0C068660D0F804C00E792CEA070C13
:10197000C6F300169E4046EA0C0646600E79F64312
:10198000B6070BD0C6684FEA43088F6804FA08FC14
:1019900026EA0C0607FA08F73743C7600E7906F007
:1019A0000306022E12D1DE080F694FEA437C00EBDA
:1019B0008606B646366A4FEADC6C0AFA0CF807FA75
:1019C0000CF726EA08063743CEF820700F79066830
:1019D0004FEA430807F0030704FA08FC07FA08F780
:1019E00026EA0C06374307604E6816F4403F1CD0C9
:1019F0004A4E376847F00207376036689F0706F09F
:101A00000206009623F0030606F1B046B6463F0FE5
:101A1000D6F80864DFF808810AFA07FC404526EA90
:101A20000C0603D14FF0000C41E06CE0DFF8F4C08D
:101A3000604502D14FF0010C39E0DFF8ECC06045A1
:101A400002D14FF0020C32E0DFF8E0C0604502D175
:101A50004FF0030C2BE0DFF8D8C0604502D14FF007
:101A6000040C24E0DFF8CCC0604502D14FF0050C37
:101A70001DE0DFF8C4C0604502D14FF0060C16E04F
:101A8000DFF8B8C0604502D14FF0070C0FE0DFF877
:101A9000B0C0604502D14FF0080C08E0DFF8A4C0E8
:101AA000604502D14FF0090C01E04FF00A0C0CFA2E
:101AB00007FC4CEA060CCEF808C44F68DBF800605F
:101AC000FF0226EA020600D516435F46CBF8006007
:101AD000D1F804C0DBF804605FEA8C2C26EA020629
:101AE00000D516437E606E684F6826EA0206BF0383
:101AF00000D516436E602E684F6826EA0206FF0383
:101B000000D516432E605B1C0A6832FA03F67FF498
:101B100011AFBDE8F88F000080000058F44402586F
:101B2000000002580004025800080258000C025835
:101B3000001002580014025800180258001C0258E5
:101B400000200258002402580AB18161704709043C
:101B5000FBE7000001480068000C70470010005CC3
:101B6000014880687047000008000024024881682E
:101B7000027811448160704708000024032010B5EA
:101B800000F086F801F060F80F4A104914681368F5
:101B9000C4F3032203F00F038A5CC95C02F01F0246
:101BA00001F01F01D0400A4A20FA01F111600949F1
:101BB00008600F2000F010F808B1012010BD00F0FF
:101BC0002BF8002010BD000018440258E046000821
:101BD000180000241400002470B50D4D0446287828
:101BE000A0B14FF47A71B1FBF0F00A490968B1FB7A
:101BF000F0F001F086FB48B9102C07D200222146F4
:101C0000501E00F025F800206C6070BD012070BDF2
:101C10000800002414000024054808B5016841F0BC
:101C200002010160006800F00200009008BD0000A1
:101C3000F4440258002809DB410900F01F02890022
:101C4000012001F1E0219040C1F80001704700003F
:101C50000E4BF0B41B680D46C3F30223C3F1070615
:101C6000042E00D90426191D072901D2002300E003
:101C7000DB1E012404FA06F19C40491E2940641E23
:101C8000994014402143F0BC02F038BC0CED00E058
:101C9000064900F0070210B54FF6FF040868044B30
:101CA000204040EA02201843086010BD0CED00E01F
:101CB0000000FA05134970B50A68D243520705D5EA
:101CC000096801F00701814213D118E00A6822F087
:101CD000070202430A60FFF743FF0A4D4FF47A768A
:101CE0000446083D07E000BFFFF73AFF001BB04283
:101CF00001D9012070BD2868C0438004F4D40020BD
:101D000070BD00000C48025810B500F057FF05499F
:101D10000968054AC1F30211515C01F01F01C84076
:101D200010BD000020440258E0460008494930B583
:101D3000484C0B1D0A68143409681D68246802F0B9
:101D40000303C5F30012C1F30531C4F3CC04002929
:101D500014FB02F200EE102AF8EE400A75D03F4A5A
:101D60009FED3D1AB7EE000A6BB1DFED3D1A012B76
:101D700001D0022B64D002EE101A1168F8EE422A4C
:101D800081EEA22A21E0334C283C23689B0612D521
:101D9000344B246801EE901A1168C4F3C104F8EEC4
:101DA000612AE34001EE903AC1F30801F8EE611AAE
:101DB00081EEA22A0BE001EE901ADFED2B2A00BF84
:101DC000F8EE611A116882EEA12AC1F3080101EE52
:101DD000901A1168F8EE611A40EE811A71EE800ACD
:101DE00062EE200AC1F3462101EE101AB8EE411A44
:101DF00031EE001AC0EE811ABCEEE11A80ED001A35
:101E00001168C1F3064101EE101AB8EE411A31EE25
:101E1000001AC0EE811ABCEEE11A80ED011A1168B9
:101E2000C1F3066101EE101AB8EE411A31EE000A54
:101E300080EE801ABCEEC10A80ED020A30BD04E0DB
:101E400001EE901ADFED092ABAE700210160416036
:101E50008160F3E7284402580000003938440258F2
:101E60000024744A0090D0030024744C20BCBE4B64
:101E7000494930B5484C0B1D0A681C3409681D6877
:101E8000246802F00303C5F30022C1F30551C4F333
:101E9000CC04002914FB02F200EE102AF8EE400AEE
:101EA00075D03F4A9FED3D1AB7EE000A6BB1DFEDEA
:101EB0003D1A012B01D0022B64D002EE101A1168DA
:101EC000F8EE422A81EEA22A21E0334C283C236816
:101ED0009B0612D5344B246801EE901A1168C4F3A6
:101EE000C104F8EE612AE34001EE903AC1F3080123
:101EF000F8EE611A81EEA22A0BE001EE901ADFEDF6
:101F00002B2A00BFF8EE611A116882EEA12AC1F3F4
:101F1000080101EE901A1168F8EE611A40EE811A7C
:101F200071EE800A62EE200AC1F3462101EE101A1A
:101F3000B8EE411A31EE001AC0EE811ABCEEE11A79
:101F400080ED001A1168C1F3064101EE101AB8EED7
:101F5000411A31EE001AC0EE811ABCEEE11A80ED92
:101F6000011A1168C1F3066101EE101AB8EE411AA8
:101F700031EE000A80EE801ABCEEC10A80ED020A42
:101F800030BD04E001EE901ADFED092ABAE7002126
:101F9000016041608160F3E7284402580000003985
:101FA000404402580024744A0090D0030024744C2A
:101FB00020BCBE4B2DE9FE4F0546DFF8E48350F808
:101FC000081B0024F64FC943019005F1280026465E
:101FD00008F12408009008011DD4A86E50B1B0F596
:101FE000801F0CD0B0F5001F0ED0B0F5401F1ED0E2
:101FF00001240FE0386840F40030386017E00198A1
:10200000022101F057FD03E00098022101F0E2FDFA
:1020100004000CD026462888C043C00523D4A86DF0
:1020200005281ED2DFE800F00C11161B1B00AA6E5B
:10203000D8F8001021F440111143C8F80010EAE765
:10204000386840F40030386009E00198002101F060
:1020500031FD03E00098002101F0BCFD044674B19D
:1020600000E0012426462888C043800528D4E86D76
:1020700080281ED00CDC90B140280ED114E0AA6D4F
:10208000D8F8001021F007011143C8F80010EAE762
:10209000C02813D0B0F5807F10D001240FE038683D
:1020A00040F40030386009E00198002101F002FDA1
:1020B00003E00098002101F08DFD04469CB1264606
:1020C0002888DFF8DC92C04309F12C0940052CD4A4
:1020D000D5F8A800B0F5800F20D00DDCA0B1B0F588
:1020E000001F0FD115E0EA6DD8F8001021F4E0715F
:1020F0001143C8F80010E3E7B0F5C00F13D0B0F5F6
:10210000000F10D001240FE0386840F40030386030
:1021100009E00198002101F0CDFC03E000980021C6
:1021200001F058FD04467CB126462888C0430005CE
:102130002DD4D5F8AC00B0F1007F21D00EDCA8B1D1
:10214000B0F1807F10D116E0D5F8A820D9F80010A2
:1021500021F460011143C9F80010E6E7B0F1407FB7
:1021600013D0B0F1806F10D001240FE0386840F434
:102170000030386009E00198002101F09BFC03E089
:102180000098002101F026FD044674B12646286817
:10219000C04380011FD4E86CD8B110280FD020288C
:1021A00012D0302815D0012414E0D5F8AC20D9F88D
:1021B000001021F0E0611143C9F80010E7E738682A
:1021C00040F40030386004E00198022101F072FC14
:1021D000044674B126462888C043C0042BD4286E18
:1021E000B0F5005F20D00DDCA0B1B0F5805F0FD15D
:1021F00015E06B48EA6C2030016821F03001114392
:102200000160E8E7B0F5405F13D0B0F5804F10D023
:1022100001240FE0386840F40030386009E001988C
:10222000002101F047FC03E00098002101F0D2FCFE
:1022300004468CB126462888C043800429D4686EA1
:10224000B0F5403F23D010DC08B3B0F5803F14D088
:10225000B0F5003F0FD115E02A6ED8F8001021F438
:10226000E0411143C8F80010E5E7B0F5802F0ED02B
:10227000B0F5A02F0BD001240AE00198012101F054
:1022800019FC03E00098012101F0A4FC044694B17C
:1022900026462888C04340042AD4D5F8B000B0F1BF
:1022A000405F23D010DC08B3B0F1805F14D0B0F1F0
:1022B000005F0FD115E06A6ED8F8001021F4E0211C
:1022C0001143C8F80010E4E7B0F1804F0ED0B0F130
:1022D000A04F0BD001240AE00198012101F0EAFB94
:1022E00003E00098012101F075FC044674B1264614
:1022F0002888C04300041FD4286FD8B1B0F1805F94
:102300000ED0B0F1005F10D0012414E0D5F8B02059
:10231000D9F8001021F0E0411143C9F80010E7E7B7
:10232000386840F40030386004E00198012101F081
:10233000C1FB044674B126462868C043C0011ED4C0
:10234000A86CD0B101280ED0022811D0032814D0D7
:10235000012413E02A6FD8F8001021F040511143F6
:10236000C8F80010E8E7386840F40030386004E04E
:102370000198022101F09EFB0446ACB12646286874
:10238000DFF81CB0C043ABF11C0B400252D405482F
:10239000016841F480710160FFF7E2FB824611E0C1
:1023A0002C44025800480258FA48AA6C016821F0EF
:1023B000030111430160E2E7FFF7D2FBA0EB0A0043
:1023C000642835D8F4480068C005F5D58CBBDFF823
:1023D000C4A3B5F8B4100AF1240ADAF8000001F435
:1023E000407100F44070884211D0DAF80010DAF839
:1023F000002021F4407142F48032CAF80020DAF85B
:10240000002022F48032CAF80020CAF80010D5F863
:10241000B400B0F5807F1AD1FFF7A2FB029012E062
:10242000FFF79EFB0299411A41F2883081420AD996
:10243000032426462878DFF85CA3C0430AF1080A83
:10244000C00721D03CE0DAF800008007E8D5D5F8D5
:10245000B410C1F30120032858460DD0016821F4BF
:102460007C510160B5F8B420DAF80010C2F30B0219
:102470001143CAF80010DDE7C84A036802EA1112E6
:1024800023F47C511143ECE7E86F182816D005DCE3
:10249000A0B1082808D0102804D10AE020280DD0C7
:1024A00028280BD001240AE00198012101F002FB49
:1024B00003E00098012101F08DFB044664B126463B
:1024C0002878C04380071ED4A86F062819D2DFE8F9
:1024D00000F0160C11161616EA6FDAF8001021F04B
:1024E00038011143CAF80010EAE70198012101F010
:1024F000E1FA03E00098012101F06CFB04467CB195
:1025000000E0012426462878C04340071FD4D5F8B0
:102510009400062819D2DFE800F0160C11161616E2
:10252000AA6FDAF8001021F007011143CAF8001071
:10253000E9E70198012101F0BDFA03E000980121CB
:1025400001F048FB0446A4B100E0012426462878A7
:10255000C04380062BD4D5F89000B0F1405F24D062
:1025600011DC10B3B0F1805F15D0B0F1005F10D175
:1025700016E0D5F89420D9F8001021F00701114396
:10258000C9F80010E3E7B0F1804F0ED0B0F1A04FD2
:102590000BD001240AE00198002101F08BFA03E03E
:1025A0000098022101F016FB044694B126462878D3
:1025B000C04340062BD4D5F89C00B0F5406F24D022
:1025C00011DC10B3B0F5806F15D0B0F5006F10D1ED
:1025D00016E0D5F89020DAF8001021F0E041114320
:1025E000CAF80010E3E7B0F5805F0ED0B0F5A05F49
:1025F0000BD001240AE00198002101F05BFA03E00E
:102600000098022101F0E6FA044694B126462878A3
:10261000C04300062BD4D5F8A000B0F5C04F24D09D
:1026200011DC10B3B0F5005F15D0B0F5804F10D1BC
:1026300016E0D5F89C20D9F8001021F4E0511143A0
:10264000C9F80010E3E7B0F5004F0ED0B0F5204F09
:102650000BD001240AE00198002101F02BFA03E0DD
:102660000098022101F0B6FA044654B126462878B3
:10267000C04300071ED4D5F88400B0F5805F0AD0AF
:102680000FE0D5F8A020D9F8001021F460411143E3
:10269000C9F80010EBE70098022101F09BFA00B1A5
:1026A0000126D5F88420DAF8001021F440511143B6
:1026B000CAF800102878C043C00613D4D5F8980093
:1026C000B0F5807F05D10098022101F083FA00B1B6
:1026D0000126D5F89820D9F8001021F44071114353
:1026E000C9F800102868C043000316D4D5F8A40028
:1026F00038B1B0F5803F09D0B0F5003F0BD00124D0
:102700000AE00198002101F0D5F903E000980221C8
:1027100001F060FA04468CB126462868C0434003A5
:1027200022D4D5F88800B0F5801F11D0B0F5001F75
:1027300013D0B0F5401F15D0012414E0D5F8A42023
:10274000D9F8001021F440311143C9F80010E4E732
:10275000386840F40030386004E00098012101F04E
:1027600039FA04465CB126462868C043C00323D426
:10277000286DA8B1B0F5803F17D001241BE0D5F833
:102780008820DAF8001021F440111143CAF8001033
:10279000EAE700004C44025800480258CFFFFF000F
:1027A000386840F40030386004E00198022101F0FC
:1027B00081F90446E4B126462868C043800005D468
:1027C0000098022101F006FA00B101262868C043F2
:1027D00080031BD4D5F88000B0B1B0F5807F0FD056
:1027E000B0F5007F10D0B0F5407F0DD001240CE093
:1027F0005A482A6D016821F4803111430160DBE7FA
:10280000386840F400303860ECB326462868C0438E
:10281000C00207D46A6FD8F8001021F000411143BC
:10282000C8F800102868C043C00008D4D5F8B82004
:10283000DBF8001021F480411143CBF80010286828
:10284000C043800207D4EA6ED8F8001021F08071EE
:102850001143C8F800102868C04340000CD4DBF8CE
:10286000001021F40041CBF80010DBF80010D5F87F
:10287000BC201143CBF800102868C04308D4374867
:102880006A6D016800E018E021F0405111430160D9
:102890002868C043000208D4D5F88C20DAF800106C
:1028A00021F440011143CAF8001028790024C043E4
:1028B00000F0010020430AD00FE0D5F88020DAF8BC
:1028C000001021F440711143CAF800109EE70198EE
:1028D000002101F0EFF800B106462879C04300F06E
:1028E0000200204305D10198012101F0E3F800B175
:1028F00006462879C04300F00400204305D1019822
:10290000022101F0D7F800B106462879C04300F053
:102910000800204305D10098002101F05BF900B1C7
:1029200006462879C04300F01000204305D10098E6
:10293000012101F04FF900B106462879C04300F0AB
:102940002000044304D10098022101F043F900B9AA
:1029500016B10120BDE8FE8F0020FBE74C44025871
:102960002DE9F05F04000F467ED0DFF83882D8F8FA
:10297000000000F00F00B8420CD2D8F8001021F08F
:102980000F013943C8F80010D8F8000000F00F001C
:10299000B84269D12078844D40070AD5206929685A
:1029A00001F07001884204D9296821F070010143C7
:1029B000296020787C4E361D00070AD56069316891
:1029C00001F07001884204D9316821F0700101439F
:1029D00031602078C0060AD5A069316801F4E06151
:1029E000884204D9316821F4E061014331602078E4
:1029F000DFF8B4B180060BF1080B0CD5E16958463D
:102A0000DBF8002002F07002914204D9026822F043
:102A100070020A430260207880070AD5E0682968BE
:102A200001F00F01884204D9296821F00F01014308
:102A300029602078C0073ED05B49A2682868183911
:102A400020F47060104328606068022818D00328C2
:102A500019D00968012819D0490700294ADADFF896
:102A600048A1AAF1080A00E044E0DAF8002022F0C8
:102A700007020243CAF80020FFF772F8814612E00D
:102A800009688903E9E709688901E6E7C905E4E718
:102A9000FFF766F8A0EB090141F28830814202D9C4
:102AA0000320BDE8F09F6168DAF8000000F038000C
:102AB000B0EBC10FECD1207880070AD5E068296817
:102AC00001F00F01884204D2296821F00F0101436F
:102AD0002960D8F80010404601F00F01B9420BD927
:102AE000016821F00F0139430160006800F00F0018
:102AF000B84201D00120D4E7207840070AD52069E8
:102B0000296801F07001884204D2296821F070011F
:102B100001432960207800070AD56069316801F017
:102B20007001884204D2316821F0700101433160A4
:102B30002078C0060AD5A069316801F4E0618842B6
:102B400004D2316821F4E0610143316020788006CD
:102B50000CD5E1695846DBF8002002F07002914282
:102B600004D2026822F070020A43026000F06CF89E
:102B70000E492A682B68C2F3032203F00F038A5C14
:102B8000C95C02F01F0201F01F01D040084A20FA80
:102B900001F111600749086007480068BDE8F05F6F
:102BA000FFF71AB80020005218440258E046000807
:102BB00018000024140000240C00002430B500F09C
:102BC00043F80B4A0B490C4B15681468C5F30322F4
:102BD00004F00F048A5C095D02F01F0201F01F017E
:102BE000D040064A20FA01F119601060084630BD55
:102BF00018440258E046000818000024140000247D
:102C000000B5FFF7DBFF05490968054AC1F302116A
:102C1000515C01F01F01C84000BD00001C44025877
:102C2000E046000800B5FFF7C9FF05490968054AF5
:102C3000C1F30221515C01F01F01C84000BD00003A
:102C40001C440258E0460008454970B545480968EB
:102C5000434B103B11F0380208D00111082A03D071
:102C6000102A0BD0182A0BD0084670BD19688906A7
:102C7000FBD51968C1F3C101C84070BD3A4870BDA9
:102C80003749374D18310C1D24350A680968266804
:102C90002D6802F0030406F00102C1F30511C5F32B
:102CA000CC0515FB02F200EE102AB8EE400AE9B39B
:102CB0002F4ADFED2E0AB7EE001A6CB1DFED2D1AA8
:102CC000012C01D0022C43D002EE101A1068F8EE4D
:102CD000422A81EEA22A1EE01C68A40611D51B68B8
:102CE00001EE901A1168C3F3C103F8EE612AD840CF
:102CF00001EE900AC1F30800F8EE611A81EEA22AF3
:102D00000BE001EE901ADFED1C2A00BFF8EE611A0D
:102D1000106882EEA12AC0F3080001EE900AF8EED6
:102D2000611A40EE201A31EE810A00E015E022EE31
:102D3000000A1068C0F34620401C00EE900AF8EE2E
:102D4000600A80EE201ABCEEC10A10EE100A70BDB7
:102D500001EE901ADFED092AD8E7002070BD0000CF
:102D6000104402580090D00340787D0100000039E3
:102D7000304402580024744A0024744C20BCBE4BDA
:102D80002DE9F05F04007DD0FF4F2078FE4D18370D
:102D9000DFF8F493103DC00748D0D9F80000396837
:102DA00000F03800102815D0182803D101F00300D6
:102DB00002280FD06068B0F5803F12D010B1B0F596
:102DC000A02F18D0286820F480302860286820F4CC
:102DD000802009E02868800328D560680028D2D0C8
:102DE00024E0286840F480302860606888B1FEF7ED
:102DF000B7FE064609E0286840F480202860F0E726
:102E0000FEF7AEFE801B64286FD828688003F7D5D4
:102E10000CE0FEF7A5FE064605E000BFFEF7A0FEAB
:102E2000801B6428F0D828688003F7D4207841F20A
:102E30000308D54E0C3E800769D5D9F800003968E3
:102E400010F038000ED0182801D188070AD0E068A9
:102E500090B3296821F0190101432960FEF780FE33
:102E6000824631E02868400702D5E06800288AD011
:102E7000E168286820F0190008432860FEF770FE1A
:102E8000824607E0DFE000BFFEF76AFEA0EB0A0023
:102E90000228B9D828684007F6D500BFFEF75AFEC9
:102EA00040451BD82069402812D0316821F47C317C
:102EB00041EA003030602AE018E000BFFEF750FE23
:102EC000A0EB0A0002289FD828684007F6D5E5E75E
:102ED000306820F47C3040F40030EBE7207C31682F
:102EE00021F0FE4141EA0060E4E70DE1286820F0AE
:102EF00001002860FEF734FE824605E0FEF730FE52
:102F0000A0EB0A0002288DD828684007F6D4207864
:102F1000C0065DD5D9F80000DFF86CB2396800F062
:102F20003800ABF1040B082810D0182803D101F0A9
:102F3000030001280AD0E0690028286838D040F052
:102F400080002860FEF70CFE824623E02868C0055A
:102F500023D5E069802876D11FE0206A202821D07F
:102F6000316821F0F84141EA8060306030E000BF14
:102F700094F82010DBF8002022F07C5242EA016134
:102F8000CBF8001024E000BFFEF7EAFDA0EB0A003A
:102F9000022898D82868C005F6D5FEF7DBFD404525
:102FA000E6D8DAE7306820F0F84040F08040DCE70F
:102FB00020F080002860FEF7D3FD064605E000BF44
:102FC000FEF7CEFD801B02289DD82868C005F7D4E7
:102FD0002078000729D56C48616964300029804653
:102FE000016811D041F001010160FEF7B9FD06460C
:102FF00005E000BFFEF7B4FD801B0228C9D8D8F851
:1030000000008007F6D510E021F001010160FEF715
:10301000A7FD064605E000BFFEF7A2FD801B0228C3
:1030200072D8D8F800008007F6D42078800623D51F
:10303000A0690028286810D040F480502860FEF76E
:103040008FFD064605E036E1FEF78AFD801B02286B
:103050005AD828688004F7D50EE020F48050286004
:10306000FEF77EFD064604E0FEF77AFD801B02288F
:103070004AD828688004F7D4207840074FD5DFF875
:103080000C81D8F8001041F48071C8F80010FEF7E8
:1030900067FD064605E000BFFEF762FD801B642861
:1030A00032D8D8F80000C005F6D5374EA068603693
:1030B00001280AD008B1052813D0306820F001009B
:1030C0003060306820F0040002E0306840F0010019
:1030D0003060A06841F2883A90B1FEF741FD804629
:1030E0000AE0306840F004003060EEE7FEF738FD9B
:1030F000A0EB0801514507D830688007F6D50EE0EF
:10310000FEF72EFD804607E084E000BFFEF728FDB5
:10311000A0EB080151457DD830688007F6D4606A7D
:10312000B0B3DFF86480D9F8001008F120084FF63A
:10313000F87B08F10409C1F3C2010329A8F1040ACC
:1031400069D00228286820F08070286003D0FEF73C
:1031500007FD044684E0FEF703FD064605E000BFD8
:10316000FEF7FEFC801B022877D828688001F7D480
:10317000E26A40F2F331386854F8283F884340EA65
:1031800002101843386004E0104402580048025806
:10319000B5E0217B434622894FF4FE0C208A4FF094
:1031A000FE474902267D521E401EA1F50071C2F362
:1031B00008088AB2761E0CEA004042EA080202437E
:1031C000504607EA06610A431A60DAF8002022F046
:1031D0000102CAF80020D9F80020266A22EA0B0270
:1031E00042EAC602C9F80020DAF80010A26921F00C
:1031F0000C011143CAF800100168E26921F00201D4
:1032000011430160016841F480310160016841F4BB
:10321000003101E021E027E00160016841F48021F4
:103220000160016841F001010160286840F0807090
:103230002860FEF795FC044605E000BFFEF790FC11
:10324000001B022809D828688001F7D557E000BF85
:10325000FEF786FC001B022802D90320BDE8F09F80
:1032600028688001F4D44AE039680128D8F80000C1
:1032700021D0A26A01F0030393421CD1E26AC1F398
:1032800005118A4217D1216BC0F30802491E8A42F8
:1032900011D1616BC0F34622491E91420BD1A16B43
:1032A000C0F30642491E914205D1E16BC0F30660AE
:1032B000491E814201D00120D0E7A16C4E46D9F8C9
:1032C0000000C0F3CC00814219D0DAF80000554666
:1032D00020F00100CAF80000FEF742FC4FEA0007A8
:1032E000FEF73EFCB842FBD0A26C306820EA0B002F
:1032F00040EAC2003060286840F0010028600020E9
:10330000ACE7401EB0F1807F10B501D3012010BDA5
:103310004FF0E02460610F21601701F0EFF800200A
:10332000A0610721216110BD30B590F884100129FA
:1033300018D0012280F884202421C0F888100022AF
:10334000202401680B680D6823F0005325F0010567
:103350000D60426601680B60C0F8884080F88420E8
:10336000104630BD022030BD7047704770B504462E
:1033700090F8840001281DD0012284F884202420A4
:10338000C4F8880020680568026822F00102026023
:103390002068826822F060620A438260204600F062
:1033A0006DFD2268202100201560C4F8881084F883
:1033B000840070BD022070BD70B5044690F8840092
:1033C00001281DD0012284F884202420C4F888001C
:1033D00020680568026822F00102026020688268A5
:1033E00022F060420A438260204600F047FD2268D6
:1033F000202100201560C4F8881084F8840070BD76
:10340000022070BD70477047704700002DE9F04101
:1034100007680025044640F60F030226F86939685C
:10342000BA6818420AD183067ED501F0200302F063
:10343000805C53EA0C0377D0616F74E1CF4BDFF807
:1034400040C3134001EA0C0C53EA0C0C6CD05FEA49
:10345000C07C0CD05FEAC15C09D54FF0010CC7F805
:1034600020C0D4F8907047F00107C4F89070870727
:1034700009D5D70707D027683E62D4F8906046F098
:103480000406C4F8906046070AD5D60708D0276816
:1034900004263E62D4F8906046F00206C4F89060BC
:1034A00006070CD501F020061E4308D02668082325
:1034B0003362D4F8903043F00803C4F89030030529
:1034C0000BD54B0109D526684FF400633362D4F85D
:1034D000903043F02003C4F89030D4F89030002BA3
:1034E0003DD0800609D501F0200002F0805108434C
:1034F00003D0616F09B1204688472168D4F8900055
:103500008968490602D410F0280F2AD0204600F01E
:103510009BFD2068806840061ED52068083050E872
:10352000001F21F0400100E021E040E80012002AE5
:10353000F3D1D4F8800078B192490165D4F88000C5
:10354000FDF73CFB00280AD0D4F88000016D00E0B4
:103550002046BDE8F04108472046FFF755FFBDE88B
:10356000F0812046FFF750FFC4F89050F7E7D4F8F9
:103570006CC02023BCF1010F7ED15FEAC06C7BD50B
:103580005FEAC16C78D510203862206880684006F8
:1035900073D5D4F880107C4A0868904234D07A4AB7
:1035A0001832904230D0784A303290422CD0764A4D
:1035B0004832904228D0744A6032904224D0724AF5
:1035C0007832904220D0704A903290421CD06E4A9D
:1035D000A832904218D06D4A904215D06B4A1832EA
:1035E000904211D0694A303290420DD0674A483239
:1035F000904209D0654A6032904205D0634A7832E1
:10360000904201D0614A903240680004000CA6D07C
:10361000B4F85C208242A2D9A4F85E00C869B0F573
:10362000807F2FD0216851E8000F20F4807041E89E
:103630000002002AF6D12068083050E8001F21F06F
:10364000010140E80012002AF5D12068083050E856
:10365000001F21F0400140E80012002AF5D1C4F813
:103660008C30E566216851E8000F20F0100041E839
:103670000002002AF6D101E040E00BE0D4F880001F
:10368000FDF7ECF82667B4F85C00B4F85E10401A59
:1036900081B22FE0B4F85C00B4F85E10B4F85E209C
:1036A000401A81B2002AB2D00029B0D0226852E874
:1036B000000F20F4907042E80007002FF6D1344F3D
:1036C000206800F1080050E8002F02EA070240E8F5
:1036D000002CBCF1000FF3D1C4F88C30E5666567AF
:1036E000206850E8002F22F0100240E80023002B51
:1036F000F6D126672046FFF737FE30E7C60209D528
:10370000560207D54FF4801038622046BDE8F041DC
:10371000FFF779BE06060AD501F0800602F4000222
:10372000164304D0A16F00297FF412AF17E74206B9
:1037300011D54A060FD52046026852E8001F21F035
:10374000400142E80014002CF6D1C0F888308567AB
:1037500000F0FAF803E7020206D54A0004D5204635
:10376000BDE8F041FFF74EBEC001C6D50029C4DA5E
:103770002046BDE8F041FFF7F8BD00000100001051
:1037800020010004334000081000024010040240F1
:10379000FEFFFFEF10B5040003D0D4F8880010B18D
:1037A00007E0012010BD002084F88400204600F0CE
:1037B00027F82420C4F888002068016821F001015E
:1037C0000160A06A10B1204600F07AFB204600F0AC
:1037D00065FC0128E6D02068416821F490414160F1
:1037E0002068816821F02A0181602068016841F029
:1037F000010101602046BDE8104000F0C5BB00009B
:1038000010B5B6B00446142130A8FCF7ADFDC021B8
:103810006846FCF7A9FD1D492068884233D1002085
:103820001E9002210446CDE900106846FEF7C2FB57
:1038300008B1FCF7D7FD1648016841F4802101600A
:10384000006800F48020359011480838016841F084
:1038500008010160006830AB022100F008003590DB
:103860004FF44070072283E813000A4830A9CDE9DD
:103870003342FEF753F8002227201146FEF7E8F9FD
:103880002720FEF7D7F936B010BD000000480040F1
:10389000E8440258000C02582DE9F8430446D0F8D9
:1038A0008800984616460D46202802D00220BDE822
:1038B000F883A5B19EB10021C4F890102120C4F86E
:1038C00088001834FEF74CF9814654F8100CA6878E
:1038D000E6872027183CB0F5805F02D003E0012086
:1038E000E5E7206910B12E46002510E000260EE025
:1038F0008021204600F0A8FDC0B9DEB116F8010B0A
:1039000021688862B4F85600401EA4F85600B4F846
:1039100056004B464FF00002CDF800800028E7D15A
:103920004FF04001204600F08FFD48B1C4F8887088
:103930000320BCE735F8020B2168C0F30800E0E77C
:10394000C4F888700020B2E77047FEE71D480021E8
:103950002DE9F041DFF868C04FF44077C0F800C0AF
:103960000122C0E9027100F11408027441741426A6
:103970003B27827488E8C4004FF00B0CC0E9086252
:1039800004234022C0E90A3C07240363C0E90D1266
:103990002025C163C0E91054C0E9141381650826CD
:1039A000C0E91715C0E91264C0E91914FDF7D6FD86
:1039B000002803D0BDE8F041FCF714BDBDE8F0815C
:1039C00000A000407000002410B586B014216846A5
:1039D000FCF7CAFC1948016841F0800101600168E8
:1039E00001F080010591016841F01001016001685A
:1039F00001F010010591016841F0080101600168C2
:103A000001F008010591016841F0010101600068C1
:103A100000220B4C802100F0010005902046FEF7AB
:103A200093F880200121002203238DE80F006946CE
:103A30002046FDF773FF06B010BD0000E0440258B9
:103A4000001002581848002110B5164C0C224FF4F3
:103A500061330460C0E90131C160C0E904128161D1
:103A6000C161016241628162FFF794FE08B1FCF717
:103A7000B9FC0D480021FFF79FFC08B1FCF7B2FC30
:103A800009480021FFF772FC08B1FCF7ABFC0648BF
:103A9000FFF74AFC002803D0BDE81040FCF7A2BCA9
:103AA00010BD00000048004030010024FEE7FEE7A2
:103AB000704700002DE9F047454D044689464FF018
:103AC000000A2868C04380070AD0414E283E30686B
:103AD00020F080603060FEF743F80746B04608E00B
:103AE0000120BDE8F08700BFFEF73AF8C01B0228AE
:103AF00067D8D8F800000001F6D4206829684FF490
:103B0000FE0721F47C313E0241EA00302860207A31
:103B1000A389B4F804C040022D4D2D495B1E227CC0
:103B2000ACF1010C1035091DA0F5007080B2521ED9
:103B3000CCF3080C07EA034340EA0C00184306EAFA
:103B40000262104328600868626920F0C0001043D8
:103B500008600A68A06922F0200202430A60281D5A
:103B60000A6822F010020A6002684FF6F873E469EE
:103B70009A4342EAC40202600868B9F1000F40F0BB
:103B800010020A6011D00868B9F1010F11D040F499
:103B900000100860D8F80000444640F08060C8F883
:103BA0000000FDF7DDFF05460DE0086840F4002049
:103BB000EFE740F48010ECE7FDF7D2FF401B02284E
:103BC00001D903208DE720680001F5D5504688E72C
:103BD000284402582DE9F047454D044689464FF0E8
:103BE000000A2868C04380070AD0414E283E30684A
:103BF00020F080503060FDF7B3FF0746B04608E084
:103C00000120BDE8F08700BFFDF7AAFFC01B022816
:103C100067D8D8F800008000F6D4208829684FF4CF
:103C2000FE0721F07C713E0241EA00502860207AB4
:103C3000A389B4F804C040022D4D2D495B1E227C9F
:103C4000ACF1010C1835091DA0F5007080B2521EB0
:103C5000CCF3080C07EA034340EA0C00184306EAD9
:103C60000262104328600868626920F440601043D3
:103C700008600A68A06922F4007202430A60281DE5
:103C80000A6822F480720A6002684FF6F873E469E9
:103C90009A4342EAC40202600868B9F1000F40F496
:103CA00080720A6011D00868B9F1010F11D040F09C
:103CB00080700860D8F80000444640F08050C8F892
:103CC0000000FDF74DFF05460DE0086840F4800058
:103CD000EFE740F40000ECE7FDF742FF401B02284D
:103CE00001D903208DE720688000F5D5504688E78C
:103CF000284402587047FDF739BF000030B59DB029
:103D00004C216846FCF730FB202113A8FCF72CFB64
:103D10000220FDF7CFFF2049002520480A6822F045
:103D200001020A600968016841F4404101600168CC
:103D300001F440411B9101688904FCD502200990DF
:103D4000402401210091C20301920A900FABCDE9FA
:103D50000B040C210D900E9083E823006846129509
:103D6000FFF70EF808B172B6FEE708221A94CDE903
:103D70001624D30113AA3F200321CDE9184382E87A
:103D80002300022113A8FEF7EBFD002801D072B634
:103D9000FEE71DB030BD00002C0400581848025842
:103DA0002C48F0B52C4A016841F47001016010689C
:103DB00000F00F00072804D2106820F00F00C01D8B
:103DC000106026490020254C10340B68244D43F028
:103DD00001030B6020600B682B400B60136803F03D
:103DE0000F03072B04D9136823F00F03DB1D1360A7
:103DF0001A4C1C4A18341C4B261D371D2060174CCA
:103E00001A4D28343060261D3860371D23603B1D55
:103E100035601C1D3A60251D2E1D1860331D226063
:103E20002860326018600A680C4B114C22F4802222
:103E300060330A60186020686FF30F00B0F1005F14
:103E400003D20C490120C1F8080143F2D2000A490B
:103E50000860F0BD88ED00E00020005200440258E8
:103E60007FEDF6EA80020101000202020000FF017C
:103E70000010005C008000510040005230B5416EDF
:103E8000B9B101680D4B03F108048A688968C2F36F
:103E90004262490F5D5C615C2D01B5FBF1F1A0F858
:103EA0006A10995CA25C0901B1FBF2F1A0F86810FC
:103EB00030BD0121A0F86A10F8E70000D0460008E4
:103EC00090F82810090706D50168836B4A6822F428
:103ED00000421A434A6090F82810C90706D00168CA
:103EE000C36A4A6822F400321A434A6090F82810E4
:103EF000890706D50168036B4A6822F480321A43A9
:103F00004A6090F82810490706D50168436B4A6853
:103F100022F480221A434A6090F82810C90606D578
:103F20000168C36B8A6822F480521A438A6090F851
:103F30002810890606D50168036C8A6822F40052AD
:103F40001A438A6090F82810490611D50168436C1D
:103F50004A6822F480121A434A60416CB1F5801F0E
:103F600006D10168836C4A6822F4C0021A434A6091
:103F700090F82810090606D50168C26C486820F43C
:103F800000201043486070472DE9F843002504469F
:103F9000C0F89050FDF7E4FD8046206820266FF0C1
:103FA0007E470068000713D50022434631042046AF
:103FB000009700F049FA58B1216851E8000F20F04D
:103FC000800041E80002002AF6D1C4F8886021E0B0
:103FD00020680068400722D5002243464FF4800144
:103FE0002046009700F030FAC8B1206850E8001F62
:103FF00021F4907140E80012002AF6D120680830C0
:1040000050E8001F21F0010140E80012002AF5D11C
:10401000C4F88C60032084F88450BDE8F883C4F8A9
:104020008860C4F88C60E5662567002084F88450B9
:10403000F3E710B5806B0021A0F85E10A0F85610D1
:10404000FFF7E2F910BD000010B5026852E8001F4A
:1040500021F4907142E80013002BF6D10E4B026858
:10406000083252E8001F194042E80014002CF6D133
:10407000C16E012908D1026852E8001F21F0100129
:1040800042E80013002BF6D100212022C0F88C203A
:10409000C166416710BD0000FEFFFFEF2DE9F04350
:1040A00004468068D84E87B0D84B2168D4E90427ED
:1040B000D4F81CC010430A68002547EA0C073843AF
:1040C000324002430A602068E268416821F44051AE
:1040D000114341602268A1699A4201D0206A0143DC
:1040E0009768DFF82CC3CB4ECB4807EA0C070F4389
:1040F00097602168676ACA6A22F00F023A43CA626F
:104100002268B2420ED1006800F03800182873D03F
:1041100047DCB8B3082879D010286FD178E0282878
:104120007ED17BE0BD498A4209D1006800F00700DA
:10413000062875D2DFE800F0546A6C6E7072B849D8
:104140008A4209D1006800F00700062868D2DFE83B
:1041500000F0475D5F616365B2498A4209D100683A
:1041600000F0070006285BD2DFE800F03A50525416
:104170005658AD498A420BD1006800F00700062866
:104180004ED200E010E0DFE800F02B414345474904
:10419000A6498A420AD1006800F03800182839D0B0
:1041A000B7DD2028BBD13CE001203AE0A0498A429B
:1041B00009D1006800F00700062831D2DFE800F0DE
:1041C0001026282A2C2E9B498A420BD1006800F029
:1041D0000700062824D2DFE800F003191B1D1F2169
:1041E00000201EE09A421BD18B48001D006800F0A1
:1041F0000700062814D202E00CE007E010E0DFE838
:1042000000F0030507090B0D02200AE0042008E076
:10421000082006E0102004E0202002E0402000E01A
:1042200080208549DFF814829A42854A4FF4004382
:104230004FEA21174FF000064ED110281AD006DCA5
:10424000022809D004280BD008287CD10DE02028B2
:104250003ED0402877D13DE0FDF756FD014610E005
:104260006846FDF763FD01990BE003A8FDF700FE2A
:10427000049906E01068800605D51068C0F3C100F7
:10428000C140002970D0606A676838F8102007EBD9
:104290004703B1FBF2F0834255D8B0EB073F52D849
:1042A000002308461946FCF715F802467808130E55
:1042B000120243EA012110183A4671410023FCF72B
:1042C00009F8604AA0F5407191423CD821688FE01E
:1042D0003946D8E71946D6E7D4F81CC04FF6EF792F
:1042E0009C4546D1082819D005DC58B101280CD0CE
:1042F000042875D10DE0102815D0202835D040288D
:104300006ED134E0FEF77CFC01E0FEF78BFC014649
:1043100010E06846FDF70AFD01990BE003A8FDF7E0
:10432000A7FD049906E01068800604D51068C0F364
:10433000C100C140C1B1636A606838F81330B1FB95
:10434000F3F1490000E04BE001EB5001B1FBF0F06C
:10435000A0F11001494543D84FF6F0732168C0F32E
:1043600042021840104343E043E03946E3E7194670
:10437000E1E7082819D005DC58B101280CD0042841
:104380002ED10DE0102815D020282BD0402827D181
:104390002AE0FEF735FC01E0FEF744FC014610E0A0
:1043A0006846FDF7C3FC01990BE003A8FDF760FD2B
:1043B000049906E01068800604D51068C0F3C100B7
:1043C000C140B1B1636A606838F81330B1FBF3F1F2
:1043D00001EB5001B1FBF0F0A0F11001494505D906
:1043E000012506E03946EDE71946EBE7216880B282
:1043F000C8600120A4F86A00A4F86800284666672F
:10440000A66707B0BDE8F083F369FFCF000C005842
:10441000FFF4FF11001001405444025800440040D2
:1044200000480040004C0040005000400014014093
:1044300000780040007C00400090D003B84600089F
:1044400000440258FFFC0F002DE9F047994617463B
:104450000D460446089E4FF0000833E0701C31D032
:10446000FDF77EFBA0EB0900B04218D8BEB1206872
:104470000168490726D5802D24D0402D22D0C1695E
:10448000C94309070DD4082505622046FFF7DCFD66
:10449000C4F89050012084F88480BDE8F0870320A0
:1044A000FBE7C069C04300050CD421684FF40060ED
:1044B00008622046FFF7C8FD2021C4F8901084F858
:1044C0008480ECE72068C06935EA000004D0002051
:1044D000B842C3D00020E0E70120F9E70148FEF729
:1044E00095BF000030010024FEE70000014A0249A8
:1044F00000F024B8D14500081C000024090700285A
:104500004FEA116104DB00F1E02080F800147047ED
:1045100000F00F0000F1E02080F8141D704702E069
:1045200008C8121F08C1002AFAD17047704700203E
:1045300001E001C1121F002AFBD170472DE9F041B3
:1045400016460F460446002503E03946B047641C72
:104550006D1C20780028F8D12846BDE8F08130B5E0
:1045600089B00024052505EBC1110294082BCDE983
:10457000001400D803930C2B0CD0102B0CD0142B50
:104580000CD0182B0CD0202B1CD0302B1CD0402B47
:104590001CD007E0092104E00A2102E00B2100E021
:1045A0000C2103914FF4801108944B00CDE9044194
:1045B000CDE906346946FCF799FC002800D00120BB
:1045C00009B030BD0D21ECE70E21EAE70F21E8E745
:1045D00013B50448642301226946FFF75DF9002002
:1045E0001CBD00003001002408B5FDF7C7FAFFF735
:1045F00085FBFFF7E9F9FFF7A9F9FFF723FAFCF7C5
:1046000021F80023134801211A46FFF7A8FF0A20CA
:10461000FCF716FC022069468DF800000120FCF72B
:1046200055F80A20FCF70CFC002201201146FCF78B
:1046300075F84FF47A70FCF703FC074C0022012058
:10464000114694ED000AFCF7CDF80120FCF7F8FBC9
:10465000F4E70000700000240000002400010203C1
:1046600004050607080C1014182030400000000054
:10467000000000000000000000000000000000003A
:104680000100000002000000030000000400000020
:104690000000000005000000000000000000000015
:1046A0000000000006000000000000000000000004
:1046B00000000000070000000100020004000600E6
:1046C00008000A000C0010002000400080000001DB
:1046D00001010103070100000804020408010101AF
:1046E0000000000001020304010203040607080998
:1046F0001047000800000024200000001E450008AC
:104700003047000820000024A80500002E450008BE
:104710000000204100000000010000001000000027
:10472000000000000090D0030090D00300000000C3
:040000050800029954
:00000001FF
