:020000040800F2
:100000007058002471030008775500080F4B000852
:100010008D530008E50D000881690008000000000C
:10002000000000000000000000000000B102000815
:10003000290E0008000000000D030008B559000853
:100040008B0300088B0300088B0300088B03000858
:100050008B0300088B0300088B0300088B03000848
:100060008B0300088B0300088B0300088B03000838
:100070008B0300088B0300088B0300088B03000828
:100080008B0300088B0300088B030008310E000867
:100090008B0300083D0E00088B0300088B0300084B
:1000A0008B030008855B00088B0300088B030008A6
:1000B0008B0300088B0300088B0300088B030008E8
:1000C0008B0300088B0300088B0300088B030008D8
:1000D0008B030008756900088B0300088B03000878
:1000E0008B0300088B030008000000008B0300084E
:1000F0008B0300088B0300088B0300088B030008A8
:100100008B0300088B0300088B0300088B03000897
:100110008B0300088B0300088B0300088B03000887
:100120008B0300088B0300088B0300088B03000877
:100130008B0300088B0300088B0300088B03000867
:1001400000000000000000000000000000000000AF
:100150008B0300088B0300088B0300088B03000847
:100160008B0300088B0300088B0300088B03000837
:100170008B0300088B0300088B0300088B03000827
:100180008B0300088B0300088B0300088B03000817
:100190008B0300088B0300088B0300088B03000807
:1001A0008B0300088B0300088B0300088B030008F7
:1001B0008B0300088B0300088B0300088B030008E7
:1001C0008B0300088B0300088B0300088B030008D7
:1001D0008B0300088B0300088B0300088B030008C7
:1001E0008B0300088B0300088B0300088B030008B7
:1001F0008B0300088B0300088B0300088B030008A7
:100200008B0300088B0300088B0300088B03000896
:100210008B0300088B0300088B0300088B03000886
:100220008B0300088B0300088B030008000000000C
:100230008B0300088B030008000000008B030008FC
:100240008B0300088B0300088B0300088B03000856
:100250008B0300088B0300088B0300088B03000846
:100260008B0300088B0300088B0300088B03000836
:100270008B0300088B0300088B03000800000000BC
:100280008B0300088B0300088B03000800000000AC
:10029000000000008B030008DFF810D000F0FCFA2B
:1002A00000480047FD910008AFF30080705800241B
:1002B0002C4B19680868B0E8F04F80F30988BFF349
:1002C0006F8F4FF0000080F311887047000000002E
:1002D00008480068006880F308884FF0000080F349
:1002E000148862B661B6BFF34F8FBFF36F8F00DF24
:1002F00000BF00BF08ED00E0DFF80C00016841F42A
:1003000070010160704700BF88ED00E0EFF30980E5
:10031000BFF36F8F134B1A681EF0100F08BF20ED4C
:10032000108A20E9F04F106009B44FF0100080F3FC
:100330001188BFF34F8FBFF36F8F0AF025F84FF08E
:10034000000080F3118809BC19680868B0E8F04F14
:100350001EF0100F08BFB0EC108A80F30988BFF3BD
:100360006F8F70471C000024EFF30580704700007A
:100370000648804706480047FEE7FEE7FEE7FEE73F
:10038000FEE7FEE7FEE7FEE7FEE7FEE7A95A000804
:10039000990200082DE9F05F0546002092469B4631
:1003A00088460646814640241BE02846414647468B
:1003B000224600F069F853465A46C01A914110D3BC
:1003C00011461846224600F050F82D1A67EB010836
:1003D0004F4622460120002100F047F817EB0009A4
:1003E0004E41201EA4F10104DFDC484631462A4676
:1003F0004346BDE8F09F40EA01039B0703D009E0B4
:1004000008C9121F08C0042AFAD203E011F8013B00
:1004100000F8013B521EF9D27047D2B201E000F859
:10042000012B491EFBD270470022F6E710B5134698
:100430000A4604461946FFF7F0FF204610BD30B5C6
:100440000B46014600202022012409E021FA02F592
:100450009D4205D303FA02F5491B04FA02F528442C
:10046000151EA2F10102F1DC30BD202A04DB203A86
:1004700000FA02F1002070479140C2F1200320FAF7
:1004800003F3194390407047202A04DB203A21FAF5
:1004900002F00021704721FA02F3D040C2F120029D
:1004A0009140084319467047F0B400F0004221F033
:1004B000004120F00040CE0DC30DC1F3160141F400
:1004C0000001C0F316004C42154640F40000761EB1
:1004D00009E010EB440002D582F00042404288421D
:1004E000F7D840005B1EB342F9DA18B1F0BC002126
:1004F00000F0FFB92846F0BC70472DE9FE4F80465A
:1005000081EA0300C00F0C46009021F0004123F067
:100510000045B8EB0200A94105D24046214690466D
:100520001C460B46024623F00040104347D0270DDF
:10053000C7F30A00C3F30A510290401A0190402801
:100540006BDAC3F3130040F4801B0098924620B18D
:100550000023D2EB030A63EB0B0B01985946C0F161
:1005600040025046FFF781FF06460D465046594669
:10057000019A00F0A3F910EB08006141002487EA1A
:10058000115284EAE7731A4340D0009A62B3019A89
:10059000012A4FEA075215DC001B61EB02014FF004
:1005A000004202EA0752CDE90042001C41F58011E9
:1005B00032462B4600F0DAF903B0BDE8F08F404632
:1005C0002146F9E7001B61EB0201001C41F5801395
:1005D00000185B412018A2F5001747EB030140EA21
:1005E000D570B6196D4111E06D084FEA360645EA3F
:1005F000C0754FEA0752001B61EB0201001C41F578
:10060000801149084FEA30000019514132462B460B
:1006100003B0BDE8F04F00F09AB900980122400005
:100620000023D0EB020263EBE073009821464FEA0F
:10063000E074B8EB000061EB0401E9E783F00043EC
:100640005BE781F0004158E72DE9FE4F81EA0304A2
:1006500004F0004421F0004100944FF0000B23F01F
:10066000004350EA01045ED052EA03045BD0C3F3B6
:100670000A54C1F30A552C44A4F2F3340194A0FBAC
:100680000254C1F3130141F48011C3F3130343F483
:10069000801301FB024400FB034E840A970A44EADC
:1006A000815447EA8357A4FB076802958D0A05FB2E
:1006B00007854FEA932C04FB0C542705029D4FEA53
:1006C000065847EA1637B5EB08056EEB070C870EA0
:1006D000920E47EA811742EA8312A7FB0201B6EBAA
:1006E0000B0164EB00042B0D43EA0C335E1844EB62
:1006F0001C50DA465146E7FB0201C5F313044FEAEA
:100700000B3343EA14534FEA0432019C43EA0603D5
:10071000A4F10C040294009CCDE900B400F026F989
:1007200003B0BDE8F08F00200146F9E72DE9F04D58
:1007300081EA030404F0004B21F0004514464FF019
:10074000000A23F0004150EA050220D054EA0102D9
:100750001DD0C5F30A570246C5F31303C1F31300B6
:10076000C1F30A5640F4801543F48013A7EB060842
:10077000101BD64608F2FD3873EB050002D308F1D2
:10078000010801E092185B41B8F1000F03DA002084
:100790000146BDE8F08D00204FF4801106468446E6
:1007A0000EE0171B73EB050705D3121B63EB050364
:1007B00006434CEA010C49084FEA300092185B41AD
:1007C00050EA0107EDD152EA030012D082EA040098
:1007D00083EA0501084305D0101BAB4106D2012274
:1007E000002306E000224FF0004302E06FF0010218
:1007F00053101AEB06004CEB085110EB0A0041EBCA
:100800000B01BDE8F04D00F0A2B870B521F0004337
:1008100003430CD0C1F30A550024D5EB040564EB67
:100820000403D617AD1AB34102DB0020014670BDA8
:10083000201841EB025170BDC1F30A52C1F31301FC
:1008400040F2FF3341F480119A4202DA002001465F
:10085000704740F233439A42A2F2334202DC5242E2
:10086000FFF712BEFFF701BE30B5041E71F10004A0
:1008700004DB4FF00044404264EB0101141E73F1AD
:10088000000405DB1C464FF00043524263EB0403B7
:10089000994208BF904230BD064C074D06E0E06823
:1008A00040F0010394E8070098471034AC42F6D3B7
:1008B000FFF7F6FCC0B90008E0B90008202A06DB03
:1008C000CB17203A41FA02F043EAE07306E041FA1E
:1008D00002F3D040C2F1200291400843194670470C
:1008E0000029A8BF7047401C490008BF20F0010044
:1008F000704710B4B0FA80FC00FA0CF050EA010422
:1009000004BF10BC704749B1CCF1200421FA04F4B3
:1009100011FA0CF118BF012121430843A3EB0C018C
:10092000CB1D4FEA00614FEA102042BF002010BCEF
:10093000704700EBC35010440029A4BF10BC70479F
:10094000401C490008BF20F0010010BC704710B5E2
:10095000141E73F1000408DA401C41F100019218E2
:100960005B411A4301D120F0010010BD2DE9F04D8B
:1009700092469B4611B1B1FA81F202E0B0FA80F2E0
:1009800020329046FFF771FD04460F4640EA0A0008
:1009900041EA0B0153465A46084313D0114653EA25
:1009A000010019D0C8F140025046FFF76DFD054621
:1009B0000E46504659464246FFF757FD084305D0BC
:1009C000012004E020463946BDE8F08D00200543B3
:1009D00046EAE0762C4337430A986305E40AA0EB25
:1009E00008000022FD0A44EA47540A3002D50020DC
:1009F0000146E9E7010510196941DDE908450019DB
:100A00006941BDE8F04DA2E770B58C1810F8015BA4
:100A100015F0070301D110F8013B2A1106D110F897
:100A2000012B03E010F8016B01F8016B5B1EF9D19B
:100A30002B0705D40023521E0DD401F8013BFAE721
:100A400010F8013BCB1A921C03E013F8015B01F88C
:100A5000015B521EF9D5A142D8D3002070BD000021
:100A60009FED201AB5EE002A00EE012A9FED1E1A16
:100A7000BDEEC20AB5EEC02AF1EE10FA10EE100A71
:100A8000B8BF013800EE100A0020B8EEC00A32EEFE
:100A9000400A9FED162A20EE010ABCEEC01A11EEA4
:100AA000101A30EE021AB0EB512F18BF002102EEDF
:100AB000101A4BF2BC1000FE010AC0F60000B8EE9E
:100AC000422A00EB810090ED011A30EE420AB7EEA7
:100AD000002A32EE402A20EE010A90ED001A02EEC2
:100AE000010A704783F9223E00000044000000C460
:100AF00001804280436070472DE9F04F88B0B0F824
:100B000002C00B889C4540F08880B0F800E0138854
:100B10009E4540F08280B1F80290538899457CD17F
:100B20004FEA9C04476804FB09F049680CF0030590
:100B3000029101EB0010019000202CF00303A0EBC8
:100B40009C0107EB830607914FEA89035168C5F1C1
:100B5000000A00919FED330ACDE9039CCDE9050E13
:100B60000099CE4601EB8008DDE901BC002CB0EE17
:100B7000401AE146384627D0624607993846B0EE1B
:100B8000401A00BF92ED002A90ED003A03EE021ADF
:100B90001A4490ED014A92ED002A04EE021A1A441A
:100BA00090ED025A92ED002A05EE021A1A4490EDD9
:100BB000036A92ED002A06EE021A013100F11000DC
:100BC0001A44DFD1D946304655B1514690ED002A3E
:100BD00099ED003A02EE031A043001319944F5D13F
:100BE00008F1040088ED001ABEF1010E0CF1040CAE
:100BF0000BF1040B8046B9D1DDF80C900598DDF8B7
:100C000010C04844DDF818E007EB8C07BEF1010E78
:100C100006EB8C06A2D1002000E0FD2040B208B017
:100C2000BDE8F08F000000002DE9F04F83B002888E
:100C30004B889A424DD144880B889C4249D100236D
:100C4000D1F804804FEA940C416804F0030ECDF80B
:100C50000080A3EB94040294140196000194CEF159
:100C6000000B4046BCF1000F1ED04746029C00BF5F
:100C700008683D4638603744486807EB0609A851C4
:100C800001F11000D1F808A0013447F806A009EBE3
:100C90000607C968374449F806100146E8D10199AA
:100CA0006C18014603E000BF009800EB8304BEF11E
:100CB000000F07D05D4600BF51F8040B01352060DE
:100CC0003444F9D10133013A08F10408CAD10020B3
:100CD00000E0FD2040B203B0BDE8F08F9FED1F1A89
:100CE00020EE010A9FED1F2ABDEEC01AB5EEC00A24
:100CF000F1EE10FA11EE100AB8BF013801EE100A39
:100D00000020B8EEC11A30EE410A9FED151A20EE10
:100D1000010ABCEEC01A11EE101A30EE021AB0EB46
:100D2000512F18BF002102EE101A4BF2BC1000FE2A
:100D3000010AC0F60000B8EE422A00EB810090EDF7
:100D4000011A30EE420AB7EE002A32EE402A20EEB7
:100D5000010A90ED001A02EE010A704783F9223E63
:100D600000000044000000C4F0B51C488CB004AD85
:100D7000EC461EC88DE81E001EC885E81E000FC880
:100D800008AC84E80F00164B5FF000005FF0000134
:100D90005CF8202001EB400404EB440492E8E000FE
:100DA00003EBC40484E8E00071B108AD0C34491CC5
:100DB00055F820700229E0CF84E8E000EADB401C0F
:100DC0000428E3DB0CB0F0BD04A90C3451F820601A
:100DD00062CE84E862000121DCE700008CAF0008ED
:100DE000C8520024FEE71CB510EE103A8DF8001032
:100DF0008DF801201A0C8DF80230190A8DF80420A4
:100E00001C0E8DF803102523694606228DF8054037
:100E100008F04CF91CBD00004FF4807102460148F7
:100E200001F065BB00100258704772B6FEE7000083
:100E3000014800F05FBE0000E8030024014800F014
:100E400059BE0000E8030024F0B503684FF6FC71BA
:100E50006D4C426BD3F884508D4345EA8205C3F84C
:100E60008450036853F8845F068F25F47F0545EAB4
:100E700006451D60836B654D9F180268D2F8883067
:100E80008B4343EA8703C2F88830026852F8883FF0
:100E9000868F23F4FE0343EA06431360066856F880
:100EA000A03FC26B8B4307EB420243EA82033360ED
:100EB000076857F8A03FB0F8406023F4FE0343EA08
:100EC00006433B60D0E9103603FB06220368D3F8E3
:100ED000B0608E4346EA8206C3F8B0600368B0F89B
:100EE0004860D3F8B07027F4FE0747EA0646C3F817
:100EF000B060D0E91267036806FB0722D3F8AC6044
:100F00008E4346EA8206C3F8AC60D0E914670368F2
:100F100006FB0722D3F8F0608E4346EA8206C3F848
:100F2000F0600368B0F85860D3F8F07027F47C17CD
:100F300047EA0646C3F8F0600368876D53F8C06F50
:100F400002EB47028E4346EA820119600168B0F85D
:100F50005C20D1F8C03023F47C1343EA0242C1F88C
:100F6000C020016890F86020D1F8C03023F07C5395
:100F700043EA0262C1F8C020416B04EB8101C16603
:100F8000826B01EB82020267C36B02EBC302426712
:100F9000D0E91034634302EB83028267D0E9123454
:100FA000634302EB8302C267D0E91434634302EB6C
:100FB0008302C0F88020836D02EBC303C0F8843045
:100FC000C46D826E544303EB8403C0F88830046E12
:100FD000544303EB8402C0F89020AA420AD9D0F807
:100FE0009C20032142F02002C0F89C2080F8981039
:100FF0000120F0BD002200E004C1D0F890308B4207
:10100000FAD80020F0BD000000AC0040FCD3004046
:10101000F0B58E680C69D1E9005744EA0604DFB1E7
:1010200045F080452C43866ED1E906C54F695E4385
:1010300091F8203045EA0C05B1F80CC0D0F884E0F6
:10104000002047EA0363104F1D430EEB860345EA79
:101050000C45E3E8024511E044EA8544E3E714184F
:10106000155CA67894F803C094F801E0360445EACC
:101070000C6446EA0E252C43001D10C3CC683C5D71
:101080008442ECD8F0BD000078AE00081C48002176
:1010900038B5022202C0012480E81600C160016157
:1010A000011F184800F0DFFB0222164801231146F9
:1010B000009400F017FC13480022012100F0A6FB69
:1010C00010480022012100F029FB0E480022610691
:1010D00000F024FB0B480022416AC06A41430948E2
:1010E00000F019FC074800F028FC064801F0B9F8A8
:1010F000002803D0BDE83840FFF797BE38BD000098
:10110000C84E0024E80300241CB510EE103A8DF8F8
:1011100000108DF801201A0C8DF80230190A8DF894
:1011200004201C0E8DF803102A23694606228DF830
:10113000054007F0BBFF1CBD2DE9F84F044601F048
:10114000E1F900903CB194F83500022806D08021E6
:1011500061650020E4E00120BDE8F88FC74DC74E6F
:10116000C649183520683036DFF81483DFF8149349
:101170008842DFF814A3DFF814B32ED0A8422CD095
:10118000B0422AD0404528D0484526D0504524D0EA
:10119000584522D0BD4A183290421ED0BC4A9042D7
:1011A0001BD0BB4A1832904217D0B94A3032904215
:1011B00013D0B74A483290420FD0B54A60329042BD
:1011C0000BD0B34A7832904207D0B14A9032904265
:1011D00003D0AF4AA832904209D1026822F01E0221
:1011E00002602068426922F08002426103E00268E6
:1011F00022F00E02026027688F4238464DD0A84286
:101200004BD0B04249D0404547D0484545D05045E5
:1012100043D0584541D09D4A183290423DD09C4A17
:1012200090423AD09A4A1832904236D0984A303298
:10123000904232D0964A483290422ED0944A603240
:1012400090422AD0924A7832904226D0904A9032E8
:10125000904222D08E4AA83290421ED08D4A9042AF
:101260001BD08C4A1432904217D08A4A28329042BE
:1012700013D0884A3C3290420FD0864A5032904276
:101280000BD0844A6432904207D0824A783290422E
:1012900003D0804A8C32974204D1206E026822F437
:1012A0008072026075492068884228D0A84226D002
:1012B000B04224D0404522D0484520D050451ED0D1
:1012C00058451CD071491831884218D0704988425D
:1012D00015D06F491831884211D06D49303188429C
:1012E0000DD06B494831884209D069496031884244
:1012F00005D067497831884201D06549903101684D
:1013000021F0010101600EE001F0FCF80099401AA3
:10131000052808D9202262650321002084F83510B1
:1013200084F8340017E73868C007EDD1534A01212B
:10133000206890422ED0A8422CD0B0422AD04045FE
:1013400028D0484526D0504524D0584522D04F4B70
:10135000183398421ED04E4B98421BD04C4B18333A
:10136000984217D04A4B3033984213D0484B4833F9
:1013700098420FD0464B603398420BD0444B7833A1
:10138000984207D0424B9033984203D0404BA83349
:10139000984208D194F85C703F23A06D07F01F07B6
:1013A000BB40836007E094F85C30A06D03F01F033E
:1013B00001FA03F34360206890424DD0A8424BD01D
:1013C000B04249D0404547D0484545D0504543D02C
:1013D000584541D02D4A183290423DD02C4A904277
:1013E0003AD02B4A1832904236D0294A30329042B5
:1013F00032D0274A483290422ED0254A603290425D
:101400002AD0234A7832904226D0214A9032904204
:1014100022D01F4AA83290421ED01E4A90421BD0B2
:101420001C4A1432904217D01A4A2832904213D0E4
:10143000184A3C3290420FD0164A503290420BD09C
:10144000144A6432904207D0124A7832904203D054
:10145000104A8C3290420BD1D4E919024260E06EFE
:1014600030B1026822F480720260D4E91C0242604A
:10147000002084F8351084F834006DE61000024036
:10148000580002407000024088000240A000024064
:1014900010040240085402582DE9F05F28B190F87A
:1014A0003510022904D0802141650120BDE8F09F5C
:1014B000904C904B0168183C18338E4ADFF83C92F0
:1014C000A1428D4CDFF838E28E4FDFF83CB2DFF8F6
:1014D0003CA28F4D8F4E31D091422FD099422DD0CA
:1014E000A1422BD0494529D0714527D0B94225D0FA
:1014F000DFF810C20CF1180C61451FD0DFF808C2EC
:10150000ACF1600C614519D0DFF8FCC1ACF1480CBE
:10151000614513D0DFF8F0C1ACF1300C61450DD05E
:10152000DFF8E4C1ACF1180C614507D0594505D08E
:10153000514503D0A94201D0B1422CD1DFF8B4C14A
:101540004FF0040880F83580ACF1180C61451DD0CF
:1015500091421BD0994219D0A14217D0494515D0CC
:10156000714513D0B94211D06648183081420DD070
:1015700065486038814209D063484838814205D0C7
:1015800061483038814201D05F481838086820F03F
:1015900001000860ABE0D1F800C02CF00E08DFF8C5
:1015A00054C1C1F80080ACF1180C0168614527D026
:1015B000914225D0994223D0A14221D049451FD044
:1015C00071451DD0B9421BD0DFF838C10CF1180CA1
:1015D000614515D0DFF830C1ACF1600C61450FD02A
:1015E000DFF824C1ACF1480C614509D0DFF818C11F
:1015F000ACF1300C614503D0DFF80CC1ACF1180C34
:10160000D1F800C02CF0010CC1F800C0DFF8E48074
:101610004FF0010C0168A8F11808414546D09142ED
:1016200044D0994242D0A14240D049453ED0714574
:101630003CD0B9423AD0334A1832914236D0324A7D
:10164000603A914232D0304A483A91422ED02E4AE6
:10165000303A91422AD02C4A183A914226D0594524
:1016600024D0514522D0A94220D0B1421ED02A4ACE
:1016700091421BD0284A1432914217D0264A283270
:10168000914213D0244A3C3291420FD0224A503228
:1016900091420BD0204A6432914207D01E4A7832E0
:1016A000914203D01C4A8C32914218D1016E0A68D3
:1016B00022F480720A6090F85C20816D02F01F02B3
:1016C0000CFA02F24A60D0E919124A60C16E31B1D7
:1016D0000A6822F480720A60D0E91C124A60002273
:1016E000016D80F835C080F8342001B188470020B2
:1016F000DCE6000028000240580002407000024072
:1017000088000240A00002407004024088040240A9
:10171000A0040240B80402400854025810B590F8E2
:101720009830012B09D0022B07D0D0F89C1041F043
:101730000201C0F89C10012010BD03689C6D0C4292
:1017400003D1DC6D44F0010404E09C6D31EA040433
:101750001FD00324DC658B0505D50368D3F8E04072
:101760001443C3F8E0404B0505D50368D3F8E440C3
:101770001443C3F8E4400068084A01EA0203446DD8
:10178000074A1C434465106840EA917010600020CD
:1017900010BDDC6D44F00204DCE70000FFFFCF3F2A
:1017A00014A8004070B5044690F89800022804D0B0
:1017B000D4F89C0040F008000DE02068D0F8C0305C
:1017C00013F07C5F0BD0D0F8C4309B020CD5D4F85A
:1017D0009C0040F40070C4F89C00012070BDD4F857
:1017E0009C0040F02000F6E7D0F8C400C0F30445A8
:1017F00020462B46FFF70CFC21680120A840C1F8C9
:10180000D000C4F89400002070BD704790F8983064
:10181000012B07D0D0F89C1041F00401C0F89C10B7
:101820000120704761B10068012913D0D0F8B010D1
:1018300021F0FE4141EA0261C0F8B010002070477B
:101840000068D0F8F01021F07C5141EA0261C0F844
:10185000F010F3E7D0F8A01021F0FE4141EA026158
:10186000C0F8A010EAE770B590F89820012A09D0D6
:10187000022A07D0D0F89C1041F00201C0F89C1059
:10188000012070BD0B68CA6883B10B69072A43EA5F
:10189000427325D00C7A4A6942EA84724968006F23
:1018A00000EBC100C0E90032002070BD072A0DD056
:1018B0000C7AD6060D8A4B6943EA847246EA0543E0
:1018C000C06E49681A4340F82120EDE70B8A4FF0BB
:1018D0006055D1E9062442EA034245EA0423EFE7D2
:1018E0008A69DBE730B590F89850039C012D07D04A
:1018F000D0F89C1041F00401C0F89C10012030BDCC
:101900000D01016845EA820040EA43002043C1F826
:101910008000002030BD90F89830012B07D0D0F81F
:101920009C1041F00401C0F89C1001207047006831
:1019300042EA012181640020704790F89810012943
:1019400007D0D0F89C1041F00401C0F89C10012091
:1019500070470068C16841F40001C1600020704711
:1019600070477047F0B590F898500024022D04D0CD
:10197000D0F89C1041F0080129E0402905D0412908
:1019800029D0056D8D4219D942E00568D5F8A060CF
:1019900016F4FE0F12D0D5F8A460760613D0D5F851
:1019A000A460F60105D5D5F8A06016F0004F00D56B
:1019B0000124D5F8A470466F456C24E0D0F89C1043
:1019C00041F0200103E0D0F89C1041F48071C0F890
:1019D0009C100120F0BD0568D5F8B06016F4FE0F2C
:1019E000ECD0D5F8B4607606EDD0D5F8B460F60149
:1019F00005D5D5F8B06016F0004F00D50124D5F814
:101A0000B470866FC56CC7F305273C44654302E09C
:101A1000456DC66F4D4306EB85052E6816F0804672
:101A200056602E6836D026F060461660D5F800C0A5
:101A300000262E4F0CF0005CC2F808C0D5F800C09C
:101A40000CF0004CC2F810C0B5F804C01FFA8CFCB2
:101A5000C2F81CC0D5F804C0CCF3034CC2F80CC0CB
:101A6000D5F804C00CF4801CC2F814C0D5F804C02A
:101A70000CF4001CC2F818C0D5F804C0CCF3066CF6
:101A8000C2F820C0D5F804C008354FEADC7CC2F8A3
:101A900024C008E0C6F38A46C7E700BF15F806C0B1
:101AA00003F806C0761CD2F80CC017F80CC0B44579
:101AB000F4D840290AD041290CD020294FF0010246
:101AC0000CD200688A40C0F898200DE00068C0F889
:101AD000A84009E00068C0F8B84005E0006801F0DF
:101AE0001F018A40C0F89C200020F0BD78AE00089D
:101AF000704700002DE9FF5FDFF80CB304460BF1DF
:101B00000401DBF8000025680F68AA468007D5F8B5
:101B10005090696DD5F850806E6D2A6DD5F854C01F
:101B20002B6D00EA8770009009F470496F6D286D85
:101B300001EA09010191DAF85410DAF85490DAF860
:101B4000505008F00F0806EA0806029602F0F0026C
:101B500003F071536FEA09061F4000F060700CEA51
:101B6000020CCDF80CC0F20501EA00090CD4E843E0
:101B7000C00509D400214FF48073CAF85030CBF867
:101B800000102046FFF7B4FF700512D4E84340056B
:101B90000FD4206800234FF48068D0F8DC20D0F800
:101BA000E410C0F85080CBF800301140204600F01F
:101BB00077FBDFF858A2009850B12268830F00EA43
:101BC0000A001065CBF8003020460099FFF71DFE93
:101BD000019850B12268830F00EA0A001065CBF823
:101BE00000302046019900F05DFB029850B1226858
:101BF000830F00EA0A001065CBF8003020460299F6
:101C000000F08AFA039850B12268830F00EA0A00B4
:101C10001065CBF800302046039900F021FB300519
:101C20000CD4E843000509D4236800204FF4006277
:101C30001A65CBF80000204600F035FBB00512D441
:101C4000E84380050FD4206800234FF40078D0F8D3
:101C5000D820D0F8E010C0F85080CBF80030114008
:101C6000204600F01EFB30030CD4E843000309D4E7
:101C7000236800204FF400221A65CBF800002046AC
:101C800000F048FAF0030CD4E843C00309D42368F9
:101C900000204FF480321A65CBF80000204600F097
:101CA000FEFA70030CD4E843400309D422680020F4
:101CB0004FF480231365CBF80000204600F0EEFAC5
:101CC000B0030FD4E84380030CD4236800204FF402
:101CD00000321A65CBF80000D4F89C0040F0800078
:101CE000C4F89C00B9F1000F0BD022684FEA997339
:101CF00009EA0A001065CBF8003049462046FFF794
:101D000030FE5FB12268BB0F07EA0A001065CBF80E
:101D10000030D4F89C003843C4F89C003C4920684B
:101D2000884268D1606881468068800763D0D9F8AE
:101D30002060D9F82410D9F82080D9F82400D9F8E7
:101D400020C0D9F82470D9F82030D9F82450D9F817
:101D5000202003F4FC4306F00F0AD9F824601D404C
:101D6000D9F824B008F030080CF4C07C02F4F0225A
:101D700011EA0A0100EA080807EA0C0706EA020667
:101D8000D9F820A004D0C9F82010204600F083FA2A
:101D9000B8F1000005D0616808624146204600F0B5
:101DA0007CFA6FEA0B0040060ED46FEA0A00400688
:101DB0000AD460684021C36BC26B01622046190CD3
:101DC00002F03F0200F068FA2FB1606807623946FE
:101DD000204600F05FFA35B160680562D4F89C00D7
:101DE0002843C4F89C0036B160680662D4F89C00B1
:101DF0003043C4F89C00D4F89C00002802D0204650
:101E0000FFF7AEFDBDE8FF9F10A80040FFFFCF3FEA
:101E100000A000402DE9F04194B08D494C220446C9
:101E20006846FEF7E8FA64B18A4D2068A84202D1FC
:101E300000F58070606094F898004FF0000820B1C1
:101E400008E0012014B0BDE8F081204684F89980B4
:101E500000F002F92068816921F01001816100F031
:101E600051FB0327064604E000F04CFB801B0A28C8
:101E700011D8206880690007F6D42068816941F094
:101E80000101816100F03EFB06460DE000F03AFBE7
:101E9000801B0A2808D9D4F89C0040F00100C4F83F
:101EA0009C0084F89870CCE720688069C007EDD06A
:101EB0002068816941F002018161207C012820684D
:101EC000816937D041F040018161607C0128206840
:101ED000816932D021F480418161A07C0128206891
:101EE00081692DD041F4805181612068A2688169A7
:101EF00021F44071114381612068816921F0A401BE
:101F000081612068016921F010010161E068012808
:101F100019D010B302281BD02068816941F08001DC
:101F200081612068016941F010010161E0680328C6
:101F30000ED012E021F04001C6E741F48041CBE72A
:101F400021F48051D0E72068816941F0040103E069
:101F50002068816941F020018161207E6FF0FF02DD
:101F6000D4E90773A68A1102400602EB0727A0F105
:101F70000070384327685B1E184301EB0646304368
:101F8000F861A068B0F5407F11D104F12800A68C5B
:101F90006FF00F0C89C801EB0641401E02EB0322D3
:101FA000104322680CEB071318430843D060206EDF
:101FB00030B12068626ED0F8C0101143C0F8C01074
:101FC000D4E917126846D14209D02168A36E51F8AE
:101FD000C82F50F8233022F007021A430A60216C00
:101FE00049B12168626C51F8BC3F50F8226023F07F
:101FF000070232430A60A16C51B12168E36C51F8C9
:10200000BC2F50F8233022F0700242EA03120A601B
:10201000216D51B12168626D51F8BC3F50F822002A
:1020200023F4E06242EA002008602068A84204D15C
:102030006068816821F003018160C4F89480012107
:10204000C4F89C8084F898102046FEF7FDFEF9E65F
:1020500088AE000800A0004070B5B6B00446142158
:1020600030A8FEF7E1F9C0216846FEF7DDF9264900
:102070002068884246D1002102250C4619224FF4DF
:1020800000408DE80700A023CDE9033580031C90B4
:1020900020266846CDE90651CDE90861059500F096
:1020A000CFFC08B1FEF7C1FE1848016841F4807109
:1020B0000160006800F48070359014480C380168A5
:1020C00041F00801016000680921329400F0080025
:1020D00035900320CDE93005CDE933510C4830A9C6
:1020E00000F0E2F800220121132000F0F7FA13209B
:1020F00000F0E6FA00220121152000F0EFFA152089
:1021000000F0DEFA36B070BD00A00040EC4402588A
:10211000000C025870470000F8B5C8076FD04D4A50
:1021200069464D4806F090FF4C491D220870494908
:10213000A1F12000FEF75FF9BDF80020454C02F048
:102140007F034449C2F3C710403400EBC002A3F13F
:10215000230004EB8204162804F8043C78D2DFE85C
:1021600000F027772777772777277777777777773D
:102170001A0B0D1012141618203C00E01C3C2546CA
:102180005FE0183CFBE7143CF9E7103CF7E70C3C38
:10219000F5E7083CF3E7487804F8240C087804F8DD
:1021A000230CC87804F8220C887804F8210C48E045
:1021B00001200E78002284460CFA02F737423DD007
:1021C000072A3BD2DFE802F02A221C150F0904007F
:1021D0000844006844F80C0C33E00A18176806221B
:1021E00044F8107C17E00A181768052244F8147C9C
:1021F00011E00A181768042244F8187C0BE027E065
:102200000A181768032244F81C7C04E00A181768AF
:10221000022244F8207C001DC0B2CDE78F78012255
:1022200004F8247C001D4F78C0B204F8237C0F7999
:1022300004F8227CCF7804F8217CBDE7521C062AE2
:10224000BADD323B062B03D802482038006A2860EA
:10225000F8BD0000A84E0024E80300249C000024E0
:10226000704790F89810012907D0D0F89C1041F0E1
:102270000401C0F89C1001207047022180F89810DA
:10228000002201688B6923F001038B61C0F89C2058
:1022900010467047704770477047704770477047E7
:1022A00070477047704770472DE9F84F03247D4D04
:1022B00000234FF001094FF0B04B4FF00F0AE9E057
:1022C00009FA03F73A4076D00E7906F00306012E9C
:1022D00001D0022E18D1D0F808C04FEA430ECE68C4
:1022E00004FA0EF82CEA080C06FA0EF646EA0C067A
:1022F0008660D0F804C00E792CEA070CC6F30016ED
:102300009E4046EA0C0646600E79F643B6070BD0AF
:10231000C6684FEA43088F6804FA08FC26EA0C06F0
:1023200007FA08F73743C7600E7906F00306022E56
:1023300012D1DE080F694FEA437C00EB8606B646F1
:10234000366A4FEADC6C0AFA0CF807FA0CF726EA50
:1023500008063743CEF820700F7906684FEA430825
:1023600007F0030704FA08FC07FA08F726EA0C0648
:10237000374307604E6816F4403F1CD04A4E37681A
:1023800047F00207376036689F0706F0020600969E
:1023900023F0030606F1B046B6463F0FD6F80864B0
:1023A000DFF808810AFA07FC404526EA0C0603D14B
:1023B0004FF0000C41E06CE0DFF8F4C0604502D162
:1023C0004FF0010C39E0DFF8ECC0604502D14FF06E
:1023D000020C32E0DFF8E0C0604502D14FF0030CA0
:1023E0002BE0DFF8D8C0604502D14FF0040C24E0A8
:1023F000DFF8CCC0604502D14FF0050C1DE0DFF8DE
:10240000C4C0604502D14FF0060C16E0DFF8B8C03A
:10241000604502D14FF0070C0FE0DFF8B0C0604517
:1024200002D14FF0080C08E0DFF8A4C0604502D1EB
:102430004FF0090C01E04FF00A0C0CFA07FC4CEAD3
:10244000060CCEF808C44F68DBF80060FF0226EAED
:10245000020600D516435F46CBF80060D1F804C0F1
:10246000DBF804605FEA8C2C26EA020600D51643EE
:102470007E606E684F6826EA0206BF0300D51643E9
:102480006E602E684F6826EA0206FF0300D51643E9
:102490002E605B1C0A6832FA03F67FF411AFBDE8C8
:1024A000F88F000080000058F444025800000258E1
:1024B0000004025800080258000C0258001002588C
:1024C0000014025800180258001C0258002002583C
:1024D000002402580069084000D00120704742697A
:1024E00021EA02030A4043EA0241816170470AB1CE
:1024F000816170470904FBE701480068000C7047E0
:102500000010005C0148806870470000080000244B
:1025100002488168027811448160704708000024F5
:10252000032010B500F0FAF801F002F90F4A104943
:1025300014681368C4F3032203F00F038A5CC95CB8
:1025400002F01F0201F01F01D0400A4A20FA01F1F7
:10255000116009490860002000F010F808B101205E
:1025600010BD00F09BF8002010BD00001844025878
:10257000FCAE0008180000241400002410B5102838
:1025800004468AB02AD200220146192000F0A6F89B
:10259000192000F095F8154804601548016841F0CD
:1025A00001010160006808A900F001000990684677
:1025B00001F04AF801F0AAF80E49400000220E4C42
:1025C000B0FBF1F10D4840F2E7330460C0E903329B
:1025D000491EC0E9011201F05DFC10B101200AB0F2
:1025E00010BD064801F09AFCF9E700000C00002439
:1025F000F044025840420F000000014068050024EA
:10260000154BF0B5083B427813491A600B680A1F56
:1026100023F001030B6043681360057BC67A827A5E
:10262000437B2D07847B45EA0665C77B90F809C08C
:10263000067A90F800E045EAC24040EA834040EA6A
:10264000444040EA074040EA0C2040EA460040EAA5
:102650000E000860F0BD0000A0ED00E0BFF35F8F4A
:10266000044800210368034A23F480330360703276
:102670001160704724ED00E0074A40F00100064970
:1026800070321060086840F480300860BFF34F8FEC
:10269000BFF36F8F7047000024ED00E0074882B061
:1026A000016841F002010160006800220F2100F082
:1026B00002000090901E02B000F010B8F4440258DE
:1026C000002809DB410900F01F028900012001F107
:1026D000E0219040C1F80001704700000E4BF0B4BB
:1026E0001B680D46C3F30223C3F10706042E00D96D
:1026F0000426191D072901D2002300E0DB1E012456
:1027000004FA06F19C40491E2940641E9940144079
:102710002143F0BC04F071B90CED00E0064900F073
:10272000070210B54FF6FF040868044B204040EA4A
:1027300002201843086010BD0CED00E00000FA050F
:10274000134970B50A68D243520705D5096801F0EC
:102750000701814213D118E00A6822F00702024300
:102760000A60FFF7CFFE0A4D4FF47A760446083D23
:1027700007E000BFFFF7C6FE001BB04201D90120F1
:1027800070BD2868C0438004F4D4002070BD0000F0
:102790000C48025810B500F085FF05490968054A44
:1027A000C1F30211515C01F01F01C84010BD0000CF
:1027B00020440258FCAE0008494930B5484C0B1D76
:1027C0000A68143409681D68246802F00303C5F31D
:1027D0000012C1F30531C4F3CC04002914FB02F24A
:1027E00000EE102AF8EE400A75D03F4A9FED3D1AE0
:1027F000B7EE000A6BB1DFED3D1A012B01D0022BC1
:1028000064D002EE101A1168F8EE422A81EEA22A74
:1028100021E0334C283C23689B0612D5344B2468B6
:1028200001EE901A1168C4F3C104F8EE612AE34086
:1028300001EE903AC1F30801F8EE611A81EEA22A86
:102840000BE001EE901ADFED2B2A00BFF8EE611AC3
:10285000116882EEA12AC1F3080101EE901A1168F5
:10286000F8EE611A40EE811A71EE800A62EE200ADB
:10287000C1F3462101EE101AB8EE411A31EE001AEA
:10288000C0EE811ABCEEE11A80ED001A1168C1F3A6
:10289000064101EE101AB8EE411A31EE001AC0EEF0
:1028A000811ABCEEE11A80ED011A1168C1F30661CC
:1028B00001EE101AB8EE411A31EE000A80EE801ACD
:1028C000BCEEC10A80ED020A30BD04E001EE901AB0
:1028D000DFED092ABAE70021016041608160F3E77A
:1028E0002844025800000039384402580024744A31
:1028F0000090D0030024744C20BCBE4B494930B535
:10290000484C0B1D0A681C3409681D68246802F0D5
:102910000303C5F30022C1F30551C4F3CC0400291D
:1029200014FB02F200EE102AF8EE400A75D03F4A7E
:102930009FED3D1AB7EE000A6BB1DFED3D1A012B9A
:1029400001D0022B64D002EE101A1168F8EE422A70
:1029500081EEA22A21E0334C283C23689B0612D545
:10296000344B246801EE901A1168C4F3C104F8EEE8
:10297000612AE34001EE903AC1F30801F8EE611AD2
:1029800081EEA22A0BE001EE901ADFED2B2A00BFA8
:10299000F8EE611A116882EEA12AC1F3080101EE76
:1029A000901A1168F8EE611A40EE811A71EE800AF1
:1029B00062EE200AC1F3462101EE101AB8EE411A68
:1029C00031EE001AC0EE811ABCEEE11A80ED001A59
:1029D0001168C1F3064101EE101AB8EE411A31EE4A
:1029E000001AC0EE811ABCEEE11A80ED011A1168DE
:1029F000C1F3066101EE101AB8EE411A31EE000A79
:102A000080EE801ABCEEC10A80ED020A30BD04E0FF
:102A100001EE901ADFED092ABAE70021016041605A
:102A20008160F3E72844025800000039404402580E
:102A30000024744A0090D0030024744C20BCBE4B88
:102A40002DE9FE4F0546DFF8E48350F8081B00240B
:102A5000F64FC943019005F12800264608F12408E5
:102A6000009008011DD4A86E50B1B0F5801F0CD0A5
:102A7000B0F5001F0ED0B0F5401F1ED001240FE0AE
:102A8000386840F40030386017E00198022102F005
:102A900079FD03E00098022102F004FE04000CD04E
:102AA00026462888C043C00523D4A86D05281ED219
:102AB000DFE800F00C11161B1B00AA6ED8F80010FE
:102AC00021F440111143C8F80010EAE7386840F4D7
:102AD0000030386009E00198002102F053FD03E066
:102AE0000098002102F0DEFD044674B100E00124EC
:102AF00026462888C043800528D4E86D80281ED04B
:102B00000CDC90B140280ED114E0AA6DD8F800106A
:102B100021F007011143C8F80010EAE7C02813D0DC
:102B2000B0F5807F10D001240FE0386840F4003009
:102B3000386009E00198002102F024FD03E00098CC
:102B4000002102F0AFFD04469CB126462888DFF83C
:102B5000DC92C04309F12C0940052CD4D5F8A8001B
:102B6000B0F5800F20D00DDCA0B1B0F5001F0FD163
:102B700015E0EA6DD8F8001021F4E0711143C8F8AF
:102B80000010E3E7B0F5C00F13D0B0F5000F10D080
:102B900001240FE0386840F40030386009E0019803
:102BA000002102F0EFFC03E00098002102F07AFD22
:102BB00004467CB126462888C04300052DD4D5F8AC
:102BC000AC00B0F1007F21D00EDCA8B1B0F1807F65
:102BD00010D116E0D5F8A820D9F8001021F4600132
:102BE0001143C9F80010E6E7B0F1407F13D0B0F10F
:102BF000806F10D001240FE0386840F40030386056
:102C000009E00198002102F0BDFC03E000980021DA
:102C100002F048FD044674B126462868C04380018E
:102C20001FD4E86CD8B110280FD0202812D030283B
:102C300015D0012414E0D5F8AC20D9F8001021F00B
:102C4000E0611143C9F80010E7E7386840F400304C
:102C5000386004E00198022102F094FC044674B14B
:102C600026462888C043C0042BD4286EB0F5005FE8
:102C700020D00DDCA0B1B0F5805F0FD115E06B481E
:102C8000EA6C2030016821F0300111430160E8E76F
:102C9000B0F5405F13D0B0F5804F10D001240FE0A5
:102CA000386840F40030386009E00198002102F0F3
:102CB00069FC03E00098002102F0F4FC04468CB1AA
:102CC00026462888C043800429D4686EB0F5403F6A
:102CD00023D010DC08B3B0F5803F14D0B0F5003F2E
:102CE0000FD115E02A6ED8F8001021F4E04111430D
:102CF000C8F80010E5E7B0F5802F0ED0B0F5A02F92
:102D00000BD001240AE00198012102F03BFC03E012
:102D10000098012102F0C6FC044694B1264628889A
:102D2000C04340042AD4D5F8B000B0F1405F23D0AE
:102D300010DC08B3B0F1805F14D0B0F1005F0FD1A8
:102D400015E06A6ED8F8001021F4E0211143C8F8AC
:102D50000010E4E7B0F1804F0ED0B0F1A04F0BD0DF
:102D600001240AE00198012102F00CFC03E0009824
:102D7000012102F097FC044674B126462888C0431E
:102D800000041FD4286FD8B1B0F1805F0ED0B0F12D
:102D9000005F10D0012414E0D5F8B020D9F800105D
:102DA00021F0E0411143C9F80010E7E7386840F42A
:102DB0000030386004E00198012102F0E3FB044692
:102DC00074B126462868C043C0011ED4A86CD0B197
:102DD00001280ED0022811D0032814D0012413E0BA
:102DE0002A6FD8F8001021F040511143C8F80010A4
:102DF000E8E7386840F40030386004E001980221C8
:102E000002F0C0FB0446ACB126462868DFF81CB0CF
:102E1000C043ABF11C0B400252D40548016841F499
:102E200080710160FFF76EFB824611E02C4402586E
:102E300000480258FA48AA6C016821F003011143C6
:102E40000160E2E7FFF75EFBA0EB0A00642835D8DB
:102E5000F4480068C005F5D58CBBDFF8C4A3B5F80D
:102E6000B4100AF1240ADAF8000001F4407100F409
:102E70004070884211D0DAF80010DAF8002021F40E
:102E8000407142F48032CAF80020DAF8002022F4BF
:102E90008032CAF80020CAF80010D5F8B400B0F5A6
:102EA000807F1AD1FFF72EFB029012E0FFF72AFB7A
:102EB0000299411A41F2883081420AD903242646F8
:102EC0002878DFF85CA3C0430AF1080AC00721D0C4
:102ED0003CE0DAF800008007E8D5D5F8B410C1F37B
:102EE0000120032858460DD0016821F47C5101606F
:102EF000B5F8B420DAF80010C2F30B021143CAF897
:102F00000010DDE7C84A036802EA111223F47C517D
:102F10001143ECE7E86F182816D005DCA0B10828AB
:102F200008D0102804D10AE020280DD028280BD082
:102F300001240AE00198012102F024FB03E000983B
:102F4000012102F0AFFB044664B126462878C04355
:102F500080071ED4A86F062819D2DFE800F0160CEF
:102F600011161616EA6FDAF8001021F03801114335
:102F7000CAF80010EAE70198012102F003FB03E020
:102F80000098012102F08EFB04467CB100E0012490
:102F900026462878C04340071FD4D5F89400062859
:102FA00019D2DFE800F0160C11161616AA6FDAF81F
:102FB000001021F007011143CAF80010E9E7019859
:102FC000012102F0DFFA03E00098012102F06AFB20
:102FD0000446A4B100E0012426462878C0438006B8
:102FE0002BD4D5F89000B0F1405F24D011DC10B3A1
:102FF000B0F1805F15D0B0F1005F10D116E0D5F8C8
:103000009420D9F8001021F007011143C9F80010ED
:10301000E3E7B0F1804F0ED0B0F1A04F0BD0012408
:103020000AE00198002102F0ADFA03E000980221C5
:1030300002F038FB044694B126462878C043400687
:103040002BD4D5F89C00B0F5406F24D011DC10B320
:10305000B0F5806F15D0B0F5006F10D116E0D5F83F
:103060009020DAF8001021F0E0411143CAF8001076
:10307000E3E7B0F5805F0ED0B0F5A05F0BD0012480
:103080000AE00198002102F07DFA03E00098022195
:1030900002F008FB044694B126462878C043000697
:1030A0002BD4D5F8A000B0F5C04F24D011DC10B35C
:1030B000B0F5005F15D0B0F5804F10D116E0D5F80F
:1030C0009C20D9F8001021F4E0511143C9F80010F8
:1030D000E3E7B0F5004F0ED0B0F5204F0BD0012440
:1030E0000AE00198002102F04DFA03E00098022165
:1030F00002F0D8FA044654B126462878C0430007A7
:103100001ED4D5F88400B0F5805F0AD00FE0D5F862
:10311000A020D9F8001021F460411143C9F8001033
:10312000EBE70098022102F0BDFA00B10126D5F8C4
:103130008420DAF8001021F440511143CAF800103D
:103140002878C043C00613D4D5F89800B0F5807F26
:1031500005D10098022102F0A5FA00B10126D5F8A8
:103160009820D9F8001021F440711143C9F80010DB
:103170002868C043000316D4D5F8A40038B1B0F5D0
:10318000803F09D0B0F5003F0BD001240AE0019840
:10319000002102F0F7F903E00098022102F082FA20
:1031A00004468CB126462868C043400322D4D5F893
:1031B0008800B0F5801F11D0B0F5001F13D0B0F516
:1031C000401F15D0012414E0D5F8A420D9F8001030
:1031D00021F440311143C9F80010E4E7386840F4A5
:1031E0000030386004E00098012102F05BFA0446E8
:1031F0005CB126462868C043C00323D4286DA8B11B
:10320000B0F5803F17D001241BE0D5F88820DAF80C
:10321000001021F440111143CAF80010EAE7000041
:103220004C44025800480258CFFFFF00386840F471
:103230000030386004E00198022102F0A3F904464E
:10324000E4B126462868C043800005D400980221D6
:1032500002F028FA00B101262868C04380031BD47D
:10326000D5F88000B0B1B0F5807F0FD0B0F5007F09
:1032700010D0B0F5407F0DD001240CE05A482A6DE3
:10328000016821F4803111430160DBE7386840F4C4
:1032900000303860ECB326462868C043C00207D42B
:1032A0006A6FD8F8001021F000411143C8F80010EF
:1032B0002868C043C00008D4D5F8B820DBF8001057
:1032C00021F480411143CBF800102868C0438002EC
:1032D00007D4EA6ED8F8001021F080711143C8F8C5
:1032E00000102868C04340000CD4DBF8001021F423
:1032F0000041CBF80010DBF80010D5F8BC201143DA
:10330000CBF800102868C04308D437486A6D0168BC
:1033100000E018E021F04051114301602868C043EB
:10332000000208D4D5F88C20DAF8001021F440010E
:103330001143CAF8001028790024C04300F00100AE
:1033400020430AD00FE0D5F88020DAF8001021F4ED
:1033500040711143CAF800109EE70198002102F065
:1033600011F900B106462879C04300F0020020435D
:1033700005D10198012102F005F900B1064628792E
:10338000C04300F00400204305D10198022102F05F
:10339000F9F800B106462879C04300F00800204340
:1033A00005D10098002102F07DF900B10646287988
:1033B000C04300F01000204305D10098012102F025
:1033C00071F900B106462879C04300F0200004439B
:1033D00004D10098022102F065F900B916B101206C
:1033E000BDE8FE8F0020FBE74C4402582DE9F05F5A
:1033F00004000F467ED0DFF83882D8F8000000F0D5
:103400000F00B8420CD2D8F8001021F00F01394358
:10341000C8F80010D8F8000000F00F00B84269D1D9
:103420002078844D40070AD52069296801F0700191
:10343000884204D9296821F070010143296020786D
:103440007C4E361D00070AD56069316801F07001B5
:10345000884204D9316821F070010143316020783D
:10346000C0060AD5A069316801F4E061884204D938
:10347000316821F4E061014331602078DFF8B4B1B4
:1034800080060BF1080B0CD5E1695846DBF80020EB
:1034900002F07002914204D9026822F070020A43DD
:1034A0000260207880070AD5E068296801F00F01E2
:1034B000884204D9296821F00F010143296020784E
:1034C000C0073ED05B49A2682868183920F47060B4
:1034D000104328606068022818D0032819D00968B2
:1034E000012819D0490700294ADADFF848A1AAF1D2
:1034F000080A00E044E0DAF8002022F00702024364
:10350000CAF80020FEF7FEFF814612E00968890331
:10351000E9E709688901E6E7C905E4E7FEF7F2FF94
:10352000A0EB090141F28830814202D90320BDE8B5
:10353000F09F6168DAF8000000F03800B0EBC10FCE
:10354000ECD1207880070AD5E068296801F00F01E6
:10355000884204D2296821F00F0101432960D8F87C
:103560000010404601F00F01B9420BD9016821F06B
:103570000F0139430160006800F00F00B84201D02C
:103580000120D4E7207840070AD52069296801F096
:103590007001884204D2296821F07001014329603A
:1035A000207800070AD56069316801F0700188420F
:1035B00004D2316821F07001014331602078C006E7
:1035C0000AD5A069316801F4E061884204D231680B
:1035D00021F4E06101433160207880060CD5E16977
:1035E0005846DBF8002002F07002914204D20268D3
:1035F00022F070020A43026000F09AF80E492A682D
:103600002B68C2F3032203F00F038A5CC95C02F04B
:103610001F0201F01F01D040084A20FA01F1116099
:103620000749086007480068BDE8F05FFEF7A6BFDD
:103630000020005218440258FCAE00081800002474
:10364000140000240C00002470B5144C3F220260CA
:10365000124A24680832131D114D04F00704446017
:1036600016681C1D06F470668660166806F00F0664
:10367000C660126802F0700202611A6802F07002FD
:1036800042611A6802F4E0628261226802F070020C
:10369000C261286800F00F00086070BD1044025835
:1036A0000020005230B500F043F80B4A0B490C4B98
:1036B00015681468C5F3032204F00F048A5C095DE1
:1036C00002F01F0201F01F01D040064A20FA01F16A
:1036D00019601060084630BD18440258FCAE00085E
:1036E000180000241400002400B5FFF7DBFF054993
:1036F0000968054AC1F30211515C01F01F01C8407D
:1037000000BD00001C440258FCAE000800B5FFF7E5
:10371000C9FF05490968054AC1F30221515C01F05E
:103720001F01C84000BD00001C440258FCAE000848
:10373000454970B545480968434B103B11F03802C4
:1037400008D00111082A03D0102A0BD0182A0BD058
:10375000084670BD19688906FBD51968C1F3C10117
:10376000C84070BD3A4870BD3749374D18310C1DFF
:1037700024350A68096826682D6802F0030406F0FB
:103780000102C1F30511C5F3CC0515FB02F200EEF1
:10379000102AB8EE400AE9B32F4ADFED2E0AB7EE41
:1037A000001A6CB1DFED2D1A012C01D0022C43D090
:1037B00002EE101A1068F8EE422A81EEA22A1EE0EC
:1037C0001C68A40611D51B6801EE901A1168C3F39A
:1037D000C103F8EE612AD84001EE900AC1F3080057
:1037E000F8EE611A81EEA22A0BE001EE901ADFEDED
:1037F0001C2A00BFF8EE611A106882EEA12AC0F3FD
:10380000080001EE900AF8EE611A40EE201A31EE3F
:10381000810A00E015E022EE000A1068C0F346209D
:10382000401C00EE900AF8EE600A80EE201ABCEE12
:10383000C10A10EE100A70BD01EE901ADFED092AE0
:10384000D8E7002070BD0000104402580090D0035B
:1038500040787D0100000039304402580024744A49
:103860000024744C20BCBE4B2DE9F05F04007DD0D9
:10387000FF4F2078FE4D1837DFF8F493103DC00756
:1038800048D0D9F80000396800F03800102815D069
:10389000182803D101F0030002280FD06068B0F5AA
:1038A000803F12D010B1B0F5A02F18D0286820F4B6
:1038B00080302860286820F4802009E02868800390
:1038C00028D560680028D2D024E0286840F48030F1
:1038D0002860606888B1FEF715FE064609E0286892
:1038E00040F480202860F0E7FEF70CFE801B64287F
:1038F0006FD828688003F7D50CE0FEF703FE064674
:1039000005E000BFFEF7FEFD801B6428F0D82868A4
:103910008003F7D4207841F20308D54E0C3E80078F
:1039200069D5D9F80000396810F038000ED0182891
:1039300001D188070AD0E06890B3296821F0190105
:1039400001432960FEF7DEFD824631E0286840072A
:1039500002D5E06800288AD0E168286820F01900C4
:1039600008432860FEF7CEFD824607E0DFE000BF97
:10397000FEF7C8FDA0EB0A000228B9D82868400766
:10398000F6D500BFFEF7B8FD40451BD8206940289A
:1039900012D0316821F47C3141EA003030602AE0F5
:1039A00018E000BFFEF7AEFDA0EB0A0002289FD88A
:1039B00028684007F6D5E5E7306820F47C3040F40D
:1039C0000030EBE7207C316821F0FE4141EA0060E5
:1039D000E4E70DE1286820F001002860FEF792FD81
:1039E000824605E0FEF78EFDA0EB0A0002288DD886
:1039F00028684007F6D42078C0065DD5D9F80000C5
:103A0000DFF86CB2396800F03800ABF1040B08281D
:103A100010D0182803D101F0030001280AD0E06972
:103A20000028286838D040F080002860FEF76AFD42
:103A3000824623E02868C00523D5E069802876D136
:103A40001FE0206A202821D0316821F0F84141EAA6
:103A50008060306030E000BF94F82010DBF8002078
:103A600022F07C5242EA0161CBF8001024E000BF52
:103A7000FEF748FDA0EB0A00022898D82868C00588
:103A8000F6D5FEF739FD4045E6D8DAE7306820F094
:103A9000F84040F08040DCE720F080002860FEF72E
:103AA00031FD064605E000BFFEF72CFD801B022815
:103AB0009DD82868C005F7D42078000729D56C4820
:103AC0006169643000298046016811D041F001012C
:103AD0000160FEF717FD064605E000BFFEF712FD88
:103AE000801B0228C9D8D8F800008007F6D510E05E
:103AF00021F001010160FEF705FD064605E000BF6B
:103B0000FEF700FD801B022872D8D8F8000080075D
:103B1000F6D42078800623D5A0690028286810D024
:103B200040F480502860FEF7EDFC064605E036E1E3
:103B3000FEF7E8FC801B02285AD828688004F7D5D5
:103B40000EE020F480502860FEF7DCFC064604E01E
:103B5000FEF7D8FC801B02284AD828688004F7D4D6
:103B6000207840074FD5DFF80C81D8F8001041F4D9
:103B70008071C8F80010FEF7C5FC064605E000BFDE
:103B8000FEF7C0FC801B642832D8D8F80000C005BE
:103B9000F6D5374EA068603601280AD008B105284E
:103BA00013D0306820F001003060306820F004004D
:103BB00002E0306840F001003060A06841F2883ACD
:103BC00090B1FEF79FFC80460AE0306840F00400A8
:103BD0003060EEE7FEF796FCA0EB0801514507D8F0
:103BE00030688007F6D50EE0FEF78CFC804607E0D3
:103BF00084E000BFFEF786FCA0EB080151457DD8AC
:103C000030688007F6D4606AB0B3DFF86480D9F812
:103C1000001008F120084FF6F87B08F10409C1F301
:103C2000C2010329A8F1040A69D00228286820F0FB
:103C30008070286003D0FEF765FC044684E0FEF740
:103C400061FC064605E000BFFEF75CFC801B022815
:103C500077D828688001F7D4E26A40F2F3313868F7
:103C600054F8283F884340EA02101843386004E0C3
:103C70001044025800480258B5E0217B434622898F
:103C80004FF4FE0C208A4FF0FE474902267D521E5B
:103C9000401EA1F50071C2F308088AB2761E0CEA34
:103CA000004042EA08020243504607EA06610A431E
:103CB0001A60DAF8002022F00102CAF80020D9F8D0
:103CC0000020266A22EA0B0242EAC602C9F8002056
:103CD000DAF80010A26921F00C011143CAF80010B3
:103CE0000168E26921F0020111430160016841F4B9
:103CF00080310160016841F4003101E021E027E0FA
:103D00000160016841F480210160016841F0010116
:103D10000160286840F080702860FEF7F3FB0446DD
:103D200005E000BFFEF7EEFB001B022809D828685B
:103D30008001F7D557E000BFFEF7E4FB001B022827
:103D400002D90320BDE8F09F28688001F4D44AE03E
:103D500039680128D8F8000021D0A26A01F00303D5
:103D600093421CD1E26AC1F305118A4217D1216B3B
:103D7000C0F30802491E8A4211D1616BC0F346228A
:103D8000491E91420BD1A16BC0F30642491E9142DC
:103D900005D1E16BC0F30660491E814201D00120CC
:103DA000D0E7A16C4E46D9F80000C0F3CC008142A8
:103DB00019D0DAF80000554620F00100CAF80000DA
:103DC000FEF7A0FB4FEA0007FEF79CFBB842FBD0D2
:103DD000A26C306820EA0B0040EAC200306028681C
:103DE00040F0010028600020ACE770477047704742
:103DF000F0B590F83C20012A3BD01F4E012480F8FA
:103E00003C40022280F83D2002681C4D5368B242BB
:103E1000D2F808C001D0AA4203D14F6823F470033E
:103E20003B430F6823F070031F4357600268B242A0
:103E300013D0B2F1804F10D0114B9A420DD0114BDC
:103E40009A420AD0104B9A4207D0AA4205D00F4B93
:103E50009A4202D00E4B9A4204D189682CF080031A
:103E600019439160002180F83D4080F83C100846DD
:103E7000F0BD0220F0BD0000000001400004014040
:103E80000004004000080040000C00400018004002
:103E90000040014010B5040003D094F83D0010B17B
:103EA00007E0012010BD002084F83C00204600F00F
:103EB00023F8022084F83D002068211D01F068FEEF
:103EC000012084F8480084F83E0084F83F0084F81C
:103ED000400084F8410084F8420084F8430084F8EC
:103EE000440084F8450084F8460084F8470084F8CC
:103EF0003D00002010BD000008B50068B0F1804F03
:103F000008D10548016841F001010160006800F036
:103F10000100009008BD0000E844025890F83D10F0
:103F2000012901D001207047174A022180F83D1075
:103F30000168CB6843F00103CB600068904214D065
:103F4000B0F1804F11D0114988420ED010498842FB
:103F50000BD01049884208D00F49884205D00F493C
:103F6000884202D00E49884207D181680D4A11402B
:103F7000062906D0B1F5803F03D0016841F0010168
:103F80000160002070470000000001400004004074
:103F900000080040000C00400004014000180040F0
:103FA000004001400700010070B5044690F83C0055
:103FB0000025012814D03A4B012684F83C600220E9
:103FC00084F83D0022689068184020F47F4090609B
:103FD000086870282FD010DC10F00F0F03D022E0FB
:103FE0004FF0020070BD4FEA2012072A1BD2DFE813
:103FF00002F0535353534B394100B0F1101F4BD0D3
:1040000009DCB0F5805F0FD0B0F5005F1ED0B0F5D1
:10401000801F08D140E0A0F5801120393CD0102944
:104020003AD0202938D0012584F83D60002084F85A
:104030003C00284670BD4A682068D1E9021301F0AF
:104040001CFE2068816841F0770109E04A68206819
:10405000D1E9021301F011FE2068816841F480412A
:104060008160E1E7CA684968206801F0B3FF206811
:10407000502106E0CA684968206801F0BCFF20684A
:10408000602101F003FECFE7CA684968206801F0AB
:10409000A1FF20684021F4E7226801461046F0E7BE
:1040A00088FFCEFF70472DE9F041044600680027E5
:1040B000C6680569A90713D5B10711D5FA1E0261B3
:1040C00001212177206880698007204602D0FFF710
:1040D000E9FF04E000F0B2F8204600F074F9277719
:1040E000680716D5700714D5226802206FF0040106
:1040F000116120772068806910F4407F204602D04B
:10410000FFF7D0FF04E000F099F8204600F05BF9DB
:104110002777280715D5300713D5226804206FF0BC
:104120000801116120772068C0698007204602D00D
:10413000FFF7B8FF04E000F081F8204600F043F9F3
:104140002777E80616D5F00614D5226808206FF008
:104150001001116120772068C06910F4407F20466B
:1041600002D0FFF79FFF04E000F068F8204600F05F
:104170002AF92777E80708D0F00706D021686FF002
:1041800001000861204600F0A7F9280601D4A80420
:1041900008D5300606D521686FF402500861204624
:1041A000FFF724FEE80508D5300606D521686FF430
:1041B000807008612046FFF718FE680608D5700673
:1041C00006D521686FF040000861204600F08EF9A6
:1041D000A8060AD5B00608D521686FF0200008614E
:1041E0002046BDE8F041FFF702BEBDE8F0810000C7
:1041F00010B586B0044614216846FCF715F920680E
:10420000B0F1804F13D10B48016841F0010101600A
:1042100000680221002200F001000590082003231D
:1042200001248DE81F0004486946FEF73DF806B0FA
:1042300010BD0000E044025800000258704770B5FD
:10424000044690F83C0000260D4601280BD00120C2
:1042500084F83C000C2A4AD007DC82B1042A20D022
:10426000082A06D131E0022070BD102A53D0142A4A
:1042700063D00126002084F83C00304670BD2068E1
:1042800001F00EFD2068816941F00801816120681C
:10429000816921F00401816120682A6981691143E3
:1042A00011E0206801F04EFD2068816941F4006151
:1042B00081612068816921F48061816120682969B8
:1042C000826942EA01218161D4E7206801F086FD1C
:1042D0002068C16941F00801C1612068C16921F00D
:1042E0000401C16120682A69C169114311E0206895
:1042F00001F0C0FD2068C16941F40061C16120681E
:10430000C16921F48061C16120682969C26942EAFA
:104310000121C161AEE7206801F0E8FD2068416D30
:1043200041F0080141652068416D21F004014165BB
:1043300020682A69416D114311E0206801F010FEE8
:104340002068416D41F4006141652068416D21F4B0
:104350008061416520682969426D42EA0121416519
:1043600088E710B5040003D094F83D0010B107E0D1
:10437000012010BD002084F83C00204600F022F807
:10438000022084F83D002068211D01F001FC01207D
:1043900084F8480084F83E0084F83F0084F8400028
:1043A00084F8410084F8420084F8430084F8440013
:1043B00084F8450084F8460084F8470084F83D00FE
:1043C000002010BD7047704730B504464FF0020220
:1043D00069B1042912D0082917D00C291CD0102942
:1043E00021D094F84300012824D0012030BD94F856
:1043F0003E000128F9D184F83E201DE094F83F00EA
:104400000128F2D184F83F2016E094F840000128FA
:10441000EBD184F840200FE094F841000128E4D16A
:1044200084F8412008E094F842000128DDD184F8A6
:10443000422001E084F843200122206801F010FCB2
:104440001B4B20681B491C4A984209D0884207D060
:10445000904205D0194DA84202D0194DA84203D16F
:10446000456C45F4004545642068984212D0B0F18F
:10447000804F0FD0134B98420CD0134B984209D069
:10448000124B984206D0884204D01149884201D08C
:10449000904207D181680F4A1140062906D0B1F534
:1044A000803F03D0016841F001010160002030BD70
:1044B0000000014000040140004001400044014070
:1044C000004801400004004000080040000C00408B
:1044D000001800400700010000680349884201D12C
:1044E000FEF716B87047000000000140704730B575
:1044F00090F88410012918D0012280F8842024210A
:10450000C0F888100022202401680B680D6823F091
:10451000005325F001050D60426601680B60C0F88C
:10452000884080F88420104630BD022030BD70479E
:10453000704770B5044690F8840001281DD0012210
:1045400084F884202420C4F8880020680568026864
:1045500022F0010202602068826822F060620A4351
:104560008260204601F0D6FE2268202100201560DE
:10457000C4F8881084F8840070BD022070BD70B546
:10458000044690F8840001281DD0012284F884207C
:104590002420C4F8880020680568026822F001021F
:1045A00002602068826822F060420A4382602046EE
:1045B00001F0B0FE2268202100201560C4F88810A8
:1045C00084F8840070BD022070BD7047704770474A
:1045D0002DE9F04107680025044640F60F03022646
:1045E000F8693968BA6818420AD183067ED501F0A5
:1045F000200302F0805C53EA0C0377D0616F74E112
:10460000CF4BDFF840C3134001EA0C0C53EA0C0C0B
:104610006CD05FEAC07C0CD05FEAC15C09D54FF07A
:10462000010CC7F820C0D4F8907047F00107C4F817
:104630009070870709D5D70707D027683E62D4F85E
:10464000906046F00406C4F8906046070AD5D60785
:1046500008D0276804263E62D4F8906046F002062F
:10466000C4F8906006070CD501F020061E4308D060
:10467000266808233362D4F8903043F00803C4F866
:10468000903003050BD54B0109D526684FF4006324
:104690003362D4F8903043F02003C4F89030D4F85B
:1046A0009030002B3DD0800609D501F0200002F0AB
:1046B0008051084303D0616F09B1204688472168C3
:1046C000D4F890008968490602D410F0280F2AD047
:1046D000204601F005FF2068806840061ED520684E
:1046E000083050E8001F21F0400100E021E040E8E0
:1046F0000012002AF3D1D4F8800078B19249016504
:10470000D4F88000FCF7C8FE00280AD0D4F8800056
:10471000016D00E02046BDE8F04108472046FFF764
:1047200056FFBDE8F0812046FFF751FFC4F89050D6
:10473000F7E7D4F86CC02023BCF1010F7ED15FEA0B
:10474000C06C7BD55FEAC16C78D5102038622068D8
:104750008068400673D5D4F880107C4A086890427F
:1047600034D07A4A1832904230D0784A303290426F
:104770002CD0764A4832904228D0744A6032904217
:1047800024D0724A7832904220D0704A90329042BF
:104790001CD06E4AA832904218D06D4A904215D073
:1047A0006B4A1832904211D0694A303290420DD093
:1047B000674A4832904209D0654A6032904205D03B
:1047C000634A7832904201D0614A903240680004D6
:1047D000000CA6D0B4F85C208242A2D9A4F85E00F6
:1047E000C869B0F5807F2FD0216851E8000F20F410
:1047F000807041E80002002AF6D12068083050E8B5
:10480000001F21F0010140E80012002AF5D12068C4
:10481000083050E8001F21F0400140E80012002A53
:10482000F5D1C4F88C30E566216851E8000F20F01E
:10483000100041E80002002AF6D101E040E00BE060
:10484000D4F88000FCF778FC2667B4F85C00B4F874
:104850005E10401A81B22FE0B4F85C00B4F85E102C
:10486000B4F85E20401A81B2002AB2D00029B0D03C
:10487000226852E8000F20F4907042E80007002FF1
:10488000F6D1344F206800F1080050E8002F02EA0A
:10489000070240E8002CBCF1000FF3D1C4F88C30C3
:1048A000E5666567206850E8002F22F0100240E8B6
:1048B0000023002BF6D126672046FFF738FE30E7AD
:1048C000C60209D5560207D54FF48010386220463B
:1048D000BDE8F041FFF77ABE06060AD501F0800672
:1048E00002F40002164304D0A16F00297FF412AF36
:1048F00017E7420611D54A060FD52046026852E84E
:10490000001F21F0400142E80014002CF6D1C0F84D
:104910008830856700F0FAF803E7020206D54A00FE
:1049200004D52046BDE8F041FFF74FBEC001C6D513
:104930000029C4DA2046BDE8F041FFF7F9BD0000C8
:104940000100001020010004CB64000810000240A8
:1049500010040240FEFFFFEF10B5040003D0D4F8AE
:10496000880010B107E0012010BD002084F8840009
:10497000204600F027F82420C4F888002068016849
:1049800021F001010160A06A10B1204601F0E4FCB1
:10499000204601F0CFFD0128E6D02068416821F4CF
:1049A000904141602068816821F02A01816020687F
:1049B000016841F0010101602046BDE8104001F0AE
:1049C0002FBD000010B5B6B00446142130A8FBF787
:1049D0002BFDC0216846FBF727FD1D492068884252
:1049E00033D100201F9001210446CDE90010684614
:1049F000FEF726F808B1FCF718FA1648016841F0EE
:104A000010010160006800F0100035901148103866
:104A1000016841F001010160006830AB022100F043
:104A2000010035904FF4C060072283E813000A4864
:104A300030A9CDE93342FDF737FC002201212520C2
:104A4000FDF74CFE2520FDF73BFE36B010BD000003
:104A500000100140F0440258000002582DE9F843CC
:104A60000446D0F88800984616460D46202802D005
:104A70000220BDE8F883A5B19EB10021C4F89010D2
:104A80002120C4F888001834FDF73CFD814654F815
:104A9000100CA687E6872027183CB0F5805F02D06F
:104AA00003E00120E5E7206910B12E46002510E063
:104AB00000260EE08021204601F012FFC0B9DEB1D1
:104AC00016F8010B21688862B4F85600401EA4F85D
:104AD0005600B4F856004B464FF00002CDF8008067
:104AE0000028E7D14FF04001204601F0F9FE48B11F
:104AF000C4F888700320BCE735F8020B2168C0F3C6
:104B00000800E0E7C4F888700020B2E77047FEE7CD
:104B10007CB50D46234906461446A1F11800A0F1C4
:104B20001803CDE90001A0F130022946304605F016
:104B3000B3F81C482A46314624300090A0F10C03FB
:104B40006C3804F0A1F817482A4631463C300090F2
:104B5000A0F10C036C3804F097F812482A4631464D
:104B600054300090A0F10C036C3804F08DF80D481F
:104B70002A4631466C300090A0F10C036C3804F0EA
:104B800083F8FCF7F1F807497831002001EB800247
:104B900004EB800392ED000A401C062883ED000A16
:104BA000F4DB7CBD505200240422234B23481146E1
:104BB00010B5FBF79DFF204B042220481146403BD7
:104BC0000838FBF795FF1C4B04221C481146403364
:104BD0000830FBF78DFF184B03221848114680332D
:104BE0001030FBF785FF144B032214481146A43301
:104BF0001830FBF77DFF104B032210481146C833D5
:104C00002030FBF775FF0C4B03220C481146EC33A8
:104C10002830FBF76DFF09480322094B114630305D
:104C2000FBF766FF064B0322044811462433BDE818
:104C300010403830FBF75CBFB0500024E80200247D
:104C4000C0510024054C4FF4FA7580212046FDF731
:104C500046FC284604F04AFBF7E700000010025823
:104C60002DE9F0419E4E5FF0000417460D46804648
:104C70002DED068BB7EEC1AAB7EEE09AB7EEC08A6B
:104C800005EB840108EB8400D1ED000A90ED000AE9
:104C9000B0EE4A4BB7EEE02AB0EE493BB7EEC01A91
:104CA000B0EE480B00F024F906EBC400641C062C9F
:104CB00080ED000BE4DB96ED060B8A4CB7EEC00BE3
:104CC00084ED030A96ED080BB7EEC00B84ED040AE1
:104CD00096ED0A1BF7EEC10BC4ED050AFBF7C0FE0B
:104CE000B0EE408A94ED050AFBF7BAFE7C4D28EE43
:104CF000000A303585ED000A94ED050AFBF7B0FE99
:104D0000B0EE408A94ED030AFBF7E8FF28EE008A34
:104D100094ED040AFBF7E2FF28EE008A94ED030A03
:104D2000FBF79EFEF0EE408A94ED050AFBF7D6FFF6
:104D300008EEC08A85ED018A94ED030AFBF790FE28
:104D4000B0EE408A94ED050AFBF78AFE28EE008A51
:104D500094ED040AFBF7C2FF28EE008A94ED030AE3
:104D6000FBF7BCFFF0EE408A94ED050AFBF7B6FFB7
:104D700008EE808A85ED028A96ED000BB7EEC00B37
:104D800085ED030A94ED040AFBF76AFEB0EE408A53
:104D900094ED050AFBF7A2FF28EE000A85ED040A50
:104DA00094ED030AFBF75CFEB0EE408A94ED050A31
:104DB000FBF756FE28EE008A94ED030AFBF78EFF00
:104DC000F0EE408A94ED040AFBF788FF68EE808AD3
:104DD00094ED050AFBF782FF08EE808A85ED058ACF
:104DE00094ED030AFBF73CFEB0EE408A94ED040A12
:104DF000FBF774FF28EE008A94ED050AFBF76EFFBF
:104E000028EE008A94ED050AFBF72AFEF0EE408AB0
:104E100094ED030AFBF762FF08EEC08A85ED068A6F
:104E200096ED020BB7EEC00B85ED070A94ED040A70
:104E3000FBF754FFB1EE400A85ED080A94ED040A31
:104E4000FBF70EFEB0EE408A94ED030AFBF746FF37
:104E500028EE000A85ED090A94ED030AFBF700FE2F
:104E6000B0EE408A94ED040AFBF7FAFD28EE001A32
:104E70009FED1D0AF7EE000A85ED0A1A96ED041B58
:104E80001A49A5F178022846B7EEC11B85ED0B1A29
:104E900085ED0C0A85ED0D0A85ED0E0AC5ED0F0AAC
:104EA000FFF736FEA5F1780090ED000A87ED000AC5
:104EB00090ED010A87ED010A90ED020A87ED020AE2
:104EC00090ED030A87ED030A90ED040A87ED040ACA
:104ED00090ED050A87ED050ABDEC068BBDE8F08173
:104EE000D0530024280300240000000028010024DF
:104EF00010B5704800F180042DED0A8BB0EE439B95
:104F0000B0EE41ABB0EE40CBB0EE448BB6EE00BBA2
:104F10008168F1B194ED020BB4EE40ABF1EE10FA02
:104F200017D194ED040BB4EE402BF1EE10FA10D132
:104F300094ED060BB4EE409BF1EE10FA09D194ED1E
:104F4000080BB4EE404BF1EE10FA02D194ED0A0BCF
:104F50007BE032EE4A1B0121B1EE000BB0EEC48BB8
:104F60009FED555B29EE096BB4EEC2AB816084ED19
:104F700002AB84ED042B84ED069BF1EE10FA21EEDA
:104F8000003B84ED084B83EE061B30DDB1EE488B11
:104F9000B4EEC81BF1EE10FA01D2B0EE418B28EE50
:104FA000091B21EE091B0AEE001B02EE401B21EE3D
:104FB000081BB5EEC01BF1EE10FA01D2B0EE451B96
:104FC000B0EE410B03F092F8B0EE401B28EE0B0B55
:104FD00020EE090BB0EE402B01EE0B0B01EE4B2B3C
:104FE00082EE081B80EE082B81FE420B2BE0B4EE14
:104FF000C81BF1EE10FA01DDB0EE418B28EE091B63
:1050000021EE091B0AEE001B02EE401B21EE081BDD
:10501000B5EEC01BF1EE10FA01D2B0EE451BB0EEBA
:10502000410B03F063F828EE0B1B21EE091BB0EED9
:10503000412B00EE0B1B00EE4B2B82EE080B81EE9A
:10504000082B80FE420B84ED0A0BB4EEC0CBF1EED0
:1050500010FA06D828EE0B0B20EE0C0B00EE0CAB72
:1050600020E0B4EEC0CBF1EE10FA0DDD39EE401BBE
:10507000B4EECC1BF1EE10FA06DB00EE4BCB28EEC3
:10508000001B01EE0CAB0DE039EE402B28EE001BAF
:105090003CEE490B01EE02AB28EE0B1B21EE001B90
:1050A00001EE40AB84ED0CAB94ED0C0BBDEC0A8B28
:1050B00010BD0000280300240000000000000000D4
:1050C0001E4800212DE9F041DFF86CC04FF4407715
:1050D000C0F800C00122C0E9027100F11408027496
:1050E000417414264FF03B0C827488E8441000F1A0
:1050F0002408066204240B2788E894002023046314
:1051000000F13C070A25C0E90D1387E82A000726AD
:10511000C0E9141481650822C0E91713C0E9191603
:10512000C0E91225FCF776FE002803D0BDE8F04167
:10513000FBF77BBEBDE8F08100A00040E80300243F
:10514000074A0021074810B504F00CF9064C00216D
:10515000034A24322060054804F004F9606010BD61
:1051600030AE0008454C00080000002491530008B0
:105170002DE9F04186B014216846FBF755F93B480C
:10518000016841F004010160016801F0040105912A
:10519000016841F080010160016801F08001059122
:1051A000016841F001010160016801F00101059110
:1051B000016841F002010160016801F002010591FE
:1051C000016841F010010160016801F010010591D2
:1051D000016841F00801016000680022DFF890805A
:1051E0004FF4C07100F0080005904046FDF77FF9CC
:1051F00002266946002430038DE851001D48FDF762
:1052000053F801251C48CDE9005469460296FDF784
:105210004BF84CF2FF706946CDE900041748029440
:10522000FDF742F880200090CDE9015469464046E0
:105230000394FDF739F82F02009703966946CDE9EC
:1052400001544046FDF730F84FF4FC4069468DE8C4
:1052500031004046FDF728F809486946CDE9007459
:105260000294FDF721F806B0BDE8F081E044025851
:1052700000100258000802580000025800040258AA
:10528000000C025810B58EB000241C21009407A811
:10529000019402940394049405940694FBF7C4F8D3
:1052A0001F48C7214FF080438022C0E90034C0E985
:1052B000024104618261FEF7EDFD08B1FBF7B5FD27
:1052C0004FF48050009016486946FEF76DFE08B115
:1052D000FBF7ABFD1248FFF744F808B1FBF7A5FD5B
:1052E0000F4804A904940694FEF782FD08B1FBF769
:1052F0009CFD07AA6020642182E8130008480C2264
:1053000007A90B94FEF79BFF08B1FBF78EFD04483D
:10531000FEF704FE0248FEF76BFF0EB010BD000062
:10532000880400241748002110B5154C0C22164B98
:105330000460C0E90131C160C0E904128161C1614A
:10534000016241628162FFF707FB08B1FBF76DFD67
:105350000C480021FFF713F908B1FBF766FD094877
:105360000021FFF7E6F808B1FBF75FFD0548FFF7FE
:10537000BEF8002803D0BDE81040FBF756BD10BDB5
:1053800000100140D404002460E31600FEE7000092
:105390002DED068B03F074FFFFF706FC0020FBF7F2
:1053A0003BFD01240321204600F0CCF8204600F00C
:1053B000D2F8641CE4B2062CF4D99FED598A01247A
:1053C00000222046B0EE480A114600F0DBFA641CC9
:1053D000E4B2062CF4D90120FBF71EFD41F27070F7
:1053E00003F084FF4F4800F09BFA42F2107003F084
:1053F0007DFF4C4C0020241F9FED4B9A4B4D9FEDA1
:105400004CAADFED4C9A04F1340604F11C079FED21
:105410004A8ADFED4A8A6070C007F0EE490AB2EEB0
:105420000A0A48D03F49183101F1180000F0F6FD92
:105430003C4918223D481831FAF7DDFF95ED000A86
:1054400038483A4930EE080A10F11800F0EE4A0ADE
:1054500085ED000AB0EE690A00F0E0FD97ED020A62
:1054600030EE280A87ED020A96ED020A30EE280A8D
:1054700086ED020A97ED000A30EE080A87ED000A71
:1054800096ED000A30EE080A86ED000A6078401CAE
:10549000C0B260701428BFD3DFF8A48001264FF497
:1054A0007A7700BF00F010FA01214046FDF712F8AC
:1054B00001281AD02FE01B493031A1F1180000F06B
:1054C000ADFD1849182219483031FAF794FF95EDCF
:1054D000000A1448154930EE080A3030F0EE4A0A46
:1054E00085ED000AB0EE690AB6E70125A8B200F022
:1054F00043F86D1C062DF9DD00202670FBF78CFCAF
:10550000384603F0F3FE0125284600F029F86D1C0B
:10551000EDB2062DF8D90A2003F0E8FEC2E700003C
:1055200000000000A8000024CDCC4C3EC04F002459
:10553000AE47613DCDCC4C3FA69B443BACC5273824
:105540000000025808B5132301228DF800106946A7
:1055500003F0ACFD08BD14230022114603F0A6BDE4
:1055600012230022114603F0A1BD1523002211468B
:10557000104603F09BBDFEE711230022114603F005
:1055800095BD00002DE9F047454D044689464FF092
:10559000000A2868C04380070AD0414E283E306880
:1055A00020F080603060FCF7ADFF0746B04608E0B1
:1055B0000120BDE8F08700BFFCF7A4FFC01B022854
:1055C00067D8D8F800000001F6D4206829684FF4A5
:1055D000FE0721F47C313E0241EA00302860207A47
:1055E000A389B4F804C040022D4D2D495B1E227CD6
:1055F000ACF1010C1035091DA0F5007080B2521EEF
:10560000CCF3080C07EA034340EA0C00184306EA0F
:105610000262104328600868626920F0C0001043ED
:1056200008600A68A06922F0200202430A60281D6F
:105630000A6822F010020A6002684FF6F873E46903
:105640009A4342EAC40202600868B9F1000F40F0D0
:1056500010020A6011D00868B9F1010F11D040F4AE
:1056600000100860D8F80000444640F08060C8F898
:105670000000FCF747FF05460DE0086840F40020F5
:10568000EFE740F48010ECE7FCF73CFF401B0228FA
:1056900001D903208DE720680001F5D5504688E741
:1056A000284402582DE9F047454D044689464FF0FD
:1056B000000A2868C04380070AD0414E283E30685F
:1056C00020F080503060FCF71DFF0746B04608E030
:1056D0000120BDE8F08700BFFCF714FFC01B0228C3
:1056E00067D8D8F800008000F6D4208829684FF4E5
:1056F000FE0721F07C713E0241EA00502860207ACA
:10570000A389B4F804C040022D4D2D495B1E227CB4
:10571000ACF1010C1835091DA0F5007080B2521EC5
:10572000CCF3080C07EA034340EA0C00184306EAEE
:105730000262104328600868626920F440601043E8
:1057400008600A68A06922F4007202430A60281DFA
:105750000A6822F480720A6002684FF6F873E469FE
:105760009A4342EAC40202600868B9F1000F40F4AB
:1057700080720A6011D00868B9F1010F11D040F0B1
:1057800080700860D8F80000444640F08050C8F8A7
:105790000000FCF7B7FE05460DE0086840F4800005
:1057A000EFE740F40000ECE7FCF7ACFE401B0228FA
:1057B00001D903208DE720688000F5D5504688E7A1
:1057C0002844025837483CB500683749ADF8040012
:1057D0000868ADF80000BDF800100020BDF80420F6
:1057E000BDF80430C1F30024BDF80410D50BBDF89A
:1057F000042040EA4430C3F38034BDF8043040EA6A
:105800000530C1F38025BDF8041040EAC420C2F37E
:105810004024BDF8042040EA8520C3F30025BDF8EC
:10582000043040EA4420C1F3C014BDF8041040EA3B
:105830000520C2F38015BDF8042040EAC410C3F36C
:105840004014BDF8043040EA8510C1F30015BDF8DE
:10585000041040EA4410C2F3C004BDF8042040EA3A
:10586000051040EAC400C3F38003C1F3400440EADA
:10587000830102F0010041EA4401084300EE100AEE
:105880009FED0A1ADFED0A0AB8EE400A71EE401ADF
:105890009FED081A9FED080A61EEA00A10EE810A3A
:1058A0003CBD000010040258100C02580000804655
:1058B0000000803800401C4600409C4532230022F6
:1058C000114603F0F3BB000070B5134D4FF40071A7
:1058D0002846FCF7FFFD114C4FF4806120702846EC
:1058E000FCF7F8FD4FF4006160702846FCF7F2FD0C
:1058F0004FF48051A0702846FCF7ECFD4FF40051A6
:10590000E0702846FCF7E6FD4FF480412071284600
:10591000FCF7E0FD607170BD001002589D0000248E
:1059200070B50124054603212046FFF70BFE641CD9
:10593000E4B2062CF7D90124002205EB84001146BD
:1059400010ED010A204600F005F8641CE4B2062CB4
:10595000F2D970BD1CB510EE103A8DF800108DF81C
:1059600001201A0C8DF80230190A8DF804201C0E43
:105970008DF803102523694606228DF8054003F0B3
:1059800095FB1CBD1CB510EE103A8DF800108DF87B
:1059900001201A0C8DF80230190A8DF804201C0E13
:1059A0008DF803102323694606228DF8054003F085
:1059B0007DFB1CBD4FF0E02010B5006905F084F8B8
:1059C000012803D0BDE8104004F0A8BD10BD0000C0
:1059D00030B59DB04C216846FAF726FD202113A86A
:1059E000FAF722FD0220FCF7ABFE2C4900242C48DC
:1059F0000A6822F001020A600A68026842F4404222
:105A00000260026802F440421B9202689204FCD5D4
:105A1000244A136843F002031360126802F0020282
:105A20001B92026842F44042026002680A6842F037
:105A300001020A60096801F001011B9101688904F3
:105A4000FCD502200990402501210091C20301925A
:105A50000A900FABCDE90B050C210D900E9083E859
:105A6000130068461294FDF7FFFE08B172B6FEE718
:105A700008221A95CDE91625D30113AA3F20032148
:105A8000CDE9185382E81300022113A8FDF7AEFCFC
:105A9000002801D072B6FEE71DB030BD2C040058BE
:105AA00018480258F44402582C48F0B52C4A0168B2
:105AB00041F470010160106800F00F00072804D263
:105AC000106820F00F00C01D106026490020254CF2
:105AD00010340B68244D43F001030B6020600B6809
