:020000040800F2
:10000000E04F002471030008ED3D0008173B000895
:10001000FD3C0008A1040008894900080000000018
:10002000000000000000000000000000B102000815
:10003000A3040008000000000D030008734000083E
:100040008B0300088B0300088B0300088B03000858
:100050008B0300088B0300088B0300088B03000848
:100060008B0300088B0300088B0300088B03000838
:100070008B0300088B0300088B0300088B03000828
:100080008B0300088B0300088B030008A9040008F9
:100090008B030008B50400088B0300088B030008DD
:1000A0008B030008414200088B0300088B03000803
:1000B0008B0300088B0300088B0300088B030008E8
:1000C0008B0300088B0300088B0300088B030008D8
:1000D0008B0300088B0300088B0300087D49000890
:1000E0008B0300088B030008000000008B0300084E
:1000F0008B0300088B0300088B0300088B030008A8
:100100008B0300088B0300088B0300088B03000897
:100110008B0300088B0300088B0300088B03000887
:100120008B0300088B0300088B0300088B03000877
:100130008B0300088B0300088B0300088B03000867
:1001400000000000000000000000000000000000AF
:100150008B0300088B0300088B0300088B03000847
:100160008B0300088B0300088B0300088B03000837
:100170008B0300088B0300088B0300088B03000827
:100180008B0300088B0300088B0300088B03000817
:100190008B0300088B0300088B0300088B03000807
:1001A0008B0300088B0300088B0300088B030008F7
:1001B0008B0300088B0300088B0300088B030008E7
:1001C0008B0300088B0300088B0300088B030008D7
:1001D0008B0300088B0300088B0300088B030008C7
:1001E0008B0300088B0300088B0300088B030008B7
:1001F0008B0300088B0300088B0300088B030008A7
:100200008B0300088B0300088B0300088B03000896
:100210008B0300088B0300088B0300088B03000886
:100220008B0300088B0300088B030008000000000C
:100230008B0300088B030008000000008B030008FC
:100240008B0300088B0300088B0300088B03000856
:100250008B0300088B0300088B0300088B03000846
:100260008B0300088B0300088B0300088B03000836
:100270008B0300088B0300088B03000800000000BC
:100280008B0300088B0300088B03000800000000AC
:10029000000000008B030008DFF810D000F0EEF83B
:1002A00000480047E14A0008AFF30080E04F002417
:1002B0002C4B19680868B0E8F04F80F30988BFF349
:1002C0006F8F4FF0000080F311887047000000002E
:1002D00008480068006880F308884FF0000080F349
:1002E000148862B661B6BFF34F8FBFF36F8F00DF24
:1002F00000BF00BF08ED00E0DFF80C00016841F42A
:1003000070010160704700BF88ED00E0EFF30980E5
:10031000BFF36F8F134B1A681EF0100F08BF20ED4C
:10032000108A20E9F04F106009B44FF0100080F3FC
:100330001188BFF34F8FBFF36F8F05F0CBFA4FF0EB
:10034000000080F3118809BC19680868B0E8F04F14
:100350001EF0100F08BFB0EC108A80F30988BFF3BD
:100360006F8F70471C000024EFF30580704700007A
:100370000648804706480047FEE7FEE7FEE7FEE73F
:10038000FEE7FEE7FEE7FEE7FEE7FEE76541000861
:10039000990200082DE9F05F0546002092469B4631
:1003A00088460646814640241BE02846414647468B
:1003B000224600F053F853465A46C01A914110D3D2
:1003C00011461846224600F03AF82D1A67EB01084C
:1003D0004F4622460120002100F031F817EB0009BA
:1003E0004E41201EA4F10104DFDC484631462A4676
:1003F0004346BDE8F09F40EA01039B0703D009E0B4
:1004000008C9121F08C0042AFAD203E011F8013B00
:1004100000F8013B521EF9D27047D2B201E000F859
:10042000012B491EFBD270470022F6E710B5134698
:100430000A4604461946FFF7F0FF204610BD202A61
:1004400004DB203A00FA02F1002070479140C2F12B
:10045000200320FA03F3194390407047202A04DB5D
:10046000203A21FA02F00021704721FA02F3D0402D
:10047000C2F120029140084319467047064C074DCF
:1004800006E0E06840F0010394E807009847103464
:10049000AC42F6D3FFF704FF306400085064000854
:1004A000FEE7704772B6FEE7014800F047BE000065
:1004B000AC000024014800F041BE0000AC00002464
:1004C000F0B503684FF6FC716D4C426BD3F8845065
:1004D0008D4345EA8205C3F88450036853F8845F6E
:1004E000068F25F47F0545EA06451D60836B654D43
:1004F0009F180268D2F888308B4343EA8703C2F81A
:100500008830026852F8883F868F23F4FE0343EA5E
:1005100006431360066856F8A03FC26B8B4307EB97
:10052000420243EA82033360076857F8A03FB0F8FD
:10053000406023F4FE0343EA06433B60D0E91036F3
:1005400003FB06220368D3F8B0608E4346EA8206B6
:10055000C3F8B0600368B0F84860D3F8B07027F40F
:10056000FE0747EA0646C3F8B060D0E912670368A1
:1005700006FB0722D3F8AC608E4346EA8206C3F836
:10058000AC60D0E91467036806FB0722D3F8F0607B
:100590008E4346EA8206C3F8F0600368B0F85860FC
:1005A000D3F8F07027F47C1747EA0646C3F8F060EA
:1005B0000368876D53F8C06F02EB47028E4346EA2B
:1005C000820119600168B0F85C20D1F8C03023F4D2
:1005D0007C1343EA0242C1F8C020016890F8602011
:1005E000D1F8C03023F07C5343EA0262C1F8C02046
:1005F000416B04EB8101C166826B01EB82020267F1
:10060000C36B02EBC3024267D0E91034634302EBD1
:1006100083028267D0E91234634302EB8302C2672C
:10062000D0E91434634302EB8302C0F88020836D69
:1006300002EBC303C0F88430C46D826E544303EBF5
:100640008403C0F88830046E544303EB8402C0F87E
:100650009020AA420AD9D0F89C20032142F020021F
:10066000C0F89C2080F898100120F0BD002200E026
:1006700004C1D0F890308B42FAD80020F0BD0000C1
:1006800000AC0040FCD30040F0B58E680C69D1E9A5
:10069000005744EA0604DFB145F080452C43866EDE
:1006A000D1E906C54F695E4391F8203045EA0C0553
:1006B000B1F80CC0D0F884E0002047EA0363104F83
:1006C0001D430EEB860345EA0C45E3E8024511E0C5
:1006D00044EA8544E3E71418155CA67894F803C04F
:1006E00094F801E0360445EA0C6446EA0E252C43F2
:1006F000001D10C3CC683C5D8442ECD8F0BD000006
:10070000886300081C48002138B5022202C0012479
:1007100080E81600C1600161011F184800F0C7FBA6
:100720000222164801231146009400F0FFFB1348F3
:100730000022012100F08EFB10480022012100F070
:1007400011FB0E480022610600F00CFB0B48002252
:10075000416AC06A4143094800F001FC074800F0C3
:1007600010FC064801F031F8002803D0BDE83840FD
:10077000FFF798BE38BD0000004B0024AC000024F9
:100780002DE9F84F044601F06DF900903CB194F862
:100790003500022806D0802161650020E4E00120B8
:1007A000BDE8F88FC74DC74EC649183520683036AA
:1007B000DFF81483DFF814938842DFF814A3DFF81E
:1007C00014B32ED0A8422CD0B0422AD0404528D015
:1007D000484526D0504524D0584522D0BD4A18322D
:1007E00090421ED0BC4A90421BD0BB4A1832904265
:1007F00017D0B94A3032904213D0B74A48329042AB
:100800000FD0B54A603290420BD0B34A7832904252
:1008100007D0B14A9032904203D0AF4AA8329042FA
:1008200009D1026822F01E0202602068426922F0AB
:100830008002426103E0026822F00E020260276833
:100840008F4238464DD0A8424BD0B04249D04045A7
:1008500047D0484545D0504543D0584541D09D4AA2
:10086000183290423DD09C4A90423AD09A4A18326F
:10087000904236D0984A3032904232D0964A48322E
:1008800090422ED0944A603290422AD0924A7832D6
:10089000904226D0904A9032904222D08E4AA8327E
:1008A00090421ED08D4A90421BD08C4A1432904206
:1008B00017D08A4A2832904213D0884A3C3290425C
:1008C0000FD0864A503290420BD0844A6432904214
:1008D00007D0824A7832904203D0804A8C329742C5
:1008E00004D1206E026822F480720260754920688B
:1008F000884228D0A84226D0B04224D0404522D0F9
:10090000484520D050451ED058451CD0714918315B
:10091000884218D07049884215D06F4918318842F2
:1009200011D06D49303188420DD06B494831884231
:1009300009D069496031884205D0674978318842D9
:1009400001D065499031016821F0010101600EE09C
:1009500001F088F80099401A052808D9202262651C
:100960000321002084F8351084F8340017E7386834
:10097000C007EDD1534A0121206890422ED0A842F1
:100980002CD0B0422AD0404528D0484526D05045EA
:1009900024D0584522D04F4B183398421ED04E4B8E
:1009A00098421BD04C4B1833984217D04A4B3033E7
:1009B000984213D0484B483398420FD0464B60338F
:1009C00098420BD0444B7833984207D0424B903337
:1009D000984203D0404BA833984208D194F85C70F9
:1009E0003F23A06D07F01F07BB40836007E094F82A
:1009F0005C30A06D03F01F0301FA03F3436020682D
:100A000090424DD0A8424BD0B04249D0404547D04B
:100A1000484545D0504543D0584541D02D4A18321D
:100A200090423DD02C4A90423AD02B4A1832904204
:100A300036D0294A3032904232D0274A483290424A
:100A40002ED0254A603290422AD0234A78329042F2
:100A500026D0214A9032904222D01F4AA83290429A
:100A60001ED01E4A90421BD01C4A1432904217D00E
:100A70001A4A2832904213D0184A3C3290420FD082
:100A8000164A503290420BD0144A6432904207D03A
:100A9000124A7832904203D0104A8C3290420BD1E5
:100AA000D4E919024260E06E30B1026822F480722B
:100AB0000260D4E91C024260002084F8351084F8FA
:100AC00034006DE610000240580002407000024001
:100AD00088000240A000024010040240085402585E
:100AE0002DE9F05F28B190F83510022904D080215B
:100AF00041650120BDE8F09F904C904B0168183C87
:100B000018338E4ADFF83C92A1428D4CDFF838E270
:100B10008E4FDFF83CB2DFF83CA28F4D8F4E31D0C4
:100B200091422FD099422DD0A1422BD0494529D0B6
:100B3000714527D0B94225D0DFF810C20CF1180C4E
:100B400061451FD0DFF808C2ACF1600C614519D0D7
:100B5000DFF8FCC1ACF1480C614513D0DFF8F0C1FF
:100B6000ACF1300C61450DD0DFF8E4C1ACF1180CEC
:100B7000614507D0594505D0514503D0A94201D060
:100B8000B1422CD1DFF8B4C14FF0040880F83580B1
:100B9000ACF1180C61451DD091421BD0994219D07F
:100BA000A14217D0494515D0714513D0B94211D093
:100BB0006648183081420DD065486038814209D0BE
:100BC00063484838814205D061483038814201D0BD
:100BD0005F481838086820F001000860ABE0D1F8E1
:100BE00000C02CF00E08DFF854C1C1F80080ACF151
:100BF000180C0168614527D0914225D0994223D035
:100C0000A14221D049451FD071451DD0B9421BD00A
:100C1000DFF838C10CF1180C614515D0DFF830C190
:100C2000ACF1600C61450FD0DFF824C1ACF1480C89
:100C3000614509D0DFF818C1ACF1300C614503D033
:100C4000DFF80CC1ACF1180CD1F800C02CF0010C8D
:100C5000C1F800C0DFF8E4804FF0010C0168A8F192
:100C60001808414546D0914244D0994242D0A14211
:100C700040D049453ED071453CD0B9423AD0334A84
:100C80001832914236D0324A603A914232D0304ADC
:100C9000483A91422ED02E4A303A91422AD02C4ADC
:100CA000183A914226D0594524D0514522D0A94224
:100CB00020D0B1421ED02A4A91421BD0284A143279
:100CC000914217D0264A2832914213D0244A3C320E
:100CD00091420FD0224A503291420BD0204A6432C6
:100CE000914207D01E4A7832914203D01C4A8C327E
:100CF000914218D1016E0A6822F480720A6090F85D
:100D00005C20816D02F01F020CFA02F24A60D0E909
:100D100019124A60C16E31B10A6822F480720A6009
:100D2000D0E91C124A600022016D80F835C080F8BD
:100D3000342001B188470020DCE600002800024092
:100D4000580002407000024088000240A0000240AB
:100D50007004024088040240A0040240B80402402B
:100D60000854025810B590F89830012B09D0022B86
:100D700007D0D0F89C1041F00201C0F89C1001206F
:100D800010BD03689C6D0C4203D1DC6D44F001047E
:100D900004E09C6D31EA04041FD00324DC658B055C
:100DA00005D50368D3F8E0401443C3F8E0404B0591
:100DB00005D50368D3F8E4401443C3F8E440006861
:100DC000084A01EA0203446D074A1C43446510685F
:100DD00040EA91701060002010BDDC6D44F0020408
:100DE000DCE70000FFFFCF3F14A8004070B50446C9
:100DF00090F89800022804D0D4F89C0040F0080035
:100E00000DE02068D0F8C03013F07C5F0BD0D0F834
:100E1000C4309B020CD5D4F89C0040F40070C4F898
:100E20009C00012070BDD4F89C0040F02000F6E743
:100E3000D0F8C400C0F3044520462B46FFF724FC3D
:100E400021680120A840C1F8D000C4F89400002017
:100E500070BD704790F89830012B07D0D0F89C10E7
:100E600041F00401C0F89C100120704761B1006896
:100E7000012913D0D0F8B01021F0FE4141EA0261FF
:100E8000C0F8B010002070470068D0F8F01021F0D2
:100E90007C5141EA0261C0F8F010F3E7D0F8A010ED
:100EA00021F0FE4141EA0261C0F8A010EAE770B506
:100EB00090F89820012A09D0022A07D0D0F89C1077
:100EC00041F00201C0F89C10012070BD0B68CA6897
:100ED00083B10B69072A43EA427325D00C7A4A6929
:100EE00042EA84724968006F00EBC100C0E9003239
:100EF000002070BD072A0DD00C7AD6060D8A4B69EA
:100F000043EA847246EA0543C06E49681A4340F8D2
:100F10002120EDE70B8A4FF06055D1E9062442EA23
:100F2000034245EA0423EFE78A69DBE730B590F82E
:100F30009850039C012D07D0D0F89C1041F004017B
:100F4000C0F89C10012030BD0D01016845EA820007
:100F500040EA43002043C1F88000002030BD90F8F3
:100F60009830012B07D0D0F89C1041F00401C0F854
:100F70009C1001207047006842EA01218164002032
:100F8000704790F89810012907D0D0F89C1041F0D4
:100F90000401C0F89C10012070470068C16841F44A
:100FA0000001C1600020704770477047F0B590F8AD
:100FB00098500024022D04D0D0F89C1041F0080174
:100FC00029E0402905D0412929D0056D8D4219D944
:100FD00042E00568D5F8A06016F4FE0F12D0D5F8EF
:100FE000A460760613D0D5F8A460F60105D5D5F82F
:100FF000A06016F0004F00D50124D5F8A470466F0C
:10100000456C24E0D0F89C1041F0200103E0D0F8BA
:101010009C1041F48071C0F89C100120F0BD05685F
:10102000D5F8B06016F4FE0FECD0D5F8B4607606B3
:10103000EDD0D5F8B460F60105D5D5F8B06016F05E
:10104000004F00D50124D5F8B470866FC56CC7F386
:1010500005273C44654302E0456DC66F4D4306EBF2
:1010600085052E6816F0804656602E6836D026F02C
:1010700060461660D5F800C000262E4F0CF0005CCC
:10108000C2F808C0D5F800C00CF0004CC2F810C07F
:10109000B5F804C01FFA8CFCC2F81CC0D5F804C017
:1010A000CCF3034CC2F80CC0D5F804C00CF4801C7F
:1010B000C2F814C0D5F804C00CF4001CC2F818C063
:1010C000D5F804C0CCF3066CC2F820C0D5F804C033
:1010D00008354FEADC7CC2F824C008E0C6F38A4633
:1010E000C7E700BF15F806C003F806C0761CD2F8A3
:1010F0000CC017F80CC0B445F4D840290AD04129D7
:101100000CD020294FF001020CD200688A40C0F8B0
:1011100098200DE00068C0F8A84009E00068C0F819
:10112000B84005E0006801F01F018A40C0F89C202B
:101130000020F0BD88630008704700002DE9FF5FC4
:10114000DFF80CB304460BF10401DBF8000025685E
:101150000F68AA468007D5F85090696DD5F8508081
:101160006E6D2A6DD5F854C02B6D00EA8770009023
:1011700009F470496F6D286D01EA09010191DAF8EF
:101180005410DAF85490DAF8505008F00F0806EAD4
:101190000806029602F0F00203F071536FEA0906A6
:1011A0001F4000F060700CEA020CCDF80CC0F20594
:1011B00001EA00090CD4E843C00509D400214FF42A
:1011C0008073CAF85030CBF800102046FFF7B4FF08
:1011D000700512D4E84340050FD4206800234FF473
:1011E0008068D0F8DC20D0F8E410C0F85080CBF84C
:1011F00000301140204600F007FBDFF858A20098AD
:1012000050B12268830F00EA0A001065CBF8003065
:1012100020460099FFF71DFE019850B12268830F08
:1012200000EA0A001065CBF800302046019900F072
:10123000EDFA029850B12268830F00EA0A001065A7
:10124000CBF800302046029900F08AFA039850B19A
:101250002268830F00EA0A001065CBF800302046B0
:10126000039900F0B1FA30050CD4E843000509D425
:10127000236800204FF400621A65CBF80000204676
:1012800000F0C5FAB00512D4E84380050FD42068F9
:1012900000234FF40078D0F8D820D0F8E010C0F840
:1012A0005080CBF800301140204600F0AEFA3003F9
:1012B0000CD4E843000309D4236800204FF4002233
:1012C0001A65CBF80000204600F048FAF0030CD471
:1012D000E843C00309D4236800204FF480321A6524
:1012E000CBF80000204600F08EFA70030CD4E843DF
:1012F000400309D4226800204FF480231365CBF803
:101300000000204600F07EFAB0030FD4E8438003CB
:101310000CD4236800204FF400321A65CBF800008B
:10132000D4F89C0040F08000C4F89C00B9F1000F94
:101330000BD022684FEA997309EA0A001065CBF8CE
:10134000003049462046FFF730FE5FB12268BB0FF0
:1013500007EA0A001065CBF80030D4F89C00384347
:10136000C4F89C003C492068884268D16068814686
:101370008068800763D0D9F82060D9F82410D9F8A4
:101380002080D9F82400D9F820C0D9F82470D9F8E1
:101390002030D9F82450D9F8202003F4FC4306F07B
:1013A0000F0AD9F824601D40D9F824B008F030089D
:1013B0000CF4C07C02F4F02211EA0A0100EA0808E9
:1013C00007EA0C0706EA0206D9F820A004D0C9F8FB
:1013D0002010204600F013FAB8F1000005D0616833
:1013E00008624146204600F00CFA6FEA0B00400606
:1013F0000ED46FEA0A0040060AD460684021C36B2D
:10140000C26B01622046190C02F03F0200F0F8F9AD
:101410002FB1606807623946204600F0EFF935B118
:1014200060680562D4F89C002843C4F89C0036B17B
:1014300060680662D4F89C003043C4F89C00D4F87D
:101440009C00002802D02046FFF7AEFDBDE8FF9FBC
:1014500010A80040FFFFCF3F00A000402DE9F04161
:1014600094B08D494C2204466846FEF7C4FF64B12F
:101470008A4D2068A84202D100F58070606094F81F
:1014800098004FF0000820B108E0012014B0BDE83A
:10149000F081204684F8998000F002F92068816983
:1014A00021F01001816100F0DDFA0327064604E017
:1014B00000F0D8FA801B0A2811D82068806900073C
:1014C000F6D42068816941F00101816100F0CAFA17
:1014D00006460DE000F0C6FA801B0A2808D9D4F8A9
:1014E0009C0040F00100C4F89C0084F89870CCE7A0
:1014F00020688069C007EDD02068816941F0020151
:101500008161207C01282068816937D041F0400149
:101510008161607C01282068816932D021F480419A
:101520008161A07C0128206881692DD041F480511F
:1015300081612068A268816921F440711143816151
:101540002068816921F0A40181612068016921F08E
:1015500010010161E068012819D010B302281BD0E6
:101560002068816941F0800181612068016941F052
:1015700010010161E06803280ED012E021F0400163
:10158000C6E741F48041CBE721F48051D0E72068E1
:10159000816941F0040103E02068816941F0200184
:1015A0008161207E6FF0FF02D4E90773A68A1102E1
:1015B000400602EB0727A0F10070384327685B1E46
:1015C000184301EB06463043F861A068B0F5407F50
:1015D00011D104F12800A68C6FF00F0C89C801EB23
:1015E0000641401E02EB0322104322680CEB071356
:1015F00018430843D060206E30B12068626ED0F886
:10160000C0101143C0F8C010D4E917126846D14287
:1016100009D02168A36E51F8C82F50F8233022F06A
:1016200007021A430A60216C49B12168626C51F8C3
:10163000BC3F50F8226023F0070232430A60A16CDD
:1016400051B12168E36C51F8BC2F50F8233022F0DF
:10165000700242EA03120A60216D51B12168626D85
:1016600051F8BC3F50F8220023F4E06242EA002027
:1016700008602068A84204D16068816821F00301F5
:101680008160C4F894800121C4F89C8084F898108B
:101690002046FEF715FFF9E69863000800A0004019
:1016A00070B5B6B00446142130A8FEF7BDFEC021C7
:1016B0006846FEF7B9FE26492068884246D10021D7
:1016C00002250C4619224FF400408DE80700A023A4
:1016D000CDE9033580031C9020266846CDE90651EC
:1016E000CDE90861059500F05BFC08B1FEF7DAFE74
:1016F0001848016841F480710160006800F480704E
:10170000359014480C38016841F008010160006808
:101710000921329400F0080035900320CDE930050E
:10172000CDE933510C4830A900F072F800220121B4
:10173000132000F083FA132000F072FA0022012136
:10174000152000F07BFA152000F06AFA36B070BD63
:1017500000A00040EC440258000C02587047000002
:1017600030B5C80789B027D020216846FEF75CFE57
:10177000124808A96A4603F028F91149114A08706D
:10178000BDF82000C0F3C71100F07F0002EB41114B
:101790000877323810D19DF800509DF801409DF82F
:1017A000023065F307009DF8032064F30F2063F314
:1017B000174062F31F60086009B030BDAC00002420
:1017C0009C000024204B0024704790F898100129B9
:1017D00007D0D0F89C1041F00401C0F89C10012003
:1017E0007047022180F89810002201688B6923F06D
:1017F00001038B61C0F89C2010467047704770470A
:101800007047704770477047704770477047704720
:101810002DE9F84F03247D4D00234FF001094FF0CF
:10182000B04B4FF00F0AE9E009FA03F73A4076D0DF
:101830000E7906F00306012E01D0022E18D1D0F841
:1018400008C04FEA430ECE6804FA0EF82CEA080CE2
:1018500006FA0EF646EA0C068660D0F804C00E7949
:101860002CEA070CC6F300169E4046EA0C064660BA
:101870000E79F643B6070BD0C6684FEA43088F6867
:1018800004FA08FC26EA0C0607FA08F73743C76093
:101890000E7906F00306022E12D1DE080F694FEA18
:1018A000437C00EB8606B646366A4FEADC6C0AFAE1
:1018B0000CF807FA0CF726EA08063743CEF8207032
:1018C0000F7906684FEA430807F0030704FA08FC9B
:1018D00007FA08F726EA0C06374307604E6816F445
:1018E000403F1CD04A4E376847F0020737603668E1
:1018F0009F0706F00206009623F0030606F1B046A5
:10190000B6463F0FD6F80864DFF808810AFA07FCEC
:10191000404526EA0C0603D14FF0000C41E06CE094
:10192000DFF8F4C0604502D14FF0010C39E0DFF878
:10193000ECC0604502D14FF0020C32E0DFF8E0C0AD
:10194000604502D14FF0030C2BE0DFF8D8C06045B2
:1019500002D14FF0040C24E0DFF8CCC0604502D186
:101960004FF0050C1DE0DFF8C4C0604502D14FF018
:10197000060C16E0DFF8B8C0604502D14FF0070C46
:101980000FE0DFF8B0C0604502D14FF0080C08E06E
:10199000DFF8A4C0604502D14FF0090C01E04FF020
:1019A0000A0C0CFA07FC4CEA060CCEF808C44F6887
:1019B000DBF80060FF0226EA020600D516435F4608
:1019C000CBF80060D1F804C0DBF804605FEA8C2C2F
:1019D00026EA020600D516437E606E684F6826EA46
:1019E0000206BF0300D516436E602E684F6826EAD4
:1019F0000206FF0300D516432E605B1C0A6832FA0C
:101A000003F67FF411AFBDE8F88F000080000058A6
:101A1000F44402580000025800040258000802581A
:101A2000000C025800100258001402580018025806
:101A3000001C02580020025800240258426921EA82
:101A400002030A4043EA0241816170470AB18161A1
:101A500070470904FBE7000001480068000C70476C
:101A60000010005C014880687047000008000024F6
:101A700002488168027811448160704708000024A0
:101A8000032010B500F0FAF801F002F90F4A1049EE
:101A900014681368C4F3032203F00F038A5CC95C63
:101AA00002F01F0201F01F01D0400A4A20FA01F1A2
:101AB000116009490860002000F010F808B1012009
:101AC00010BD00F09BF8002010BD00001844025823
:101AD0000C640008180000241400002410B510281D
:101AE00004468AB02AD200220146192000F0A6F846
:101AF000192000F095F8154804601548016841F078
:101B000001010160006808A900F001000990684621
:101B100001F04AF801F0AAF80E49400000220E4CEC
:101B2000B0FBF1F10D4840F2E7330460C0E9033245
:101B3000491EC0E9011201F00BFC10B101200AB0EE
:101B400010BD064801F036FCF9E700000C00002447
:101B5000F044025840420F0000000140E001002420
:101B6000154BF0B5083B427813491A600B680A1F01
:101B700023F001030B6043681360057BC67A827A09
:101B8000437B2D07847B45EA0665C77B90F809C037
:101B9000067A90F800E045EAC24040EA834040EA15
:101BA000444040EA074040EA0C2040EA460040EA50
:101BB0000E000860F0BD0000A0ED00E0BFF35F8FF5
:101BC000044800210368034A23F480330360703221
:101BD0001160704724ED00E0074A40F0010006491B
:101BE00070321060086840F480300860BFF34F8F97
:101BF000BFF36F8F7047000024ED00E0074882B00C
:101C0000016841F002010160006800220F2100F02C
:101C100002000090901E02B000F010B8F444025888
:101C2000002809DB410900F01F028900012001F1B1
:101C3000E0219040C1F80001704700000E4BF0B465
:101C40001B680D46C3F30223C3F10706042E00D917
:101C50000426191D072901D2002300E0DB1E012400
:101C600004FA06F19C40491E2940641E9940144024
:101C70002143F0BC02F089BE0CED00E0064900F003
:101C8000070210B54FF6FF040868044B204040EAF5
:101C900002201843086010BD0CED00E00000FA05BA
:101CA000134970B50A68D243520705D5096801F097
:101CB0000701814213D118E00A6822F007020243AB
:101CC0000A60FFF7CFFE0A4D4FF47A760446083DCE
:101CD00007E000BFFFF7C6FE001BB04201D901209C
:101CE00070BD2868C0438004F4D4002070BD00009B
:101CF0000C48025810B500F085FF05490968054AEF
:101D0000C1F30211515C01F01F01C84010BD000079
:101D1000204402580C640008494930B5484C0B1D5A
:101D20000A68143409681D68246802F00303C5F3C7
:101D30000012C1F30531C4F3CC04002914FB02F2F4
:101D400000EE102AF8EE400A75D03F4A9FED3D1A8A
:101D5000B7EE000A6BB1DFED3D1A012B01D0022B6B
:101D600064D002EE101A1168F8EE422A81EEA22A1F
:101D700021E0334C283C23689B0612D5344B246861
:101D800001EE901A1168C4F3C104F8EE612AE34031
:101D900001EE903AC1F30801F8EE611A81EEA22A31
:101DA0000BE001EE901ADFED2B2A00BFF8EE611A6E
:101DB000116882EEA12AC1F3080101EE901A1168A0
:101DC000F8EE611A40EE811A71EE800A62EE200A86
:101DD000C1F3462101EE101AB8EE411A31EE001A95
:101DE000C0EE811ABCEEE11A80ED001A1168C1F351
:101DF000064101EE101AB8EE411A31EE001AC0EE9B
:101E0000811ABCEEE11A80ED011A1168C1F3066176
:101E100001EE101AB8EE411A31EE000A80EE801A77
:101E2000BCEEC10A80ED020A30BD04E001EE901A5A
:101E3000DFED092ABAE70021016041608160F3E724
:101E40002844025800000039384402580024744ADB
:101E50000090D0030024744C20BCBE4B494930B5DF
:101E6000484C0B1D0A681C3409681D68246802F080
:101E70000303C5F30022C1F30551C4F3CC040029C8
:101E800014FB02F200EE102AF8EE400A75D03F4A29
:101E90009FED3D1AB7EE000A6BB1DFED3D1A012B45
:101EA00001D0022B64D002EE101A1168F8EE422A1B
:101EB00081EEA22A21E0334C283C23689B0612D5F0
:101EC000344B246801EE901A1168C4F3C104F8EE93
:101ED000612AE34001EE903AC1F30801F8EE611A7D
:101EE00081EEA22A0BE001EE901ADFED2B2A00BF53
:101EF000F8EE611A116882EEA12AC1F3080101EE21
:101F0000901A1168F8EE611A40EE811A71EE800A9B
:101F100062EE200AC1F3462101EE101AB8EE411A12
:101F200031EE001AC0EE811ABCEEE11A80ED001A03
:101F30001168C1F3064101EE101AB8EE411A31EEF4
:101F4000001AC0EE811ABCEEE11A80ED011A116888
:101F5000C1F3066101EE101AB8EE411A31EE000A23
:101F600080EE801ABCEEC10A80ED020A30BD04E0AA
:101F700001EE901ADFED092ABAE700210160416005
:101F80008160F3E7284402580000003940440258B9
:101F90000024744A0090D0030024744C20BCBE4B33
:101FA0002DE9FE4F0546DFF8E48350F8081B0024B6
:101FB000F64FC943019005F12800264608F1240890
:101FC000009008011DD4A86E50B1B0F5801F0CD050
:101FD000B0F5001F0ED0B0F5401F1ED001240FE059
:101FE000386840F40030386017E00198022101F0B1
:101FF00003FF03E00098022101F08EFF04000CD0E3
:1020000026462888C043C00523D4A86D05281ED2C3
:10201000DFE800F00C11161B1B00AA6ED8F80010A8
:1020200021F440111143C8F80010EAE7386840F481
:102030000030386009E00198002101F0DDFE03E086
:102040000098002101F068FF044674B100E001240B
:1020500026462888C043800528D4E86D80281ED0F5
:102060000CDC90B140280ED114E0AA6DD8F8001015
:1020700021F007011143C8F80010EAE7C02813D087
:10208000B0F5807F10D001240FE0386840F40030B4
:10209000386009E00198002101F0AEFE03E00098ED
:1020A000002101F039FF04469CB126462888DFF85C
:1020B000DC92C04309F12C0940052CD4D5F8A800C6
:1020C000B0F5800F20D00DDCA0B1B0F5001F0FD10E
:1020D00015E0EA6DD8F8001021F4E0711143C8F85A
:1020E0000010E3E7B0F5C00F13D0B0F5000F10D02B
:1020F00001240FE0386840F40030386009E00198AE
:10210000002101F079FE03E00098002101F004FFB6
:1021100004467CB126462888C04300052DD4D5F856
:10212000AC00B0F1007F21D00EDCA8B1B0F1807F0F
:1021300010D116E0D5F8A820D9F8001021F46001DC
:102140001143C9F80010E6E7B0F1407F13D0B0F1B9
:10215000806F10D001240FE0386840F40030386000
:1021600009E00198002101F047FE03E000980021FA
:1021700001F0D2FE044674B126462868C0438001AF
:102180001FD4E86CD8B110280FD0202812D03028E6
:1021900015D0012414E0D5F8AC20D9F8001021F0B6
:1021A000E0611143C9F80010E7E7386840F40030F7
:1021B000386004E00198022101F01EFE044674B16B
:1021C00026462888C043C0042BD4286EB0F5005F93
:1021D00020D00DDCA0B1B0F5805F0FD115E06B48C9
:1021E000EA6C2030016821F0300111430160E8E71A
:1021F000B0F5405F13D0B0F5804F10D001240FE050
:10220000386840F40030386009E00198002101F09E
:10221000F3FD03E00098002101F07EFE04468CB13E
:1022200026462888C043800429D4686EB0F5403F14
:1022300023D010DC08B3B0F5803F14D0B0F5003FD8
:102240000FD115E02A6ED8F8001021F4E0411143B7
:10225000C8F80010E5E7B0F5802F0ED0B0F5A02F3C
:102260000BD001240AE00198012101F0C5FD03E033
:102270000098012101F050FE044694B126462888BA
:10228000C04340042AD4D5F8B000B0F1405F23D059
:1022900010DC08B3B0F1805F14D0B0F1005F0FD153
:1022A00015E06A6ED8F8001021F4E0211143C8F857
:1022B0000010E4E7B0F1804F0ED0B0F1A04F0BD08A
:1022C00001240AE00198012101F096FD03E0009845
:1022D000012101F021FE044674B126462888C0433E
:1022E00000041FD4286FD8B1B0F1805F0ED0B0F1D8
:1022F000005F10D0012414E0D5F8B020D9F8001008
:1023000021F0E0411143C9F80010E7E7386840F4D4
:102310000030386004E00198012101F06DFD0446B1
:1023200074B126462868C043C0011ED4A86CD0B141
:1023300001280ED0022811D0032814D0012413E064
:102340002A6FD8F8001021F040511143C8F800104E
:10235000E8E7386840F40030386004E00198022172
:1023600001F04AFD0446ACB126462868DFF81CB0EF
:10237000C043ABF11C0B400252D40548016841F444
:1023800080710160FFF76EFB824611E02C44025819
:1023900000480258FA48AA6C016821F00301114371
:1023A0000160E2E7FFF75EFBA0EB0A00642835D886
:1023B000F4480068C005F5D58CBBDFF8C4A3B5F8B8
:1023C000B4100AF1240ADAF8000001F4407100F4B4
:1023D0004070884211D0DAF80010DAF8002021F4B9
:1023E000407142F48032CAF80020DAF8002022F46A
:1023F0008032CAF80020CAF80010D5F8B400B0F551
:10240000807F1AD1FFF72EFB029012E0FFF72AFB24
:102410000299411A41F2883081420AD903242646A2
:102420002878DFF85CA3C0430AF1080AC00721D06E
:102430003CE0DAF800008007E8D5D5F8B410C1F325
:102440000120032858460DD0016821F47C51016019
:10245000B5F8B420DAF80010C2F30B021143CAF841
:102460000010DDE7C84A036802EA111223F47C5128
:102470001143ECE7E86F182816D005DCA0B1082856
:1024800008D0102804D10AE020280DD028280BD02D
:1024900001240AE00198012101F0AEFC03E000985C
:1024A000012101F039FD044664B126462878C04375
:1024B00080071ED4A86F062819D2DFE800F0160C9A
:1024C00011161616EA6FDAF8001021F038011143E0
:1024D000CAF80010EAE70198012101F08DFC03E041
:1024E0000098012101F018FD04467CB100E00124B0
:1024F00026462878C04340071FD4D5F89400062804
:1025000019D2DFE800F0160C11161616AA6FDAF8C9
:10251000001021F007011143CAF80010E9E7019803
:10252000012101F069FC03E00098012101F0F4FCB5
:102530000446A4B100E0012426462878C043800662
:102540002BD4D5F89000B0F1405F24D011DC10B34B
:10255000B0F1805F15D0B0F1005F10D116E0D5F872
:102560009420D9F8001021F007011143C9F8001098
:10257000E3E7B0F1804F0ED0B0F1A04F0BD00124B3
:102580000AE00198002101F037FC03E000980221E5
:1025900001F0C2FC044694B126462878C0434006A8
:1025A0002BD4D5F89C00B0F5406F24D011DC10B3CB
:1025B000B0F5806F15D0B0F5006F10D116E0D5F8EA
:1025C0009020DAF8001021F0E0411143CAF8001021
:1025D000E3E7B0F5805F0ED0B0F5A05F0BD001242B
:1025E0000AE00198002101F007FC03E000980221B5
:1025F00001F092FC044694B126462878C0430006B8
:102600002BD4D5F8A000B0F5C04F24D011DC10B306
:10261000B0F5005F15D0B0F5804F10D116E0D5F8B9
:102620009C20D9F8001021F4E0511143C9F80010A2
:10263000E3E7B0F5004F0ED0B0F5204F0BD00124EA
:102640000AE00198002101F0D7FB03E00098022185
:1026500001F062FC044654B126462878C0430007C6
:102660001ED4D5F88400B0F5805F0AD00FE0D5F80D
:10267000A020D9F8001021F460411143C9F80010DE
:10268000EBE70098022101F047FC00B10126D5F8E4
:102690008420DAF8001021F440511143CAF80010E8
:1026A0002878C043C00613D4D5F89800B0F5807FD1
:1026B00005D10098022101F02FFC00B10126D5F8C8
:1026C0009820D9F8001021F440711143C9F8001086
:1026D0002868C043000316D4D5F8A40038B1B0F57B
:1026E000803F09D0B0F5003F0BD001240AE00198EB
:1026F000002101F081FB03E00098022101F00CFCB5
:1027000004468CB126462868C043400322D4D5F83D
:102710008800B0F5801F11D0B0F5001F13D0B0F5C0
:10272000401F15D0012414E0D5F8A420D9F80010DA
:1027300021F440311143C9F80010E4E7386840F44F
:102740000030386004E00098012101F0E5FB044608
:102750005CB126462868C043C00323D4286DA8B1C5
:10276000B0F5803F17D001241BE0D5F88820DAF8B7
:10277000001021F440111143CAF80010EAE70000EC
:102780004C44025800480258CFFFFF00386840F41C
:102790000030386004E00198022101F02DFB04466E
:1027A000E4B126462868C043800005D40098022181
:1027B00001F0B2FB00B101262868C04380031BD49E
:1027C000D5F88000B0B1B0F5807F0FD0B0F5007FB4
:1027D00010D0B0F5407F0DD001240CE05A482A6D8E
:1027E000016821F4803111430160DBE7386840F46F
:1027F00000303860ECB326462868C043C00207D4D6
:102800006A6FD8F8001021F000411143C8F8001099
:102810002868C043C00008D4D5F8B820DBF8001001
:1028200021F480411143CBF800102868C043800296
:1028300007D4EA6ED8F8001021F080711143C8F86F
:1028400000102868C04340000CD4DBF8001021F4CD
:102850000041CBF80010DBF80010D5F8BC20114384
:10286000CBF800102868C04308D437486A6D016867
:1028700000E018E021F04051114301602868C04396
:10288000000208D4D5F88C20DAF8001021F44001B9
:102890001143CAF8001028790024C04300F0010059
:1028A00020430AD00FE0D5F88020DAF8001021F498
:1028B00040711143CAF800109EE70198002101F011
:1028C0009BFA00B106462879C04300F0020020437D
:1028D00005D10198012101F08FFA00B1064628794F
:1028E000C04300F00400204305D10198022101F00B
:1028F00083FA00B106462879C04300F0080020435F
:1029000005D10098002101F007FB00B106462879A7
:10291000C04300F01000204305D10098012101F0D0
:10292000FBFA00B106462879C04300F020000443BA
:1029300004D10098022101F0EFFA00B916B101208C
:10294000BDE8FE8F0020FBE74C4402582DE9F05F04
:1029500004000F467ED0DFF83882D8F8000000F07F
:102960000F00B8420CD2D8F8001021F00F01394303
:10297000C8F80010D8F8000000F00F00B84269D184
:102980002078844D40070AD52069296801F070013C
:10299000884204D9296821F0700101432960207818
:1029A0007C4E361D00070AD56069316801F0700160
:1029B000884204D9316821F07001014331602078E8
:1029C000C0060AD5A069316801F4E061884204D9E3
:1029D000316821F4E061014331602078DFF8B4B15F
:1029E00080060BF1080B0CD5E1695846DBF8002096
:1029F00002F07002914204D9026822F070020A4388
:102A00000260207880070AD5E068296801F00F018C
:102A1000884204D9296821F00F01014329602078F8
:102A2000C0073ED05B49A2682868183920F470605E
:102A3000104328606068022818D0032819D009685C
:102A4000012819D0490700294ADADFF848A1AAF17C
:102A5000080A00E044E0DAF8002022F0070202430E
:102A6000CAF80020FEF7FEFF814612E009688903DC
:102A7000E9E709688901E6E7C905E4E7FEF7F2FF3F
:102A8000A0EB090141F28830814202D90320BDE860
:102A9000F09F6168DAF8000000F03800B0EBC10F79
:102AA000ECD1207880070AD5E068296801F00F0191
:102AB000884204D2296821F00F0101432960D8F827
:102AC0000010404601F00F01B9420BD9016821F016
:102AD0000F0139430160006800F00F00B84201D0D7
:102AE0000120D4E7207840070AD52069296801F041
:102AF0007001884204D2296821F0700101432960E5
:102B0000207800070AD56069316801F070018842B9
:102B100004D2316821F07001014331602078C00691
:102B20000AD5A069316801F4E061884204D23168B5
:102B300021F4E06101433160207880060CD5E16921
:102B40005846DBF8002002F07002914204D202687D
:102B500022F070020A43026000F09AF80E492A68D7
:102B60002B68C2F3032203F00F038A5CC95C02F0F6
:102B70001F0201F01F01D040084A20FA01F1116044
:102B80000749086007480068BDE8F05FFEF7A6BF88
:102B900000200052184402580C6400081800002459
:102BA000140000240C00002470B5144C3F22026075
:102BB000124A24680832131D114D04F007044460C2
:102BC00016681C1D06F470668660166806F00F060F
:102BD000C660126802F0700202611A6802F07002A8
:102BE00042611A6802F4E0628261226802F07002B7
:102BF000C261286800F00F00086070BD10440258E0
:102C00000020005230B500F043F80B4A0B490C4B42
:102C100015681468C5F3032204F00F048A5C095D8B
:102C200002F01F0201F01F01D040064A20FA01F114
:102C300019601060084630BD184402580C64000842
:102C4000180000241400002400B5FFF7DBFF05493D
:102C50000968054AC1F30211515C01F01F01C84027
:102C600000BD00001C4402580C64000800B5FFF7CA
:102C7000C9FF05490968054AC1F30221515C01F009
:102C80001F01C84000BD00001C4402580C6400082D
:102C9000454970B545480968434B103B11F038026F
:102CA00008D00111082A03D0102A0BD0182A0BD003
:102CB000084670BD19688906FBD51968C1F3C101C2
:102CC000C84070BD3A4870BD3749374D18310C1DAA
:102CD00024350A68096826682D6802F0030406F0A6
:102CE0000102C1F30511C5F3CC0515FB02F200EE9C
:102CF000102AB8EE400AE9B32F4ADFED2E0AB7EEEC
:102D0000001A6CB1DFED2D1A012C01D0022C43D03A
:102D100002EE101A1068F8EE422A81EEA22A1EE096
:102D20001C68A40611D51B6801EE901A1168C3F344
:102D3000C103F8EE612AD84001EE900AC1F3080001
:102D4000F8EE611A81EEA22A0BE001EE901ADFED97
:102D50001C2A00BFF8EE611A106882EEA12AC0F3A7
:102D6000080001EE900AF8EE611A40EE201A31EEEA
:102D7000810A00E015E022EE000A1068C0F3462048
:102D8000401C00EE900AF8EE600A80EE201ABCEEBD
:102D9000C10A10EE100A70BD01EE901ADFED092A8B
:102DA000D8E7002070BD0000104402580090D00306
:102DB00040787D0100000039304402580024744AF4
:102DC0000024744C20BCBE4B2DE9F05F04007DD084
:102DD000FF4F2078FE4D1837DFF8F493103DC00701
:102DE00048D0D9F80000396800F03800102815D014
:102DF000182803D101F0030002280FD06068B0F555
:102E0000803F12D010B1B0F5A02F18D0286820F460
:102E100080302860286820F4802009E0286880033A
:102E200028D560680028D2D024E0286840F480309B
:102E30002860606888B1FEF715FE064609E028683C
:102E400040F480202860F0E7FEF70CFE801B642829
:102E50006FD828688003F7D50CE0FEF703FE06461E
:102E600005E000BFFEF7FEFD801B6428F0D828684F
:102E70008003F7D4207841F20308D54E0C3E80073A
:102E800069D5D9F80000396810F038000ED018283C
:102E900001D188070AD0E06890B3296821F01901B0
:102EA00001432960FEF7DEFD824631E028684007D5
:102EB00002D5E06800288AD0E168286820F019006F
:102EC00008432860FEF7CEFD824607E0DFE000BF42
:102ED000FEF7C8FDA0EB0A000228B9D82868400711
:102EE000F6D500BFFEF7B8FD40451BD82069402845
:102EF00012D0316821F47C3141EA003030602AE0A0
:102F000018E000BFFEF7AEFDA0EB0A0002289FD834
:102F100028684007F6D5E5E7306820F47C3040F4B7
:102F20000030EBE7207C316821F0FE4141EA00608F
:102F3000E4E70DE1286820F001002860FEF792FD2B
:102F4000824605E0FEF78EFDA0EB0A0002288DD830
:102F500028684007F6D42078C0065DD5D9F800006F
:102F6000DFF86CB2396800F03800ABF1040B0828C8
:102F700010D0182803D101F0030001280AD0E0691D
:102F80000028286838D040F080002860FEF76AFDED
:102F9000824623E02868C00523D5E069802876D1E1
:102FA0001FE0206A202821D0316821F0F84141EA51
:102FB0008060306030E000BF94F82010DBF8002023
:102FC00022F07C5242EA0161CBF8001024E000BFFD
:102FD000FEF748FDA0EB0A00022898D82868C00533
:102FE000F6D5FEF739FD4045E6D8DAE7306820F03F
:102FF000F84040F08040DCE720F080002860FEF7D9
:1030000031FD064605E000BFFEF72CFD801B0228BF
:103010009DD82868C005F7D42078000729D56C48CA
:103020006169643000298046016811D041F00101D6
:103030000160FEF717FD064605E000BFFEF712FD32
:10304000801B0228C9D8D8F800008007F6D510E008
:1030500021F001010160FEF705FD064605E000BF15
:10306000FEF700FD801B022872D8D8F80000800708
:10307000F6D42078800623D5A0690028286810D0CF
:1030800040F480502860FEF7EDFC064605E036E18E
:10309000FEF7E8FC801B02285AD828688004F7D580
:1030A0000EE020F480502860FEF7DCFC064604E0C9
:1030B000FEF7D8FC801B02284AD828688004F7D481
:1030C000207840074FD5DFF80C81D8F8001041F484
:1030D0008071C8F80010FEF7C5FC064605E000BF89
:1030E000FEF7C0FC801B642832D8D8F80000C00569
:1030F000F6D5374EA068603601280AD008B10528F9
:1031000013D0306820F001003060306820F00400F7
:1031100002E0306840F001003060A06841F2883A77
:1031200090B1FEF79FFC80460AE0306840F0040052
:103130003060EEE7FEF796FCA0EB0801514507D89A
:1031400030688007F6D50EE0FEF78CFC804607E07D
:1031500084E000BFFEF786FCA0EB080151457DD856
:1031600030688007F6D4606AB0B3DFF86480D9F8BD
:10317000001008F120084FF6F87B08F10409C1F3AC
:10318000C2010329A8F1040A69D00228286820F0A6
:103190008070286003D0FEF765FC044684E0FEF7EB
:1031A00061FC064605E000BFFEF75CFC801B0228C0
:1031B00077D828688001F7D4E26A40F2F3313868A2
:1031C00054F8283F884340EA02101843386004E06E
:1031D0001044025800480258B5E0217B434622893A
:1031E0004FF4FE0C208A4FF0FE474902267D521E06
:1031F000401EA1F50071C2F308088AB2761E0CEADF
:10320000004042EA08020243504607EA06610A43C8
:103210001A60DAF8002022F00102CAF80020D9F87A
:103220000020266A22EA0B0242EAC602C9F8002000
:10323000DAF80010A26921F00C011143CAF800105D
:103240000168E26921F0020111430160016841F463
:1032500080310160016841F4003101E021E027E0A4
:103260000160016841F480210160016841F00101C1
:103270000160286840F080702860FEF7F3FB044688
:1032800005E000BFFEF7EEFB001B022809D8286806
:103290008001F7D557E000BFFEF7E4FB001B0228D2
:1032A00002D90320BDE8F09F28688001F4D44AE0E9
:1032B00039680128D8F8000021D0A26A01F0030380
:1032C00093421CD1E26AC1F305118A4217D1216BE6
:1032D000C0F30802491E8A4211D1616BC0F3462235
:1032E000491E91420BD1A16BC0F30642491E914287
:1032F00005D1E16BC0F30660491E814201D0012077
:10330000D0E7A16C4E46D9F80000C0F3CC00814252
:1033100019D0DAF80000554620F00100CAF8000084
:10332000FEF7A0FB4FEA0007FEF79CFBB842FBD07C
:10333000A26C306820EA0B0040EAC20030602868C6
:1033400040F0010028600020ACE7704770477047EC
:1033500010B5040003D094F83D0010B107E001203F
:1033600010BD002084F83C00204600F022F8022026
:1033700084F83D002068211D00F068FF012084F8DA
:10338000480084F83E0084F83F0084F8400084F848
:10339000410084F8420084F8430084F8440084F833
:1033A000450084F8460084F8470084F83D0000207A
:1033B00010BD704790F83D10012901D001207047E1
:1033C000174A022180F83D100168CB6843F00103E1
:1033D000CB600068904214D0B0F1804F11D01149F9
:1033E00088420ED0104988420BD01049884208D03C
:1033F0000F49884205D00F49884202D00E498842C1
:1034000007D181680D4A1140062906D0B1F5803FE9
:1034100003D0016841F00101016000207047000005
:10342000000001400004004000080040000C004083
:103430000004014000180040004001400700010066
:1034400070472DE9F041044600680027C668056909
:10345000A90713D5B10711D5FA1E02610121217701
:10346000206880698007204602D0FFF7E9FF04E06A
:1034700000F08BF8204600F089F82777680716D50A
:10348000700714D5226802206FF0040111612077C3
:103490002068806910F4407F204602D0FFF7D0FFFB
:1034A00004E000F072F8204600F070F82777280753
:1034B00015D5300713D5226804206FF0080111617B
:1034C00020772068C0698007204602D0FFF7B8FF48
:1034D00004E000F05AF8204600F058F82777E80694
:1034E00016D5F00614D5226808206FF0100111617E
:1034F00020772068C06910F4407F204602D0FFF793
:103500009FFF04E000F041F8204600F03FF82777E5
:10351000E80708D0F00706D021686FF001000861C5
:10352000204600F035F8280601D4A80408D5300656
:1035300006D521686FF4025008612046FFF706FFA8
:10354000E80508D5300606D521686FF4807008615B
:103550002046FFF7FAFE680608D5700606D52168F2
:103560006FF040000861204600F01CF8A8060AD55C
:10357000B00608D521686FF0200008612046BDE83C
:10358000F041FFF7E4BEBDE8F081704770470000EE
:1035900000680349884201D1FEF76ABA704700000B
:1035A00000000140704730B590F88410012918D010
:1035B000012280F884202421C0F8881000222024D1
:1035C00001680B680D6823F0005325F001050D60BC
:1035D000426601680B60C0F8884080F8842010467D
:1035E00030BD022030BD7047704770B5044690F87A
:1035F000840001281DD0012284F884202420C4F8EE
:10360000880020680568026822F0010202602068D4
:10361000826822F060620A438260204600F07EFEEB
:103620002268202100201560C4F8881084F88400E6
:1036300070BD022070BD70B5044690F8840001286A
:103640001DD0012284F884202420C4F8880020683A
:103650000568026822F0010202602068826822F098
:1036600060420A438260204600F058FE2268202112
:1036700000201560C4F8881084F8840070BD022012
:1036800070BD7047704770472DE9F041076800250D
:10369000044640F60F030226F8693968BA681842F2
:1036A0000AD183067ED501F0200302F0805C53EA44
:1036B0000C0377D0616F74E1CF4BDFF840C3134048
:1036C00001EA0C0C53EA0C0C6CD05FEAC07C0CD005
:1036D0005FEAC15C09D54FF0010CC7F820C0D4F8EF
:1036E000907047F00107C4F89070870709D5D70795
:1036F00007D027683E62D4F8906046F00406C4F80C
:10370000906046070AD5D60708D0276804263E628F
:10371000D4F8906046F00206C4F8906006070CD515
:1037200001F020061E4308D0266808233362D4F82F
:10373000903043F00803C4F8903003050BD54B01DB
:1037400009D526684FF400633362D4F8903043F013
:103750002003C4F89030D4F89030002B3DD0800680
:1037600009D501F0200002F08051084303D0616FB9
:1037700009B1204688472168D4F890008968490635
:1037800002D410F0280F2AD0204600F0ADFE2068A9
:10379000806840061ED52068083050E8001F21F0E0
:1037A000400100E021E040E80012002AF3D1D4F803
:1037B000800078B192490165D4F88000FDF790F956
:1037C00000280AD0D4F88000016D00E02046BDE852
:1037D000F04108472046FFF756FFBDE8F08120463C
:1037E000FFF751FFC4F89050F7E7D4F86CC02023DE
:1037F000BCF1010F7ED15FEAC06C7BD55FEAC16C82
:1038000078D51020386220688068400673D5D4F8D7
:1038100080107C4A0868904234D07A4A183290422C
:1038200030D0784A303290422CD0764A483290429A
:1038300028D0744A6032904224D0724A7832904242
:1038400020D0704A903290421CD06E4AA8329042EA
:1038500018D06D4A904215D06B4A1832904211D060
:10386000694A303290420DD0674A4832904209D0BE
:10387000654A6032904205D0634A7832904201D066
:10388000614A903240680004000CA6D0B4F85C2075
:103890008242A2D9A4F85E00C869B0F5807F2FD01B
:1038A000216851E8000F20F4807041E80002002AEE
:1038B000F6D12068083050E8001F21F0010140E8EF
:1038C0000012002AF5D12068083050E8001F21F0CE
:1038D000400140E80012002AF5D1C4F88C30E566BA
:1038E000216851E8000F20F0100041E80002002A92
:1038F000F6D101E040E00BE0D4F88000FCF740FF97
:103900002667B4F85C00B4F85E10401A81B22FE06C
:10391000B4F85C00B4F85E10B4F85E20401A81B2CE
:10392000002AB2D00029B0D0226852E8000F20F45B
:10393000907042E80007002FF6D1344F206800F164
:10394000080050E8002F02EA070240E8002CBCF112
:10395000000FF3D1C4F88C30E5666567206850E845
:10396000002F22F0100240E80023002BF6D126673A
:103970002046FFF738FE30E7C60209D5560207D5C4
:103980004FF4801038622046BDE8F041FFF77ABE60
:1039900006060AD501F0800602F40002164304D0A0
:1039A000A16F00297FF412AF17E7420611D54A062E
:1039B0000FD52046026852E8001F21F0400142E87E
:1039C0000014002CF6D1C0F88830856700F0A2F80A
:1039D00003E7020206D54A0004D52046BDE8F041BF
:1039E000FFF74FBEC001C6D50029C4DA2046BDE8A6
:1039F000F041FFF7F9BD00000100001020010004B4
:103A0000D34400081000024010040240FEFFFFEF04
:103A100010B5040003D0D4F8880010B107E00120ED
:103A200010BD002084F88400204600F027F82420F0
:103A3000C4F888002068016821F001010160A06AD3
:103A400010B1204600F08CFC204600F077FD0128E4
:103A5000E6D02068416821F4904141602068816887
:103A600021F02A0181602068016841F001010160B4
:103A70002046BDE8104000F0D7BC000010B5B6B03D
:103A80000446142130A8FCF7CFFCC0216846FCF79F
:103A9000CBFC1D492068884233D100201E900221B2
:103AA0000446CDE900106846FEF77AFA08B1FCF743
:103AB000F9FC1648016841F480210160006800F4B7
:103AC0008020359011480838016841F008010160F4
:103AD000006830AB022100F0080035904FF44070D0
:103AE000072283E813000A4830A9CDE93342FDF7E5
:103AF0008FFE002208212720FEF7A0F82720FEF7DE
:103B00008FF836B010BD000000480040E84402586D
:103B1000000C02587047FEE7054C4FF4FA758021FF
:103B20002046FDF78BFF284601F013F8F7E7000069
:103B3000001002581D4800212DE9F041DFF868C04F
:103B40004FF44077C0F800C00122C0E9027100F1D3
:103B500014080274417414263B27827488E8C40058
:103B600000F124074FF00B0C04230662202487E8A1
:103B70000C100822C0E90C31C0E90E41072504648D
:103B8000C0E91152C564C0E914138165C0E9171476
:103B9000C0E91915FDF762FC002803D0BDE8F0412B
:103BA000FCF780BCBDE8F08100A00040AC00002420
:103BB000074A0021074810B501F008F8064C00211B
:103BC000034A24322060054801F000F8606010BD0F
:103BD00040630008193B000800000024013D000874
:103BE00070B586B014216846FCF71EFC25480168B4
:103BF00041F004010160016801F0040105910168D0
:103C000041F080010160016801F0800105910168C7
:103C100041F001010160016801F0010105910168B5
:103C200041F010010160016801F010010591016887
:103C300041F00801016000680022134E802100F06D
:103C4000080005903046FDF701FF002469464FF457
:103C500000500294CDE900040C48FDF7D9FD012580
:103C60000B48CDE9005469460294FDF7D1FD802050
:103C70000090CDE90154694630460394FDF7C8FD34
:103C800006B070BDE0440258001002580008025807
:103C9000000002581848002110B5164C0C224FF4B1
:103CA000E1330460C0E90131C160C0E904128161FF
:103CB000C161016241628162FFF7AAFE08B1FCF7AF
:103CC000F1FB0D480021FFF7B6FC08B1FCF7EAFB59
:103CD00009480021FFF789FC08B1FCF7E3FB06481F
:103CE000FFF761FC002803D0BDE81040FCF7DABB09
:103CF00010BD0000004800404C010024FEE7000019
:103D000001202DED048B00F062F80A2000F021FF65
:103D10000421012000F052F80A2000F01AFF0120CF
:103D200000F05FF8642000F014FF012000F054F868
:103D30004FF47A7000F00DFF1A4D1D4E1D4CDFED53
:103D40001A8A9FED1A9A9FED1C8A00BFD4ED020AD1
:103D500010EE900AA8420BDCB0EE490A002200EEF9
:103D6000A80A0621012084ED000A00F06AF906E0A5
:103D700010EE900AB04202D1012000F038F8012084
:103D800000F05AF9606800EE100A401C60600120E3
:103D9000B8EEC00A20EE080A84ED020A00F0D9FE4F
:103DA000D4E70000CDCCCC3D0AD7233CCDCC4C3D54
:103DB00000002041A00000246F12833A08B51323AD
:103DC00001228DF80010694600F030FE08BD052381
:103DD0000022114600F02ABE14230022114600F0F2
:103DE00025BE12230022114600F020BEFEE711235B
:103DF0000022114600F01ABE2DE9F047454D044659
:103E000089464FF0000A2868C04380070AD0414E17
:103E1000283E306820F080603060FDF723FE0746C2
:103E2000B04608E00120BDE8F08700BFFDF71AFEAC
:103E3000C01B022867D8D8F800000001F6D420681B
:103E400029684FF4FE0721F47C313E0241EA00303C
:103E50002860207AA389B4F804C040022D4D2D4972
:103E60005B1E227CACF1010C1035091DA0F5007021
:103E700080B2521ECCF3080C07EA034340EA0C0060
:103E8000184306EA0262104328600868626920F05D
:103E9000C000104308600A68A06922F020020243B3
:103EA0000A60281D0A6822F010020A6002684FF6B4
:103EB000F873E4699A4342EAC40202600868B9F1FF
:103EC000000F40F010020A6011D00868B9F1010F2C
:103ED00011D040F400100860D8F80000444640F0CB
:103EE0008060C8F80000FDF7BDFD05460DE00868DC
:103EF00040F40020EFE740F48010ECE7FDF7B2FD5E
:103F0000401B022801D903208DE720680001F5D568
:103F1000504688E7284402582DE9F047454D0446AD
:103F200089464FF0000A2868C04380070AD0414EF6
:103F3000283E306820F080503060FDF793FD074642
:103F4000B04608E00120BDE8F08700BFFDF78AFD1C
:103F5000C01B022867D8D8F800008000F6D420885B
:103F600029684FF4FE0721F07C713E0241EA0050BF
:103F70002860207AA389B4F804C040022D4D2D4951
:103F80005B1E227CACF1010C1835091DA0F50070F8
:103F900080B2521ECCF3080C07EA034340EA0C003F
:103FA000184306EA0262104328600868626920F438
:103FB0004060104308600A68A06922F4007202435E
:103FC0000A60281D0A6822F480720A6002684FF6AF
:103FD000F873E4699A4342EAC40202600868B9F1DE
:103FE000000F40F480720A6011D00868B9F1010F27
:103FF00011D040F080700860D8F80000444640F0CE
:104000008050C8F80000FDF72DFD05460DE008685A
:1040100040F48000EFE740F40000ECE7FDF722FDFC
:10402000401B022801D903208DE720688000F5D5C8
:10403000504688E72844025832230022114600F0F7
:10404000F5BC1CB510EE103A8DF800108DF801206B
:104050001A0C8DF80230190A8DF804201C0E8DF808
:1040600003102723694606228DF8054000F0DEFC88
:104070001CBD4FF0E02010B5006901F0ADFF012834
:1040800003D0BDE8104001F0D1BC10BD30B59DB0EB
:104090004C216846FCF7C8F9202113A8FCF7C4F9A5
:1040A0000220FDF7FDFD2C4900242C480A6822F06F
:1040B00001020A600A68026842F440420260026833
:1040C00002F440421B9202689204FCD5244A136811
:1040D00043F002031360126802F002021B920268AE
:1040E00042F44042026002680A6842F001020A603B
:1040F000096801F001011B9101688904FCD50220C7
:104100000990402501210091C20301920A900FAB52
:10411000CDE90B050C210D900E9083E81300684645
:104120001294FEF751FE08B172B6FEE708221A9506
:10413000CDE91625D30113AA3F200321CDE9185359
:1041400082E81300022113A8FEF700FC002801D02A
:1041500072B6FEE71DB030BD2C0400581848025856
:10416000F44402582C48F0B52C4A016841F470011F
:104170000160106800F00F00072804D2106820F0DA
:104180000F00C01D106026490020254C10340B681C
:10419000244D43F001030B6020600B682B400B6043
:1041A000136803F00F03072B04D9136823F00F03E0
:1041B000DB1D13601A4C1C4A18341C4B261D371D7E
:1041C0002060174C1A4D28343060261D3860371D8A
:1041D00023603B1D35601C1D3A60251D2E1D186097
:1041E000331D22602860326018600A680C4B114C45
:1041F00022F4802260330A60186020686FF30F0099
:10420000B0F1005F03D20C490120C1F8080143F26C
:10421000D2000A490860F0BD88ED00E0002000529D
:10422000004402587FEDF6EA80020101000202021A
:104230000000FF010010005C0080005100400052AF
:104240000148FFF7FEB80000E00100242DE9F04727
:104250002A4B4FF0804A2A4D02689842294E2A4F35
:104260002A4C09D0504507D0A84205D0B04203D00F
:10427000B84201D0A04205D1D1F804C022F07002AA
:104280004CEA0202DFF888C0DFF888809842DFF845
:1042900088900FD050450DD0A8420BD0B04209D025
:1042A000B84207D0A04205D0604503D0404501D0B8
:1042B000484503D1CD6822F440722A434D6922F06B
:1042C00080022A43026098428A68C2620A68826257
:1042D00007D0A04205D0604503D0404501D04845F5
:1042E00001D109690163012141610169C90703D055
:1042F000016921F001010161BDE8F0870000014082
:104300000004004000080040000C00400004014090
:1043100000400140004401400048014030B5416E7A
:10432000B9B101680D4B03F108048A688968C2F3CA
:104330004262490F5D5C615C2D01B5FBF1F1A0F8B3
:104340006A10995CA25C0901B1FBF2F1A0F8681057
:1043500030BD0121A0F86A10F8E70000FC630008F6
:1043600090F82810090706D50168836B4A6822F483
:1043700000421A434A6090F82810C90706D0016825
:10438000C36A4A6822F400321A434A6090F828103F
:10439000890706D50168036B4A6822F480321A4304
:1043A0004A6090F82810490706D50168436B4A68AF
:1043B00022F480221A434A6090F82810C90606D5D4
:1043C0000168C36B8A6822F480521A438A6090F8AD
:1043D0002810890606D50168036C8A6822F4005209
:1043E0001A438A6090F82810490611D50168436C79
:1043F0004A6822F480121A434A60416CB1F5801F6A
:1044000006D10168836C4A6822F4C0021A434A60EC
:1044100090F82810090606D50168C26C486820F497
:1044200000201043486070472DE9F84300250446FA
:10443000C0F89050FDF716FB8046206820266FF0EC
:104440007E470068000713D500224346310420460A
:10445000009700F049FA58B1216851E8000F20F0A8
:10446000800041E80002002AF6D1C4F8886021E00B
:1044700020680068400722D5002243464FF480019F
:104480002046009700F030FAC8B1206850E8001FBD
:1044900021F4907140E80012002AF6D1206808301B
:1044A00050E8001F21F0010140E80012002AF5D178
:1044B000C4F88C60032084F88450BDE8F883C4F805
:1044C0008860C4F88C60E5662567002084F8845015
:1044D000F3E710B5806B0021A0F85E10A0F856102D
:1044E000FFF7D1F810BD000010B5026852E8001FB8
:1044F00021F4907142E80013002BF6D10E4B0268B4
:10450000083252E8001F194042E80014002CF6D18E
:10451000C16E012908D1026852E8001F21F0100184
:1045200042E80013002BF6D100212022C0F88C2095
:10453000C166416710BD0000FEFFFFEF2DE9F043AB
:1045400004468068D84E87B0D84B2168D4E9042748
:10455000D4F81CC010430A68002547EA0C0738430A
:10456000324002430A602068E268416821F4405109
:10457000114341602268A1699A4201D0206A014337
:104580009768DFF82CC3CB4ECB4807EA0C070F43E4
:1045900097602168676ACA6A22F00F023A43CA62CA
:1045A0002268B2420ED1006800F03800182873D09B
:1045B00047DCB8B3082879D010286FD178E02828D4
:1045C0007ED17BE0BD498A4209D1006800F0070036
:1045D000062875D2DFE800F0546A6C6E7072B84934
:1045E0008A4209D1006800F00700062868D2DFE897
:1045F00000F0475D5F616365B2498A4209D1006896
:1046000000F0070006285BD2DFE800F03A50525471
:104610005658AD498A420BD1006800F007000628C1
:104620004ED200E010E0DFE800F02B41434547495F
:10463000A6498A420AD1006800F03800182839D00B
:10464000B7DD2028BBD13CE001203AE0A0498A42F6
:1046500009D1006800F00700062831D2DFE800F039
:104660001026282A2C2E9B498A420BD1006800F084
:104670000700062824D2DFE800F003191B1D1F21C4
:1046800000201EE09A421BD18B48001D006800F0FC
:104690000700062814D202E00CE007E010E0DFE893
:1046A00000F0030507090B0D02200AE0042008E0D2
:1046B000082006E0102004E0202002E0402000E076
:1046C00080208549DFF814829A42854A4FF40043DE
:1046D0004FEA21174FF000064ED110281AD006DC01
:1046E000022809D004280BD008287CD10DE020280E
:1046F0003ED0402877D13DE0FDF7FCFA014610E0BE
:104700006846FDF709FB01990BE003A8FDF7A6FB3E
:10471000049906E01068800605D51068C0F3C10052
:10472000C140002970D0606A676838F8102007EB34
:104730004703B1FBF2F0834255D8B0EB073F52D8A4
:10474000002308461946FBF725FE02467808130E9B
:10475000120243EA012110183A4671410023FBF787
:1047600019FE604AA0F5407191423CD821688FE063
:104770003946D8E71946D6E7D4F81CC04FF6EF798A
:104780009C4546D1082819D005DC58B101280CD029
:10479000042875D10DE0102815D0202835D04028E8
:1047A0006ED134E0FEF750FA01E0FEF75FFA014601
:1047B00010E06846FDF7B0FA01990BE003A8FDF799
:1047C0004DFB049906E01068800604D51068C0F31C
:1047D000C100C140C1B1636A606838F81330B1FBF1
:1047E000F3F1490000E04BE001EB5001B1FBF0F0C8
:1047F000A0F11001494543D84FF6F0732168C0F38A
:1048000042021840104343E043E03946E3E71946CB
:10481000E1E7082819D005DC58B101280CD004289C
:104820002ED10DE0102815D020282BD0402827D1DC
:104830002AE0FEF709FA01E0FEF718FA014610E057
:104840006846FDF769FA01990BE003A8FDF706FB3E
:10485000049906E01068800604D51068C0F3C10012
:10486000C140B1B1636A606838F81330B1FBF3F14D
:1048700001EB5001B1FBF0F0A0F11001494505D961
:10488000012506E03946EDE71946EBE7216880B2DD
:10489000C8600120A4F86A00A4F86800284666678A
:1048A000A66707B0BDE8F083F369FFCF000C00589E
:1048B000FFF4FF110010014054440258004400402E
:1048C00000480040004C00400050004000140140EF
:1048D00000780040007C00400090D003E4630008B2
:1048E00000440258FFFC0F002DE9F0479946174697
:1048F0000D460446089E4FF0000833E0701C31D08E
:10490000FDF7B0F8A0EB0900B04218D8BEB120689E
:104910000168490726D5802D24D0402D22D0C169B9
:10492000C94309070DD4082505622046FFF7DCFDC1
:10493000C4F89050012084F88480BDE8F0870320FB
:10494000FBE7C069C04300050CD421684FF4006048
:1049500008622046FFF7C8FD2021C4F8901084F8B3
:104960008480ECE72068C06935EA000004D00020AC
:10497000B842C3D00020E0E70120F9E70148FEF784
:1049800083BE00004C010024FEE7090700284FEA1F
:10499000116104DB00F1E02080F80014704700F0A2
:1049A0000F0000F1E02080F8141D704702E008C8F5
:1049B000121F08C1002AFAD170477047002001E099
:1049C00001C1121F002AFBD1704730B58BB00D46D4
:1049D000402113466A46FCF7E9FA10B100200BB0FB
:1049E00030BD009828800398082801D8C4B21BE085
:1049F00009280CD00A280CD00B280CD00C280CD07D
:104A00000D280CD00E280CD00F280CD00CE00C2454
:104A10000AE0102408E0142406E0182404E020240E
:104A200002E0302400E040242046D8E710B58AB0E8
:104A3000002443EAC010082A0294CDE900043CD0C7
:104A400007DC082A1CD2DFE802F01517192E3032D5
:104A50003436182A39D006DC0C2A30D0102A30D04F
:104A6000142A0DD12FE0202A31D0302A31D0402A0B
:104A700006D130E0039403E0012000E0022003901F
:104A80004FF4801008944200CDE90440CDE906249B
:104A900012480A466946FCF7A9F9002801D0FBF73D
:104AA00001FD0AB010BD0320E9E70420E7E7052077
:104AB000E5E70620E3E70720E1E70820DFE7092034
:104AC000DDE70A20DBE70B20D9E70C20D7E70D2034
:104AD000D5E70E20D3E70F20D1E70000AC0000247B
:104AE0001FB500240094019402940394FDF766F826
:104AF00001208DF80C001F218DF8081087228DF8F9
:104B000009208DF80D008DF8000068468DF80A40E8
:104B10008DF80E408DF8014001948DF80B408DF812
:104B20000F40FDF71DF80420FDF756F8FCF7A8FF2D
:104B3000FFF7ACFAFFF754F8FEF7FCFFFFF7AAF80F
:104B4000FBF7E0FD00F014F8FFF732F800F022F870
:104B5000FEE710B5EFF3058111B16FF0050404E035
:104B60004FF0000408B100F001FE204610BD000027
:104B7000EFF3058010B16FF0050070470449086835
:104B800010B14FF0FF30704701220A6000207047DB
:104B90006C00002410B5EFF3058010B16FF0050034
:104BA00010BD08480168012902D04FF0FF3010BD48
:104BB000054A002182F8141D0221016000F03EFE2A
:104BC000002010BD6C0000240BE000E02DE9FF4147
:104BD0004FEA01034FF00005EFF30581039561BB38
:104BE00058B34FF080064FF018014FF000044AB35D
:104BF000176807B13C4697691FB139467F1E382FA9
:104C000002D21779FF0703D0002004B0BDE8F0817D
:104C1000576907B1BE08D2F808C0BCF1000F0DD02B
:104C2000D5685C2D18D312693AB137B18DE80610FA
:104C30003246214601F0A5F903900DE0D7685FB92F
:104C400012694AB903AACDE90012B2B2214601F0B5
:104C50006BF9012800D003950398D6E72DE9F041C0
:104C6000134C0F460546E6682068001D00F048FC1E
:104C7000681C07D137B12168BDE8F0410D48091D16
:104C800000F090BC20683544B5424560216805D2EB
:104C9000A06B091DBDE8F04100F06CBC606B091D04
:104CA00000F068FCA06A854200D2A562BDE8F081F0
:104CB0001C0000241C0700242DE9F041054600F0EB
:104CC0007DFC2D4C2D4FA068401CA060206810B1C9
:104CD000606930B32BE02560A068012827D1002649
:104CE00006EB860007EB800000F036FC761C382EC1
:104CF000F6D3234800F030FC2148143000F02CFC9F
:104D00001F48283000F028FC1D483C3000F024FCEF
:104D10001B48503000F020FC194860631430A06339
:104D200005E0E86A2168C96A814200D82560606AA6
:104D3000401C60626864E86A2169884200D9206189
:104D400000EB8000291D07EB800000F02BFC00F039
:104D500055FC606900280CD02068E96AC06A884266
:104D600007D208494FF080500860BFF34F8FBFF360
:104D70006F8FBDE8F08100001C0000246C0200244D
:104D8000CC06002404ED00E038B500F017FC104C10
:104D90002068C8B90F4800F0DFFB0E48143000F05F
:104DA000DBFB0C490020E16014312161A1F5827325
:104DB0000090A1F1B40210210A2000F04DFE206005
:104DC00010B105A100F09CFCBDE8384000F016BC15
:104DD0005800002420080024546D72510000000087
:104DE00030B4026C0B46002A0BD0D0E902411144CA
:104DF000C160A14201D30168C160184630BCFBF715
:104E0000FABA30BC70472DE9F041856B1746026C49
:104E10000446002682B1C7B1E068FBF7ECFAE1680E
:104E2000206C2268091AE160914202D2A168081A36
:104E3000E060022F16D017E02068A8B9A06801F042
:104E400043F906460020A0600EE06068FBF7D3FA45
:104E5000D4E90101226C10446060884204D32068C8
:104E6000606001E005B16D1E6D1CA5633046BDE8B4
:104E7000F08110B5044690F8590058B101280CD0C3
:104E800002280FD0102080F31188BFF34F8FBFF39B
:104E90006F8FFEE7206B00F0C5FB2046BDE8104099
:104EA00000F0C0BB10BD000011484FF4705110B5A8
:104EB000420706D00E49C01D20F00700411AC1F577
:104EC00070510C4C002301440839A4F1180221F060
:104ED0000701C4E900030C1A11604B600B60C0E9C4
:104EE000001494604FF000415460516110BD000007
:104EF000000F002488000024144E4FF08058144CFA
:104F0000DFF85090A6F29C4712E000BF00F056FB7D
:104F1000F068C568281D00F0F3FAA068401EA06084
:104F20006068401E606000F069FB2846FFF7A1FF43
:104F300060680028EAD138680128F9D9C9F80080EA
:104F4000BFF34F8FBFF36F8FF2E700000807002415
:104F50001C00002404ED00E070B51D46049C51B116
:104F6000C4F80020C4E90F010121204600F0A8FD8B
:104F700084F84C5070BD2460F4E72DE9F05F88465A
:104F80009A4691001546DDE90B940A9EA5228346B8
:104F9000206BFBF742FA206B6FF0030101EB8501F8
:104FA000084420F00707780707D0102080F3118805
:104FB000BFF34F8FBFF36F8FFEE7B8F1000F4FF0D5
:104FC00000050ED00020221818F8001082F83410C6
:104FD00018F8001011B1401C1028F4D384F8435085
:104FE00001E084F83450382E00D33726E662201DC5
:104FF000C4E9136500F0BBFA04F1180000F0B7FA39
:105000006565C6F13800A06184F8585052462461A5
:1050100059463846646200F05BFAB9F1000F20602F
:1050200001D0C9F80040BDE8F09F000030B511493B
:1050300000E011460A688242FBD34B685C18844248
:1050400003D14468084623444B6043681D189542C9
:1050500009D1084C183C2468A24209D052681A446D
:1050600042600A6812680260814200D0086030BD68
:105070000460F9E78800002470B50D4D914241604D
:105080004FF00004006106D88169D21A8A4206D224
:10509000011D286907E09A4203D2994201D30124F5
:1050A00003E0011DE86800F065FA204670BD0000CD
:1050B0005800002410B5044600F080FAA06B28B117
:1050C0005FF0000400F09AFA204610BD0124F9E7D1
:1050D00030B53C4D89B06BE00498002806DA059A9B
:1050E000DDE9060190470498002861DB069C6069B1
:1050F00010B1201D00F004FA03A800F0D5F8024614
:1051000004980A2854D2DFE800F00505052D304741
:1051100005052D3094F8280040F0010084F828009F
:10512000A06905990B4601442046FFF7A5FF50B33F
:10513000216A2046884794F82800400738D5002087
:10514000009005980023A16942181946204601F0F5
:10515000C3F8C0B9102080F31188BFF34F8FBFF39D
:105160006F8FFEE794F828001EE094F8280040F0C6
:10517000010084F828000598A06128B18118134621
:105180002046FFF779FF13E0102080F31188BFF36A
:105190004F8FBFF36F8FFEE794F82800810703D489
:1051A000204600F03FFA03E020F0010084F82800D8
:1051B0002868002204A900F0DDFD00288CD109B088
:1051C00030BD0000580000242DE9FC410F46054683
:1051D00000F078FB01A800F067F80446019818B1C8
:1051E00000F0E8FFBDE8FC81254EAFB130690068F2
:1051F000D0B300273068291B3A4600F095FA00F03A
:10520000D9FF0028EED11F494FF080500860BFF34E
:105210004F8FBFF36F8FE5E7A542EBD800F0CAFFD1
:10522000F0682746C068C468201D00F069F994F84A
:105230002800410719D5A0692B463A464119204656
:10524000FFF71AFFA8B100202A4603460146009046
:10525000204601F041F860B9102080F31188BFF3B7
:105260004F8FBFF36F8FFEE707E020F0010084F857
:105270002800216A20468847B4E70127BAE70000E2
:105280005800002404ED00E00648416B096829B18C
:10529000416BC968C9684968816270474FF0FF3146
:1052A000FAE700001C00002470B5054600F0A2FEDD
:1052B000064E0446B068844203D200F009F801208B
:1052C00000E0002028602046B46070BD5800002433
:1052D000F8B5194D20E0C068C4680668201D00F0CC
:1052E0000FF9216A2046884794F82800400713D513
:1052F000A0693044B04206D92461211D6060E8688D
:1053000000F038F908E000203246034601460090DC
:10531000204600F0E1FF38B1E86801680029DAD1E1
:105320002969C5E90310F8BD102080F31188BFF387
:105330004F8FBFF36F8FFEE7580000240848406886
:10534000401C4FF0100080F3118804D0BFF34F8F42
:10535000BFF36F8FFEE7BFF34F8FBFF36F8FFEE793
:1053600090000024074CE068016841B1C06800214A
:10537000D0F80000FFF728FFFFF7AAFEF3E70121AE
:105380000020F7E7580000242DE9F041044600F022
:1053900015F994F9455004F1240609E0606A48B112
:1053A000304600F0CFFE08B100F00EFA6D1E6DB26F
:1053B000002DF3DC4FF0FF3684F8456000F01EF955
:1053C00000F0FCF894F9445004F1100709E020695A
:1053D00048B1384600F0B6FE08B100F0F5F96D1E90
:1053E0006DB2002DF3DC84F84460BDE8F04100F0BC
:1053F00005B900002DE9F0410027044600F062FAEB
:10540000324E306808B9FFF74FFD706904424ED143
:10541000C4B3083460070ED004F00700C0F10800E0
:105420000444600707D0102080F31188BFF34F8F2A
:10543000BFF36F8FFEE72CB37068844237D82348E0
:10544000183001460D6801E028460D466968A14202
:1054500002D229680029F7D131688D4227D0076828
:105460002968016008376868011B10290FD92819BD
:10547000420708D0102080F31188BFF34F8FBFF38D
:105480006F8FFEE713E041606C60FFF7CFFD696846
:105490007068401A7060B268904200D2B06000201C
:1054A00072691143C5E90001F068401CF06000F02A
:1054B00081FE780707D0102080F31188BFF34F8F4B
:1054C000BFF36F8FFEE73846BDE8F081700000241F
:1054D00070B5041F094E231F4FF0807521F00101A4
:1054E00025601C1F1960A0F120010B1F26604438A5
:1054F0000A606FF002051D6070BD00003D5300089A
:10550000D0E9013201699A60D0E901235A604A6802
:10551000824201D182684A60002202610868401E0E
:10552000086008687047000010B5044C80230460D0
:1055300004F15C000860136010BD000048080024FE
:1055400010B5044C4FF48073046004F15C000860F3
:10555000136010BDA40A00244FF0FF3300F10801CE
:105560000022C0E901130260C1600161704700219F
:105570000161704730B50B685A1C02D000F1080277
:1055800002E0026904E02246546825689D42FAD987
:1055900053684B6099608A60516008610168491CDA
:1055A000016030BD42684A6093688B6093685960BF
:1055B000916008610168491C01607047102080F308
:1055C0001188BFF34F8FBFF36F8F0A494868401CA3
:1055D000486001280CD10848006810F0FF0F07D080
:1055E000102080F31188BFF34F8FBFF36F8FFEE75A
:1055F000704700009000002404ED00E0084948686E
:1056000028B1401E486001D180F3118870471020F6
:1056100080F31188BFF34F8FBFF36F8FFEE7000059
:105620009000002470B500282AD0164DA0F108047F
:1056300061686869014207D1102080F31188BFF3C7
:105640004F8FBFF36F8FFEE722683AB1102080F3CF
:105650001188BFF34F8FBFF36F8FFEE78143616007
:1056600000F030F960686968084468602046FFF718
:10567000DDFC2869401C2861BDE8704000F09ABD3F
:1056800070BD0000700000244FF0E0200021016197
:105690004FF47A728161072303490968B1FBF2F183
:1056A000491E4161036170471400002410B5FAF7E8
:1056B0005BFE114910280ED300F1E0200A7890F823
:1056C000F003904207D2102080F31188BFF34F8F70
:1056D000BFF36F8FFEE709488968006800F4E06057
:1056E000884207D9102080F31188BFF34F8FBFF392
:1056F0006F8FFEE710BD0000900000240CED00E06D
:10570000084B5FF0000210B553F832401CB1521C38
:10571000082AF9D310BD03EBC20443F832106060CD
:1057200010BD00002C02002470B515460E4604463C
:10573000FFF744FF94F944100020491C01D184F87C
:10574000440094F94510491C01D184F84500FFF745
:1057500055FFA06B28B904F124002A46314600F019
:1057600051F82046BDE87040FFF70EBE020010B5AC
:1057700014D00F48006B38B1102080F31188BFF3AC
:105780004F8FBFF36F8FFEE700F09CF800211046AB
:10579000FFF764FA00F00EFD002807D105494FF02D
:1057A00080500860BFF34F8FBFF36F8F10BD0000B4
:1057B0001C00002404ED00E002490A6A0260C96886
:1057C000416070471C00002401490120C8617047F6
:1057D0001C00002410B50C4650B109490968183165
:1057E000FFF7C8FE2046BDE810400121FFF736BA9A
:1057F000102080F31188BFF34F8FBFF36F8FFEE748
:105800001C00002470B514460D4668B10A490968A9
:105810001831FFF7C7FE0CB14FF0FF35214628467F
:10582000BDE87040FFF71ABA102080F31188BFF36B
:105830004F8FBFF36F8FFEE71C00002430B587B099
:10584000002405AA04A9039403A80494FFF76CFE9E
:10585000DDE9030100940023CDE90110174815A1EB
:10586000059A00F08EFB164D0028E8621FD000F06C
:1058700003FD012809D0401C19D1102080F31188A4
:10588000BFF34F8FBFF36F8FFEE7102080F31188B7
:10589000BFF34F8FBFF36F8F01214FF0FF30A8622E
:1058A0006961EC6007B0BDE8304000F045B807B072
:1058B00030BD000049444C4500000000F94E00088E
:1058C0001C0000240248016B491C01637047000062
:1058D0001C000024164810B5016B11B10121C161F3
:1058E00010BD0021C161134A016901E0B9B1491E2F
:1058F00001EB810352F82330002BF7D001EB810339
:1059000002EB830202F1080453685B685360A34210
:1059100001D15B685360DA680260016110BD10203C
:1059200080F31188BFF34F8FBFF36F8FFEE7000046
:105930001C0000246C02002437481CB5374902685B
:105940008A4207D1102080F31188BFF34F8FBFF335
:105950006F8FFEE731490068491E884207D1102049
:1059600080F31188BFF34F8FBFF36F8FFEE72C4991
:10597000FF200A780192087008788DF800009DF8E1
:1059800000209DF8000002F0F002824207D01020B3
:1059900080F31188BFF34F8FBFF36F8FFEE79DF841
:1059A000002007201F4C02F010022270A06005E0CA
:1059B0009DF8002052008DF80020401E9DF8002028
:1059C0001206F5D40328A06007D0102080F31188B8
:1059D000BFF34F8FBFF36F8FFEE74FF44070A060AF
:1059E000019808700C482030016841F47001016092
:1059F000016841F070410160FFF746FE00206060E1
:105A0000FAF77AFC0848016841F040410160FAF772
:105A10005FFC00201CBD000000ED00E071C20F41E2
:105A200000E400E09000002434EF00E0102010B506
:105A300080F31188BFF34F8FBFF36F8F00F0E0FA50
:105A400018B104494FF080500860002080F311889D
:105A500010BD000004ED00E0F8B5069D18B153B18B
:105A6000CAB181B120E0102080F31188BFF34F8FBD
:105A7000BFF36F8FFEE7102080F31188BFF34F8FC5
:105A8000BFF36F8FFEE7102080F31188BFF34F8FB5
:105A9000BFF36F8FFEE739B1102080F31188BFF399
:105AA0004F8FBFF36F8FFEE750241C46012683F80B
:105AB000466000932B46FFF74FFA2046F8BD0000E2
:105AC0002DE9F04704008A4629D0FFF777FD2168C9
:105AD0000025D4E90F23D4F840C004F11008104683
